{
  "_format": "hh-sol-artifact-1",
  "contractName": "QuizCraftArena",
  "sourceName": "contracts/Quiz.sol",
  "abi": [
    {
      "anonymous": false,
      "inputs": [
        {
          "indexed": true,
          "internalType": "uint256",
          "name": "lobbyId",
          "type": "uint256"
        },
        {
          "indexed": false,
          "internalType": "address[]",
          "name": "leaderboard",
          "type": "address[]"
        }
      ],
      "name": "LeaderboardSet",
      "type": "event"
    },
    {
      "anonymous": false,
      "inputs": [
        {
          "indexed": true,
          "internalType": "uint256",
          "name": "lobbyId",
          "type": "uint256"
        }
      ],
      "name": "LobbyCancelled",
      "type": "event"
    },
    {
      "anonymous": false,
      "inputs": [
        {
          "indexed": true,
          "internalType": "uint256",
          "name": "lobbyId",
          "type": "uint256"
        },
        {
          "indexed": false,
          "internalType": "address",
          "name": "winner",
          "type": "address"
        },
        {
          "indexed": false,
          "internalType": "uint256",
          "name": "prize",
          "type": "uint256"
        }
      ],
      "name": "LobbyCompleted",
      "type": "event"
    },
    {
      "anonymous": false,
      "inputs": [
        {
          "indexed": true,
          "internalType": "uint256",
          "name": "lobbyId",
          "type": "uint256"
        },
        {
          "indexed": false,
          "internalType": "string",
          "name": "name",
          "type": "string"
        },
        {
          "indexed": false,
          "internalType": "string",
          "name": "category",
          "type": "string"
        },
        {
          "indexed": false,
          "internalType": "uint256",
          "name": "entryFee",
          "type": "uint256"
        },
        {
          "indexed": false,
          "internalType": "uint256",
          "name": "maxPlayers",
          "type": "uint256"
        },
        {
          "indexed": false,
          "internalType": "address",
          "name": "creator",
          "type": "address"
        }
      ],
      "name": "LobbyCreated",
      "type": "event"
    },
    {
      "anonymous": false,
      "inputs": [
        {
          "indexed": true,
          "internalType": "address",
          "name": "previousOwner",
          "type": "address"
        },
        {
          "indexed": true,
          "internalType": "address",
          "name": "newOwner",
          "type": "address"
        }
      ],
      "name": "OwnershipTransferred",
      "type": "event"
    },
    {
      "anonymous": false,
      "inputs": [
        {
          "indexed": true,
          "internalType": "uint256",
          "name": "lobbyId",
          "type": "uint256"
        },
        {
          "indexed": false,
          "internalType": "address",
          "name": "player",
          "type": "address"
        }
      ],
      "name": "PlayerJoined",
      "type": "event"
    },
    {
      "anonymous": false,
      "inputs": [
        {
          "indexed": true,
          "internalType": "uint256",
          "name": "lobbyId",
          "type": "uint256"
        },
        {
          "indexed": false,
          "internalType": "address[]",
          "name": "players",
          "type": "address[]"
        },
        {
          "indexed": false,
          "internalType": "uint256[]",
          "name": "scores",
          "type": "uint256[]"
        }
      ],
      "name": "ScoresSubmitted",
      "type": "event"
    },
    {
      "inputs": [],
      "name": "LOBBY_TIMEOUT",
      "outputs": [
        {
          "internalType": "uint256",
          "name": "",
          "type": "uint256"
        }
      ],
      "stateMutability": "view",
      "type": "function"
    },
    {
      "inputs": [
        {
          "internalType": "string",
          "name": "_name",
          "type": "string"
        },
        {
          "internalType": "string",
          "name": "_category",
          "type": "string"
        },
        {
          "internalType": "uint256",
          "name": "_entryFee",
          "type": "uint256"
        },
        {
          "internalType": "uint256",
          "name": "_maxPlayers",
          "type": "uint256"
        }
      ],
      "name": "createLobby",
      "outputs": [
        {
          "internalType": "uint256",
          "name": "",
          "type": "uint256"
        }
      ],
      "stateMutability": "nonpayable",
      "type": "function"
    },
    {
      "inputs": [
        {
          "internalType": "uint256",
          "name": "_lobbyId",
          "type": "uint256"
        },
        {
          "internalType": "address",
          "name": "_winner",
          "type": "address"
        }
      ],
      "name": "executeWinnerPayout",
      "outputs": [],
      "stateMutability": "nonpayable",
      "type": "function"
    },
    {
      "inputs": [
        {
          "internalType": "uint256",
          "name": "_lobbyId",
          "type": "uint256"
        }
      ],
      "name": "getPlayersInLobby",
      "outputs": [
        {
          "internalType": "address[]",
          "name": "",
          "type": "address[]"
        }
      ],
      "stateMutability": "view",
      "type": "function"
    },
    {
      "inputs": [
        {
          "internalType": "uint256",
          "name": "_lobbyId",
          "type": "uint256"
        },
        {
          "internalType": "address",
          "name": "_player",
          "type": "address"
        }
      ],
      "name": "isPlayerInLobby",
      "outputs": [
        {
          "internalType": "bool",
          "name": "",
          "type": "bool"
        }
      ],
      "stateMutability": "view",
      "type": "function"
    },
    {
      "inputs": [
        {
          "internalType": "uint256",
          "name": "_lobbyId",
          "type": "uint256"
        }
      ],
      "name": "joinLobby",
      "outputs": [],
      "stateMutability": "payable",
      "type": "function"
    },
    {
      "inputs": [
        {
          "internalType": "uint256",
          "name": "",
          "type": "uint256"
        }
      ],
      "name": "leaderboardSet",
      "outputs": [
        {
          "internalType": "bool",
          "name": "",
          "type": "bool"
        }
      ],
      "stateMutability": "view",
      "type": "function"
    },
    {
      "inputs": [
        {
          "internalType": "uint256",
          "name": "",
          "type": "uint256"
        }
      ],
      "name": "lobbies",
      "outputs": [
        {
          "internalType": "uint256",
          "name": "id",
          "type": "uint256"
        },
        {
          "internalType": "string",
          "name": "name",
          "type": "string"
        },
        {
          "internalType": "string",
          "name": "category",
          "type": "string"
        },
        {
          "internalType": "uint256",
          "name": "entryFee",
          "type": "uint256"
        },
        {
          "internalType": "uint256",
          "name": "playerCount",
          "type": "uint256"
        },
        {
          "internalType": "uint256",
          "name": "maxPlayers",
          "type": "uint256"
        },
        {
          "internalType": "uint256",
          "name": "prizePool",
          "type": "uint256"
        },
        {
          "internalType": "uint256",
          "name": "createdAt",
          "type": "uint256"
        },
        {
          "internalType": "enum QuizCraftArena.LobbyStatus",
          "name": "status",
          "type": "uint8"
        },
        {
          "internalType": "enum QuizCraftArena.DistributionStatus",
          "name": "distribution",
          "type": "uint8"
        },
        {
          "internalType": "address",
          "name": "winner",
          "type": "address"
        },
        {
          "internalType": "address",
          "name": "creator",
          "type": "address"
        }
      ],
      "stateMutability": "view",
      "type": "function"
    },
    {
      "inputs": [
        {
          "internalType": "uint256",
          "name": "",
          "type": "uint256"
        },
        {
          "internalType": "uint256",
          "name": "",
          "type": "uint256"
        }
      ],
      "name": "lobbyLeaderboard",
      "outputs": [
        {
          "internalType": "address",
          "name": "",
          "type": "address"
        }
      ],
      "stateMutability": "view",
      "type": "function"
    },
    {
      "inputs": [],
      "name": "nextLobbyId",
      "outputs": [
        {
          "internalType": "uint256",
          "name": "",
          "type": "uint256"
        }
      ],
      "stateMutability": "view",
      "type": "function"
    },
    {
      "inputs": [],
      "name": "owner",
      "outputs": [
        {
          "internalType": "address",
          "name": "",
          "type": "address"
        }
      ],
      "stateMutability": "view",
      "type": "function"
    },
    {
      "inputs": [
        {
          "internalType": "uint256",
          "name": "",
          "type": "uint256"
        },
        {
          "internalType": "address",
          "name": "",
          "type": "address"
        }
      ],
      "name": "playerScores",
      "outputs": [
        {
          "internalType": "uint256",
          "name": "",
          "type": "uint256"
        }
      ],
      "stateMutability": "view",
      "type": "function"
    },
    {
      "inputs": [],
      "name": "renounceOwnership",
      "outputs": [],
      "stateMutability": "nonpayable",
      "type": "function"
    },
    {
      "inputs": [
        {
          "internalType": "address",
          "name": "newOwner",
          "type": "address"
        }
      ],
      "name": "transferOwnership",
      "outputs": [],
      "stateMutability": "nonpayable",
      "type": "function"
    },
    {
      "inputs": [
        {
          "internalType": "contract IERC20",
          "name": "_token",
          "type": "address"
        },
        {
          "internalType": "address",
          "name": "_to",
          "type": "address"
        }
      ],
      "name": "withdrawERC20",
      "outputs": [],
      "stateMutability": "nonpayable",
      "type": "function"
    },
    {
      "stateMutability": "payable",
      "type": "receive"
    }
  ],
  "bytecode": "0x60806040523480156200001157600080fd5b5060016000819055506200003a6200002e6200004060201b60201c565b6200004860201b60201c565b6200010e565b600033905090565b6000600160009054906101000a900473ffffffffffffffffffffffffffffffffffffffff16905081600160006101000a81548173ffffffffffffffffffffffffffffffffffffffff021916908373ffffffffffffffffffffffffffffffffffffffff1602179055508173ffffffffffffffffffffffffffffffffffffffff168173ffffffffffffffffffffffffffffffffffffffff167f8be0079c531659141344cd1fd0a4f28419497f9722a3daafe3b4186f6b6457e060405160405180910390a35050565b6129cb806200011e6000396000f3fe6080604052600436106100eb5760003560e01c8063869bb51b1161008a578063c309b1e311610059578063c309b1e314610368578063d85cdcb614610393578063e9173b3a146103d0578063f2fde38b146103ec5761012b565b8063869bb51b146102ac5780638da5cb5b146102e95780639456fbcc14610314578063a16353bf1461033d5761012b565b8063559ab8cc116100c6578063559ab8cc146101d35780636e8fb4c614610210578063715018a614610258578063729f767d1461026f5761012b565b8062200e27146101305780630cc46ba71461016d5780632a14ebb4146101965761012b565b3661012b576040517f08c379a00000000000000000000000000000000000000000000000000000000081526004016101229061170f565b60405180910390fd5b600080fd5b34801561013c57600080fd5b50610157600480360381019061015291906117d7565b610415565b6040516101649190611826565b60405180910390f35b34801561017957600080fd5b50610194600480360381019061018f91906117d7565b61043a565b005b3480156101a257600080fd5b506101bd60048036038101906101b89190611987565b610877565b6040516101ca9190611826565b60405180910390f35b3480156101df57600080fd5b506101fa60048036038101906101f591906117d7565b610b05565b6040516102079190611a41565b60405180910390f35b34801561021c57600080fd5b5061023760048036038101906102329190611a5c565b610bcb565b60405161024f9c9b9a99989796959493929190611bce565b60405180910390f35b34801561026457600080fd5b5061026d610d95565b005b34801561027b57600080fd5b5061029660048036038101906102919190611a5c565b610da9565b6040516102a39190611a41565b60405180910390f35b3480156102b857600080fd5b506102d360048036038101906102ce9190611c96565b610dc9565b6040516102e09190611cd6565b60405180910390f35b3480156102f557600080fd5b506102fe610e17565b60405161030b9190611cd6565b60405180910390f35b34801561032057600080fd5b5061033b60048036038101906103369190611d2f565b610e41565b005b34801561034957600080fd5b50610352610f8e565b60405161035f9190611826565b60405180910390f35b34801561037457600080fd5b5061037d610f94565b60405161038a9190611826565b60405180910390f35b34801561039f57600080fd5b506103ba60048036038101906103b59190611a5c565b610f9a565b6040516103c79190611e2d565b60405180910390f35b6103ea60048036038101906103e59190611a5c565b611084565b005b3480156103f857600080fd5b50610413600480360381019061040e9190611e4f565b6113e5565b005b6003602052816000526040600020602052806000526040600020600091509150505481565b610442611469565b816006548110610487576040517f08c379a000000000000000000000000000000000000000000000000000000000815260040161047e90611ec8565b60405180910390fd5b8260026000828152602001908152602001600020600b0160009054906101000a900473ffffffffffffffffffffffffffffffffffffffff1673ffffffffffffffffffffffffffffffffffffffff163373ffffffffffffffffffffffffffffffffffffffff161461052c576040517f08c379a000000000000000000000000000000000000000000000000000000000815260040161052390611f5a565b60405180910390fd5b60006002600086815260200190815260200160002090506002600481111561055757610556611b00565b5b8160080160009054906101000a900460ff16600481111561057b5761057a611b00565b5b146105bb576040517f08c379a00000000000000000000000000000000000000000000000000000000081526004016105b290611fc6565b60405180910390fd5b6105c58585610b05565b610604576040517f08c379a00000000000000000000000000000000000000000000000000000000081526004016105fb90612032565b60405180910390fd5b6000600181111561061857610617611b00565b5b8160080160019054906101000a900460ff16600181111561063c5761063b611b00565b5b1461067c576040517f08c379a00000000000000000000000000000000000000000000000000000000081526004016106739061209e565b60405180910390fd5b61012c816007015461068e91906120ed565b4210156106d0576040517f08c379a00000000000000000000000000000000000000000000000000000000081526004016106c79061218f565b60405180910390fd5b60038160080160006101000a81548160ff021916908360048111156106f8576106f7611b00565b5b02179055508381600a0160006101000a81548173ffffffffffffffffffffffffffffffffffffffff021916908373ffffffffffffffffffffffffffffffffffffffff16021790555060018160080160016101000a81548160ff0219169083600181111561076857610767611b00565b5b02179055506000816006015490506000826006018190555060008573ffffffffffffffffffffffffffffffffffffffff16826040516107a6906121e0565b60006040518083038185875af1925050503d80600081146107e3576040519150601f19603f3d011682016040523d82523d6000602084013e6107e8565b606091505b505090508061082c576040517f08c379a000000000000000000000000000000000000000000000000000000000815260040161082390612241565b60405180910390fd5b867f5d36374a8d1a6cae8e46381aea50cae98b85e5ede9e10916d26179527900e520878460405161085e929190612261565b60405180910390a250505050506108736114b9565b5050565b6000808551116108bc576040517f08c379a00000000000000000000000000000000000000000000000000000000081526004016108b3906122d6565b60405180910390fd5b6000845111610900576040517f08c379a00000000000000000000000000000000000000000000000000000000081526004016108f790612342565b60405180910390fd5b60008311610943576040517f08c379a000000000000000000000000000000000000000000000000000000000815260040161093a906123ae565b60405180910390fd5b6001821180156109545750600a8211155b610993576040517f08c379a000000000000000000000000000000000000000000000000000000000815260040161098a9061241a565b60405180910390fd5b6000600660008154809291906109a89061243a565b9190505590506000600260008381526020019081526020016000209050818160000181905550868160010190805190602001906109e692919061160f565b50858160020190805190602001906109ff92919061160f565b5084816003018190555083816005018190555042816007018190555060008160080160006101000a81548160ff02191690836004811115610a4357610a42611b00565b5b021790555060008160080160016101000a81548160ff02191690836001811115610a7057610a6f611b00565b5b02179055503381600b0160006101000a81548173ffffffffffffffffffffffffffffffffffffffff021916908373ffffffffffffffffffffffffffffffffffffffff160217905550817f0e2b64f820c6349ce53d20faa9c7eba7858ae3c3ea29cc7fbf30c50fffcf31708888888833604051610af0959493929190612483565b60405180910390a28192505050949350505050565b60008060026000858152602001908152602001600020600901905060005b8180549050811015610bbe578373ffffffffffffffffffffffffffffffffffffffff16828281548110610b5957610b586124e4565b5b9060005260206000200160009054906101000a900473ffffffffffffffffffffffffffffffffffffffff1673ffffffffffffffffffffffffffffffffffffffff161415610bab57600192505050610bc5565b8080610bb69061243a565b915050610b23565b5060009150505b92915050565b6002602052806000526040600020600091509050806000015490806001018054610bf490612542565b80601f0160208091040260200160405190810160405280929190818152602001828054610c2090612542565b8015610c6d5780601f10610c4257610100808354040283529160200191610c6d565b820191906000526020600020905b815481529060010190602001808311610c5057829003601f168201915b505050505090806002018054610c8290612542565b80601f0160208091040260200160405190810160405280929190818152602001828054610cae90612542565b8015610cfb5780601f10610cd057610100808354040283529160200191610cfb565b820191906000526020600020905b815481529060010190602001808311610cde57829003601f168201915b5050505050908060030154908060040154908060050154908060060154908060070154908060080160009054906101000a900460ff16908060080160019054906101000a900460ff169080600a0160009054906101000a900473ffffffffffffffffffffffffffffffffffffffff169080600b0160009054906101000a900473ffffffffffffffffffffffffffffffffffffffff1690508c565b610d9d6114c3565b610da76000611541565b565b60056020528060005260406000206000915054906101000a900460ff1681565b60046020528160005260406000208181548110610de557600080fd5b906000526020600020016000915091509054906101000a900473ffffffffffffffffffffffffffffffffffffffff1681565b6000600160009054906101000a900473ffffffffffffffffffffffffffffffffffffffff16905090565b610e496114c3565b60008273ffffffffffffffffffffffffffffffffffffffff166370a08231306040518263ffffffff1660e01b8152600401610e849190611cd6565b602060405180830381865afa158015610ea1573d6000803e3d6000fd5b505050506040513d601f19601f82011682018060405250810190610ec59190612589565b905060008111610f0a576040517f08c379a0000000000000000000000000000000000000000000000000000000008152600401610f0190612602565b60405180910390fd5b8273ffffffffffffffffffffffffffffffffffffffff1663a9059cbb83836040518363ffffffff1660e01b8152600401610f45929190612261565b6020604051808303816000875af1158015610f64573d6000803e3d6000fd5b505050506040513d601f19601f82011682018060405250810190610f88919061264e565b50505050565b61012c81565b60065481565b6060816006548110610fe1576040517f08c379a0000000000000000000000000000000000000000000000000000000008152600401610fd890611ec8565b60405180910390fd5b6002600084815260200190815260200160002060090180548060200260200160405190810160405280929190818152602001828054801561107757602002820191906000526020600020905b8160009054906101000a900473ffffffffffffffffffffffffffffffffffffffff1673ffffffffffffffffffffffffffffffffffffffff168152602001906001019080831161102d575b5050505050915050919050565b61108c611469565b8060065481106110d1576040517f08c379a00000000000000000000000000000000000000000000000000000000081526004016110c890611ec8565b60405180910390fd5b6000600260008481526020019081526020016000209050600060048111156110fc576110fb611b00565b5b8160080160009054906101000a900460ff1660048111156111205761111f611b00565b5b148061116157506001600481111561113b5761113a611b00565b5b8160080160009054906101000a900460ff16600481111561115f5761115e611b00565b5b145b6111a0576040517f08c379a0000000000000000000000000000000000000000000000000000000008152600401611197906126c7565b60405180910390fd5b806003015434146111e6576040517f08c379a00000000000000000000000000000000000000000000000000000000081526004016111dd90612733565b60405180910390fd5b8060050154816009018054905010611233576040517f08c379a000000000000000000000000000000000000000000000000000000000815260040161122a9061279f565b60405180910390fd5b61012c816007015461124591906120ed565b421115611287576040517f08c379a000000000000000000000000000000000000000000000000000000000815260040161127e9061280b565b60405180910390fd5b80600901339080600181540180825580915050600190039060005260206000200160009091909190916101000a81548173ffffffffffffffffffffffffffffffffffffffff021916908373ffffffffffffffffffffffffffffffffffffffff1602179055508060040160008154809291906113019061243a565b91905055503481600601600082825461131a91906120ed565b92505081905550827f87969bc7faf902221a147b95ceba76e011c5efb0339a0a8ee7a2bb82d9cfbbd6336040516113519190611cd6565b60405180910390a26001816009018054905014156113975760018160080160006101000a81548160ff0219169083600481111561139157611390611b00565b5b02179055505b8060050154816009018054905014156113d85760028160080160006101000a81548160ff021916908360048111156113d2576113d1611b00565b5b02179055505b50506113e26114b9565b50565b6113ed6114c3565b600073ffffffffffffffffffffffffffffffffffffffff168173ffffffffffffffffffffffffffffffffffffffff16141561145d576040517f08c379a00000000000000000000000000000000000000000000000000000000081526004016114549061289d565b60405180910390fd5b61146681611541565b50565b600260005414156114af576040517f08c379a00000000000000000000000000000000000000000000000000000000081526004016114a690612909565b60405180910390fd5b6002600081905550565b6001600081905550565b6114cb611607565b73ffffffffffffffffffffffffffffffffffffffff166114e9610e17565b73ffffffffffffffffffffffffffffffffffffffff161461153f576040517f08c379a000000000000000000000000000000000000000000000000000000000815260040161153690612975565b60405180910390fd5b565b6000600160009054906101000a900473ffffffffffffffffffffffffffffffffffffffff16905081600160006101000a81548173ffffffffffffffffffffffffffffffffffffffff021916908373ffffffffffffffffffffffffffffffffffffffff1602179055508173ffffffffffffffffffffffffffffffffffffffff168173ffffffffffffffffffffffffffffffffffffffff167f8be0079c531659141344cd1fd0a4f28419497f9722a3daafe3b4186f6b6457e060405160405180910390a35050565b600033905090565b82805461161b90612542565b90600052602060002090601f01602090048101928261163d5760008555611684565b82601f1061165657805160ff1916838001178555611684565b82800160010185558215611684579182015b82811115611683578251825591602001919060010190611668565b5b5090506116919190611695565b5090565b5b808211156116ae576000816000905550600101611696565b5090565b600082825260208201905092915050565b7f446f206e6f742073656e6420455448206469726563746c790000000000000000600082015250565b60006116f96018836116b2565b9150611704826116c3565b602082019050919050565b60006020820190508181036000830152611728816116ec565b9050919050565b6000604051905090565b600080fd5b600080fd5b6000819050919050565b61175681611743565b811461176157600080fd5b50565b6000813590506117738161174d565b92915050565b600073ffffffffffffffffffffffffffffffffffffffff82169050919050565b60006117a482611779565b9050919050565b6117b481611799565b81146117bf57600080fd5b50565b6000813590506117d1816117ab565b92915050565b600080604083850312156117ee576117ed611739565b5b60006117fc85828601611764565b925050602061180d858286016117c2565b9150509250929050565b61182081611743565b82525050565b600060208201905061183b6000830184611817565b92915050565b600080fd5b600080fd5b6000601f19601f8301169050919050565b7f4e487b7100000000000000000000000000000000000000000000000000000000600052604160045260246000fd5b6118948261184b565b810181811067ffffffffffffffff821117156118b3576118b261185c565b5b80604052505050565b60006118c661172f565b90506118d2828261188b565b919050565b600067ffffffffffffffff8211156118f2576118f161185c565b5b6118fb8261184b565b9050602081019050919050565b82818337600083830152505050565b600061192a611925846118d7565b6118bc565b90508281526020810184848401111561194657611945611846565b5b611951848285611908565b509392505050565b600082601f83011261196e5761196d611841565b5b813561197e848260208601611917565b91505092915050565b600080600080608085870312156119a1576119a0611739565b5b600085013567ffffffffffffffff8111156119bf576119be61173e565b5b6119cb87828801611959565b945050602085013567ffffffffffffffff8111156119ec576119eb61173e565b5b6119f887828801611959565b9350506040611a0987828801611764565b9250506060611a1a87828801611764565b91505092959194509250565b60008115159050919050565b611a3b81611a26565b82525050565b6000602082019050611a566000830184611a32565b92915050565b600060208284031215611a7257611a71611739565b5b6000611a8084828501611764565b91505092915050565b600081519050919050565b60005b83811015611ab2578082015181840152602081019050611a97565b83811115611ac1576000848401525b50505050565b6000611ad282611a89565b611adc81856116b2565b9350611aec818560208601611a94565b611af58161184b565b840191505092915050565b7f4e487b7100000000000000000000000000000000000000000000000000000000600052602160045260246000fd5b60058110611b4057611b3f611b00565b5b50565b6000819050611b5182611b2f565b919050565b6000611b6182611b43565b9050919050565b611b7181611b56565b82525050565b60028110611b8857611b87611b00565b5b50565b6000819050611b9982611b77565b919050565b6000611ba982611b8b565b9050919050565b611bb981611b9e565b82525050565b611bc881611799565b82525050565b600061018082019050611be4600083018f611817565b8181036020830152611bf6818e611ac7565b90508181036040830152611c0a818d611ac7565b9050611c19606083018c611817565b611c26608083018b611817565b611c3360a083018a611817565b611c4060c0830189611817565b611c4d60e0830188611817565b611c5b610100830187611b68565b611c69610120830186611bb0565b611c77610140830185611bbf565b611c85610160830184611bbf565b9d9c50505050505050505050505050565b60008060408385031215611cad57611cac611739565b5b6000611cbb85828601611764565b9250506020611ccc85828601611764565b9150509250929050565b6000602082019050611ceb6000830184611bbf565b92915050565b6000611cfc82611799565b9050919050565b611d0c81611cf1565b8114611d1757600080fd5b50565b600081359050611d2981611d03565b92915050565b60008060408385031215611d4657611d45611739565b5b6000611d5485828601611d1a565b9250506020611d65858286016117c2565b9150509250929050565b600081519050919050565b600082825260208201905092915050565b6000819050602082019050919050565b611da481611799565b82525050565b6000611db68383611d9b565b60208301905092915050565b6000602082019050919050565b6000611dda82611d6f565b611de48185611d7a565b9350611def83611d8b565b8060005b83811015611e20578151611e078882611daa565b9750611e1283611dc2565b925050600181019050611df3565b5085935050505092915050565b60006020820190508181036000830152611e478184611dcf565b905092915050565b600060208284031215611e6557611e64611739565b5b6000611e73848285016117c2565b91505092915050565b7f4c6f62627920646f6573206e6f74206578697374000000000000000000000000600082015250565b6000611eb26014836116b2565b9150611ebd82611e7c565b602082019050919050565b60006020820190508181036000830152611ee181611ea5565b9050919050565b7f4f6e6c79206c6f6262792063726561746f722063616e2065786563757465207460008201527f6869730000000000000000000000000000000000000000000000000000000000602082015250565b6000611f446023836116b2565b9150611f4f82611ee8565b604082019050919050565b60006020820190508181036000830152611f7381611f37565b9050919050565b7f4c6f626279206e6f7420696e2070726f67726573730000000000000000000000600082015250565b6000611fb06015836116b2565b9150611fbb82611f7a565b602082019050919050565b60006020820190508181036000830152611fdf81611fa3565b9050919050565b7f57696e6e6572206e6f7420696e2074686973206c6f6262790000000000000000600082015250565b600061201c6018836116b2565b915061202782611fe6565b602082019050919050565b6000602082019050818103600083015261204b8161200f565b9050919050565b7f416c726561647920646973747269627574656400000000000000000000000000600082015250565b60006120886013836116b2565b915061209382612052565b602082019050919050565b600060208201905081810360008301526120b78161207b565b9050919050565b7f4e487b7100000000000000000000000000000000000000000000000000000000600052601160045260246000fd5b60006120f882611743565b915061210383611743565b9250827fffffffffffffffffffffffffffffffffffffffffffffffffffffffffffffffff03821115612138576121376120be565b5b828201905092915050565b7f4c6f626279206e6f742065787069726564207965740000000000000000000000600082015250565b60006121796015836116b2565b915061218482612143565b602082019050919050565b600060208201905081810360008301526121a88161216c565b9050919050565b600081905092915050565b50565b60006121ca6000836121af565b91506121d5826121ba565b600082019050919050565b60006121eb826121bd565b9150819050919050565b7f5072697a65207472616e73666572206661696c65640000000000000000000000600082015250565b600061222b6015836116b2565b9150612236826121f5565b602082019050919050565b6000602082019050818103600083015261225a8161221e565b9050919050565b60006040820190506122766000830185611bbf565b6122836020830184611817565b9392505050565b7f4c6f626279206e616d652063616e6e6f7420626520656d707479000000000000600082015250565b60006122c0601a836116b2565b91506122cb8261228a565b602082019050919050565b600060208201905081810360008301526122ef816122b3565b9050919050565b7f43617465676f72792063616e6e6f7420626520656d7074790000000000000000600082015250565b600061232c6018836116b2565b9150612337826122f6565b602082019050919050565b6000602082019050818103600083015261235b8161231f565b9050919050565b7f456e74727920666565206d7573742062652067726561746572207468616e2030600082015250565b60006123986020836116b2565b91506123a382612362565b602082019050919050565b600060208201905081810360008301526123c78161238b565b9050919050565b7f496e76616c6964206d617820706c617965727300000000000000000000000000600082015250565b60006124046013836116b2565b915061240f826123ce565b602082019050919050565b60006020820190508181036000830152612433816123f7565b9050919050565b600061244582611743565b91507fffffffffffffffffffffffffffffffffffffffffffffffffffffffffffffffff821415612478576124776120be565b5b600182019050919050565b600060a082019050818103600083015261249d8188611ac7565b905081810360208301526124b18187611ac7565b90506124c06040830186611817565b6124cd6060830185611817565b6124da6080830184611bbf565b9695505050505050565b7f4e487b7100000000000000000000000000000000000000000000000000000000600052603260045260246000fd5b7f4e487b7100000000000000000000000000000000000000000000000000000000600052602260045260246000fd5b6000600282049050600182168061255a57607f821691505b6020821081141561256e5761256d612513565b5b50919050565b6000815190506125838161174d565b92915050565b60006020828403121561259f5761259e611739565b5b60006125ad84828501612574565b91505092915050565b7f4e6f20746f6b656e7320746f2077697468647261770000000000000000000000600082015250565b60006125ec6015836116b2565b91506125f7826125b6565b602082019050919050565b6000602082019050818103600083015261261b816125df565b9050919050565b61262b81611a26565b811461263657600080fd5b50565b60008151905061264881612622565b92915050565b60006020828403121561266457612663611739565b5b600061267284828501612639565b91505092915050565b7f4c6f626279206e6f74206f70656e000000000000000000000000000000000000600082015250565b60006126b1600e836116b2565b91506126bc8261267b565b602082019050919050565b600060208201905081810360008301526126e0816126a4565b9050919050565b7f496e636f727265637420656e7472792066656500000000000000000000000000600082015250565b600061271d6013836116b2565b9150612728826126e7565b602082019050919050565b6000602082019050818103600083015261274c81612710565b9050919050565b7f4c6f6262792066756c6c00000000000000000000000000000000000000000000600082015250565b6000612789600a836116b2565b915061279482612753565b602082019050919050565b600060208201905081810360008301526127b88161277c565b9050919050565b7f4c6f626279206578706972656400000000000000000000000000000000000000600082015250565b60006127f5600d836116b2565b9150612800826127bf565b602082019050919050565b60006020820190508181036000830152612824816127e8565b9050919050565b7f4f776e61626c653a206e6577206f776e657220697320746865207a65726f206160008201527f6464726573730000000000000000000000000000000000000000000000000000602082015250565b60006128876026836116b2565b91506128928261282b565b604082019050919050565b600060208201905081810360008301526128b68161287a565b9050919050565b7f5265656e7472616e637947756172643a207265656e7472616e742063616c6c00600082015250565b60006128f3601f836116b2565b91506128fe826128bd565b602082019050919050565b60006020820190508181036000830152612922816128e6565b9050919050565b7f4f776e61626c653a2063616c6c6572206973206e6f7420746865206f776e6572600082015250565b600061295f6020836116b2565b915061296a82612929565b602082019050919050565b6000602082019050818103600083015261298e81612952565b905091905056fea2646970667358221220032737dee2afd215d85ed59735bd9a0ccc9bb66cb5e91a1535133bf04ea4ddc164736f6c634300080a0033",
  "linkReferences": {},
  "deployedLinkReferences": {}
}