{
  "_format": "hh-sol-artifact-1",
  "contractName": "QuizCraftArena",
  "sourceName": "contracts/Quiz.sol",
  "abi": [
    {
      "inputs": [
        {
          "internalType": "uint256",
          "name": "_feeBps",
          "type": "uint256"
        }
      ],
      "stateMutability": "nonpayable",
      "type": "constructor"
    },
    {
      "anonymous": false,
      "inputs": [
        {
          "indexed": false,
          "internalType": "uint256",
          "name": "newFeeBps",
          "type": "uint256"
        }
      ],
      "name": "FeeUpdated",
      "type": "event"
    },
    {
      "anonymous": false,
      "inputs": [
        {
          "indexed": false,
          "internalType": "address",
          "name": "newGameMaster",
          "type": "address"
        }
      ],
      "name": "GameMasterUpdated",
      "type": "event"
    },
    {
      "anonymous": false,
      "inputs": [
        {
          "indexed": true,
          "internalType": "uint256",
          "name": "lobbyId",
          "type": "uint256"
        },
        {
          "indexed": false,
          "internalType": "address[]",
          "name": "leaderboard",
          "type": "address[]"
        }
      ],
      "name": "LeaderboardSet",
      "type": "event"
    },
    {
      "anonymous": false,
      "inputs": [
        {
          "indexed": true,
          "internalType": "uint256",
          "name": "lobbyId",
          "type": "uint256"
        }
      ],
      "name": "LobbyCancelled",
      "type": "event"
    },
    {
      "anonymous": false,
      "inputs": [
        {
          "indexed": true,
          "internalType": "uint256",
          "name": "lobbyId",
          "type": "uint256"
        },
        {
          "indexed": false,
          "internalType": "address",
          "name": "winner",
          "type": "address"
        },
        {
          "indexed": false,
          "internalType": "uint256",
          "name": "prize",
          "type": "uint256"
        }
      ],
      "name": "LobbyCompleted",
      "type": "event"
    },
    {
      "anonymous": false,
      "inputs": [
        {
          "indexed": true,
          "internalType": "uint256",
          "name": "lobbyId",
          "type": "uint256"
        },
        {
          "indexed": false,
          "internalType": "string",
          "name": "name",
          "type": "string"
        },
        {
          "indexed": false,
          "internalType": "string",
          "name": "category",
          "type": "string"
        },
        {
          "indexed": false,
          "internalType": "uint256",
          "name": "entryFee",
          "type": "uint256"
        },
        {
          "indexed": false,
          "internalType": "uint256",
          "name": "maxPlayers",
          "type": "uint256"
        },
        {
          "indexed": false,
          "internalType": "address",
          "name": "creator",
          "type": "address"
        }
      ],
      "name": "LobbyCreated",
      "type": "event"
    },
    {
      "anonymous": false,
      "inputs": [
        {
          "indexed": true,
          "internalType": "address",
          "name": "previousOwner",
          "type": "address"
        },
        {
          "indexed": true,
          "internalType": "address",
          "name": "newOwner",
          "type": "address"
        }
      ],
      "name": "OwnershipTransferred",
      "type": "event"
    },
    {
      "anonymous": false,
      "inputs": [
        {
          "indexed": true,
          "internalType": "uint256",
          "name": "lobbyId",
          "type": "uint256"
        },
        {
          "indexed": false,
          "internalType": "address",
          "name": "player",
          "type": "address"
        }
      ],
      "name": "PlayerJoined",
      "type": "event"
    },
    {
      "anonymous": false,
      "inputs": [
        {
          "indexed": false,
          "internalType": "address",
          "name": "player",
          "type": "address"
        },
        {
          "indexed": false,
          "internalType": "uint256",
          "name": "amount",
          "type": "uint256"
        }
      ],
      "name": "RefundClaimed",
      "type": "event"
    },
    {
      "anonymous": false,
      "inputs": [
        {
          "indexed": true,
          "internalType": "uint256",
          "name": "lobbyId",
          "type": "uint256"
        },
        {
          "indexed": false,
          "internalType": "address[]",
          "name": "players",
          "type": "address[]"
        },
        {
          "indexed": false,
          "internalType": "uint256[]",
          "name": "scores",
          "type": "uint256[]"
        }
      ],
      "name": "ScoresSubmitted",
      "type": "event"
    },
    {
      "inputs": [],
      "name": "LOBBY_TIMEOUT",
      "outputs": [
        {
          "internalType": "uint256",
          "name": "",
          "type": "uint256"
        }
      ],
      "stateMutability": "view",
      "type": "function"
    },
    {
      "inputs": [
        {
          "internalType": "uint256",
          "name": "_lobbyId",
          "type": "uint256"
        }
      ],
      "name": "claimRefund",
      "outputs": [],
      "stateMutability": "nonpayable",
      "type": "function"
    },
    {
      "inputs": [
        {
          "internalType": "string",
          "name": "_name",
          "type": "string"
        },
        {
          "internalType": "string",
          "name": "_category",
          "type": "string"
        },
        {
          "internalType": "uint256",
          "name": "_entryFee",
          "type": "uint256"
        },
        {
          "internalType": "uint256",
          "name": "_maxPlayers",
          "type": "uint256"
        }
      ],
      "name": "createLobby",
      "outputs": [
        {
          "internalType": "uint256",
          "name": "",
          "type": "uint256"
        }
      ],
      "stateMutability": "nonpayable",
      "type": "function"
    },
    {
      "inputs": [],
      "name": "gameMaster",
      "outputs": [
        {
          "internalType": "address",
          "name": "",
          "type": "address"
        }
      ],
      "stateMutability": "view",
      "type": "function"
    },
    {
      "inputs": [
        {
          "internalType": "uint256",
          "name": "_lobbyId",
          "type": "uint256"
        }
      ],
      "name": "getActiveMembers",
      "outputs": [
        {
          "internalType": "address[]",
          "name": "",
          "type": "address[]"
        }
      ],
      "stateMutability": "view",
      "type": "function"
    },
    {
      "inputs": [
        {
          "internalType": "uint256",
          "name": "_lobbyId",
          "type": "uint256"
        }
      ],
      "name": "getAllScores",
      "outputs": [
        {
          "internalType": "address[]",
          "name": "players",
          "type": "address[]"
        },
        {
          "internalType": "uint256[]",
          "name": "scores",
          "type": "uint256[]"
        }
      ],
      "stateMutability": "view",
      "type": "function"
    },
    {
      "inputs": [
        {
          "internalType": "uint256",
          "name": "_lobbyId",
          "type": "uint256"
        }
      ],
      "name": "getLeaderboard",
      "outputs": [
        {
          "internalType": "address[]",
          "name": "",
          "type": "address[]"
        }
      ],
      "stateMutability": "view",
      "type": "function"
    },
    {
      "inputs": [
        {
          "internalType": "uint256",
          "name": "_lobbyId",
          "type": "uint256"
        },
        {
          "internalType": "address",
          "name": "_player",
          "type": "address"
        }
      ],
      "name": "getMemberInfo",
      "outputs": [
        {
          "components": [
            {
              "internalType": "address",
              "name": "memberAddress",
              "type": "address"
            },
            {
              "internalType": "bool",
              "name": "isActive",
              "type": "bool"
            },
            {
              "internalType": "uint256",
              "name": "joinedAt",
              "type": "uint256"
            }
          ],
          "internalType": "struct QuizCraftArena.Member",
          "name": "",
          "type": "tuple"
        }
      ],
      "stateMutability": "view",
      "type": "function"
    },
    {
      "inputs": [
        {
          "internalType": "uint256",
          "name": "_lobbyId",
          "type": "uint256"
        },
        {
          "internalType": "address",
          "name": "_player",
          "type": "address"
        }
      ],
      "name": "getPlayerScore",
      "outputs": [
        {
          "internalType": "uint256",
          "name": "",
          "type": "uint256"
        }
      ],
      "stateMutability": "view",
      "type": "function"
    },
    {
      "inputs": [
        {
          "internalType": "uint256",
          "name": "_lobbyId",
          "type": "uint256"
        }
      ],
      "name": "getPlayersInLobby",
      "outputs": [
        {
          "internalType": "address[]",
          "name": "",
          "type": "address[]"
        }
      ],
      "stateMutability": "view",
      "type": "function"
    },
    {
      "inputs": [
        {
          "internalType": "uint256",
          "name": "_lobbyId",
          "type": "uint256"
        }
      ],
      "name": "isLeaderboardSet",
      "outputs": [
        {
          "internalType": "bool",
          "name": "",
          "type": "bool"
        }
      ],
      "stateMutability": "view",
      "type": "function"
    },
    {
      "inputs": [
        {
          "internalType": "uint256",
          "name": "_lobbyId",
          "type": "uint256"
        },
        {
          "internalType": "address",
          "name": "_player",
          "type": "address"
        }
      ],
      "name": "isPlayerInLobby",
      "outputs": [
        {
          "internalType": "bool",
          "name": "",
          "type": "bool"
        }
      ],
      "stateMutability": "view",
      "type": "function"
    },
    {
      "inputs": [
        {
          "internalType": "uint256",
          "name": "_lobbyId",
          "type": "uint256"
        }
      ],
      "name": "joinLobby",
      "outputs": [],
      "stateMutability": "payable",
      "type": "function"
    },
    {
      "inputs": [
        {
          "internalType": "uint256",
          "name": "",
          "type": "uint256"
        }
      ],
      "name": "leaderboardSet",
      "outputs": [
        {
          "internalType": "bool",
          "name": "",
          "type": "bool"
        }
      ],
      "stateMutability": "view",
      "type": "function"
    },
    {
      "inputs": [
        {
          "internalType": "uint256",
          "name": "",
          "type": "uint256"
        }
      ],
      "name": "lobbies",
      "outputs": [
        {
          "internalType": "uint256",
          "name": "id",
          "type": "uint256"
        },
        {
          "internalType": "string",
          "name": "name",
          "type": "string"
        },
        {
          "internalType": "string",
          "name": "category",
          "type": "string"
        },
        {
          "internalType": "uint256",
          "name": "entryFee",
          "type": "uint256"
        },
        {
          "internalType": "uint256",
          "name": "playerCount",
          "type": "uint256"
        },
        {
          "internalType": "uint256",
          "name": "maxPlayers",
          "type": "uint256"
        },
        {
          "internalType": "uint256",
          "name": "prizePool",
          "type": "uint256"
        },
        {
          "internalType": "uint256",
          "name": "createdAt",
          "type": "uint256"
        },
        {
          "internalType": "enum QuizCraftArena.LobbyStatus",
          "name": "status",
          "type": "uint8"
        },
        {
          "internalType": "address",
          "name": "winner",
          "type": "address"
        },
        {
          "internalType": "bool",
          "name": "prizeDistributed",
          "type": "bool"
        },
        {
          "internalType": "address",
          "name": "creator",
          "type": "address"
        }
      ],
      "stateMutability": "view",
      "type": "function"
    },
    {
      "inputs": [
        {
          "internalType": "uint256",
          "name": "",
          "type": "uint256"
        },
        {
          "internalType": "uint256",
          "name": "",
          "type": "uint256"
        }
      ],
      "name": "lobbyLeaderboard",
      "outputs": [
        {
          "internalType": "address",
          "name": "",
          "type": "address"
        }
      ],
      "stateMutability": "view",
      "type": "function"
    },
    {
      "inputs": [
        {
          "internalType": "uint256",
          "name": "",
          "type": "uint256"
        },
        {
          "internalType": "uint256",
          "name": "",
          "type": "uint256"
        }
      ],
      "name": "lobbyMemberAddresses",
      "outputs": [
        {
          "internalType": "address",
          "name": "",
          "type": "address"
        }
      ],
      "stateMutability": "view",
      "type": "function"
    },
    {
      "inputs": [
        {
          "internalType": "uint256",
          "name": "",
          "type": "uint256"
        },
        {
          "internalType": "address",
          "name": "",
          "type": "address"
        }
      ],
      "name": "lobbyMembers",
      "outputs": [
        {
          "internalType": "address",
          "name": "memberAddress",
          "type": "address"
        },
        {
          "internalType": "bool",
          "name": "isActive",
          "type": "bool"
        },
        {
          "internalType": "uint256",
          "name": "joinedAt",
          "type": "uint256"
        }
      ],
      "stateMutability": "view",
      "type": "function"
    },
    {
      "inputs": [],
      "name": "nextLobbyId",
      "outputs": [
        {
          "internalType": "uint256",
          "name": "",
          "type": "uint256"
        }
      ],
      "stateMutability": "view",
      "type": "function"
    },
    {
      "inputs": [],
      "name": "owner",
      "outputs": [
        {
          "internalType": "address",
          "name": "",
          "type": "address"
        }
      ],
      "stateMutability": "view",
      "type": "function"
    },
    {
      "inputs": [
        {
          "internalType": "address",
          "name": "",
          "type": "address"
        }
      ],
      "name": "pendingReturns",
      "outputs": [
        {
          "internalType": "uint256",
          "name": "",
          "type": "uint256"
        }
      ],
      "stateMutability": "view",
      "type": "function"
    },
    {
      "inputs": [],
      "name": "platformFeeBps",
      "outputs": [
        {
          "internalType": "uint256",
          "name": "",
          "type": "uint256"
        }
      ],
      "stateMutability": "view",
      "type": "function"
    },
    {
      "inputs": [
        {
          "internalType": "uint256",
          "name": "",
          "type": "uint256"
        },
        {
          "internalType": "address",
          "name": "",
          "type": "address"
        }
      ],
      "name": "playerScores",
      "outputs": [
        {
          "internalType": "uint256",
          "name": "",
          "type": "uint256"
        }
      ],
      "stateMutability": "view",
      "type": "function"
    },
    {
      "inputs": [],
      "name": "renounceOwnership",
      "outputs": [],
      "stateMutability": "nonpayable",
      "type": "function"
    },
    {
      "inputs": [
        {
          "internalType": "uint256",
          "name": "_lobbyId",
          "type": "uint256"
        },
        {
          "internalType": "address",
          "name": "_winner",
          "type": "address"
        }
      ],
      "name": "resolveGame",
      "outputs": [],
      "stateMutability": "nonpayable",
      "type": "function"
    },
    {
      "inputs": [
        {
          "internalType": "uint256",
          "name": "_lobbyId",
          "type": "uint256"
        },
        {
          "internalType": "address[]",
          "name": "_leaderboard",
          "type": "address[]"
        }
      ],
      "name": "setLeaderboard",
      "outputs": [],
      "stateMutability": "nonpayable",
      "type": "function"
    },
    {
      "inputs": [
        {
          "internalType": "uint256",
          "name": "_lobbyId",
          "type": "uint256"
        },
        {
          "internalType": "address[]",
          "name": "_players",
          "type": "address[]"
        },
        {
          "internalType": "uint256[]",
          "name": "_scores",
          "type": "uint256[]"
        }
      ],
      "name": "submitScores",
      "outputs": [],
      "stateMutability": "nonpayable",
      "type": "function"
    },
    {
      "inputs": [
        {
          "internalType": "address",
          "name": "newOwner",
          "type": "address"
        }
      ],
      "name": "transferOwnership",
      "outputs": [],
      "stateMutability": "nonpayable",
      "type": "function"
    },
    {
      "inputs": [
        {
          "internalType": "address",
          "name": "_newGameMaster",
          "type": "address"
        }
      ],
      "name": "updateGameMaster",
      "outputs": [],
      "stateMutability": "nonpayable",
      "type": "function"
    },
    {
      "inputs": [
        {
          "internalType": "uint256",
          "name": "_newFeeBps",
          "type": "uint256"
        }
      ],
      "name": "updatePlatformFee",
      "outputs": [],
      "stateMutability": "nonpayable",
      "type": "function"
    },
    {
      "inputs": [
        {
          "internalType": "contract IERC20",
          "name": "_token",
          "type": "address"
        },
        {
          "internalType": "address",
          "name": "_to",
          "type": "address"
        }
      ],
      "name": "withdrawERC20",
      "outputs": [],
      "stateMutability": "nonpayable",
      "type": "function"
    },
    {
      "inputs": [],
      "name": "withdrawRefund",
      "outputs": [],
      "stateMutability": "nonpayable",
      "type": "function"
    },
    {
      "stateMutability": "payable",
      "type": "receive"
    }
  ],
  "bytecode": "0x60806040523480156200001157600080fd5b50604051620055b1380380620055b18339818101604052810190620000379190620001bc565b60016000819055506200005f62000053620000ae60201b60201c565b620000b660201b60201c565b8060028190555033600360006101000a81548173ffffffffffffffffffffffffffffffffffffffff021916908373ffffffffffffffffffffffffffffffffffffffff16021790555050620001ee565b600033905090565b6000600160009054906101000a900473ffffffffffffffffffffffffffffffffffffffff16905081600160006101000a81548173ffffffffffffffffffffffffffffffffffffffff021916908373ffffffffffffffffffffffffffffffffffffffff1602179055508173ffffffffffffffffffffffffffffffffffffffff168173ffffffffffffffffffffffffffffffffffffffff167f8be0079c531659141344cd1fd0a4f28419497f9722a3daafe3b4186f6b6457e060405160405180910390a35050565b600080fd5b6000819050919050565b620001968162000181565b8114620001a257600080fd5b50565b600081519050620001b6816200018b565b92915050565b600060208284031215620001d557620001d46200017c565b5b6000620001e584828501620001a5565b91505092915050565b6153b380620001fe6000396000f3fe6080604052600436106101e65760003560e01c80638da5cb5b11610102578063c6c6707f11610095578063e9173b3a11610064578063e9173b3a146107c5578063ee84b2ba146107e1578063f0f5fd1214610820578063f2fde38b1461084957610226565b8063c6c6707f146106e4578063d85cdcb614610722578063ded89efa1461075f578063e8dc74b81461078857610226565b8063aa0b5988116100d1578063aa0b598814610628578063bdf84ae714610651578063c309b1e31461067c578063c617b26a146106a757610226565b80638da5cb5b1461056c5780639456fbcc14610597578063a16353bf146105c0578063a34b46fe146105eb57610226565b806338c588cc1161017a5780636e8fb4c6116101495780636e8fb4c614610493578063715018a6146104db578063729f767d146104f2578063869bb51b1461052f57610226565b806338c588cc146103b35780634ca18ae8146103f0578063559ab8cc1461042d5780635b7baf641461046a57610226565b806322dcd13e116101b657806322dcd13e146102e557806326b387bb146103105780632a14ebb41461034d57806332d8f3fd1461038a57610226565b8062200e271461022b578063110f88741461026857806311ca230b1461027f5780631e67939e146102a857610226565b36610226576040517f08c379a000000000000000000000000000000000000000000000000000000000815260040161021d9061355b565b60405180910390fd5b600080fd5b34801561023757600080fd5b50610252600480360381019061024d9190613623565b610872565b60405161025f9190613672565b60405180910390f35b34801561027457600080fd5b5061027d610897565b005b34801561028b57600080fd5b506102a660048036038101906102a19190613623565b610a5c565b005b3480156102b457600080fd5b506102cf60048036038101906102ca9190613623565b610ed1565b6040516102dc9190613708565b60405180910390f35b3480156102f157600080fd5b506102fa610ffd565b6040516103079190613672565b60405180910390f35b34801561031c57600080fd5b5061033760048036038101906103329190613723565b611003565b6040516103449190613672565b60405180910390f35b34801561035957600080fd5b50610374600480360381019061036f9190613896565b61101b565b6040516103819190613672565b60405180910390f35b34801561039657600080fd5b506103b160048036038101906103ac9190613723565b6112b3565b005b3480156103bf57600080fd5b506103da60048036038101906103d59190613935565b6113a6565b6040516103e79190613984565b60405180910390f35b3480156103fc57600080fd5b506104176004803603810190610412919061399f565b6113f4565b60405161042491906139db565b60405180910390f35b34801561043957600080fd5b50610454600480360381019061044f9190613623565b611464565b60405161046191906139db565b60405180910390f35b34801561047657600080fd5b50610491600480360381019061048c919061399f565b6115e3565b005b34801561049f57600080fd5b506104ba60048036038101906104b5919061399f565b611971565b6040516104d29c9b9a99989796959493929190613ae4565b60405180910390f35b3480156104e757600080fd5b506104f0611b3b565b005b3480156104fe57600080fd5b506105196004803603810190610514919061399f565b611b4f565b60405161052691906139db565b60405180910390f35b34801561053b57600080fd5b5061055660048036038101906105519190613935565b611b6f565b6040516105639190613984565b60405180910390f35b34801561057857600080fd5b50610581611bbd565b60405161058e9190613984565b60405180910390f35b3480156105a357600080fd5b506105be60048036038101906105b99190613bea565b611be7565b005b3480156105cc57600080fd5b506105d5611d34565b6040516105e29190613672565b60405180910390f35b3480156105f757600080fd5b50610612600480360381019061060d919061399f565b611d3a565b60405161061f9190613cd9565b60405180910390f35b34801561063457600080fd5b5061064f600480360381019061064a919061399f565b611e21565b005b34801561065d57600080fd5b50610666611eaf565b6040516106739190613984565b60405180910390f35b34801561068857600080fd5b50610691611ed5565b60405161069e9190613672565b60405180910390f35b3480156106b357600080fd5b506106ce60048036038101906106c99190613623565b611edb565b6040516106db9190613672565b60405180910390f35b3480156106f057600080fd5b5061070b6004803603810190610706919061399f565b611f7c565b604051610719929190613daa565b60405180910390f35b34801561072e57600080fd5b506107496004803603810190610744919061399f565b6121ea565b6040516107569190613cd9565b60405180910390f35b34801561076b57600080fd5b5061078660048036038101906107819190613ea9565b6122d4565b005b34801561079457600080fd5b506107af60048036038101906107aa919061399f565b6125d7565b6040516107bc9190613cd9565b60405180910390f35b6107df60048036038101906107da919061399f565b612901565b005b3480156107ed57600080fd5b5061080860048036038101906108039190613623565b612d6b565b60405161081793929190613f05565b60405180910390f35b34801561082c57600080fd5b5061084760048036038101906108429190613fff565b612dcf565b005b34801561085557600080fd5b50610870600480360381019061086b9190613723565b61316e565b005b6006602052816000526040600020602052806000526040600020600091509150505481565b61089f6131f2565b6000600560003373ffffffffffffffffffffffffffffffffffffffff1673ffffffffffffffffffffffffffffffffffffffff16815260200190815260200160002054905060008111610926576040517f08c379a000000000000000000000000000000000000000000000000000000000815260040161091d906140d6565b60405180910390fd5b6000600560003373ffffffffffffffffffffffffffffffffffffffff1673ffffffffffffffffffffffffffffffffffffffff1681526020019081526020016000208190555060003373ffffffffffffffffffffffffffffffffffffffff168260405161099190614127565b60006040518083038185875af1925050503d80600081146109ce576040519150601f19603f3d011682016040523d82523d6000602084013e6109d3565b606091505b5050905080610a17576040517f08c379a0000000000000000000000000000000000000000000000000000000008152600401610a0e90614188565b60405180910390fd5b7f358fe4192934d3bf28ae181feda1f4bd08ca67f5e2fad55582cce5eb67304ae93383604051610a489291906141a8565b60405180910390a15050610a5a613242565b565b610a646131f2565b600360009054906101000a900473ffffffffffffffffffffffffffffffffffffffff1673ffffffffffffffffffffffffffffffffffffffff163373ffffffffffffffffffffffffffffffffffffffff1614610af4576040517f08c379a0000000000000000000000000000000000000000000000000000000008152600401610aeb9061421d565b60405180910390fd5b81600b548110610b39576040517f08c379a0000000000000000000000000000000000000000000000000000000008152600401610b3090614289565b60405180910390fd5b600060046000858152602001908152602001600020905060016004811115610b6457610b63613a6d565b5b8160080160009054906101000a900460ff166004811115610b8857610b87613a6d565b5b14610bc8576040517f08c379a0000000000000000000000000000000000000000000000000000000008152600401610bbf906142f5565b60405180910390fd5b610bd28484611464565b610c11576040517f08c379a0000000000000000000000000000000000000000000000000000000008152600401610c0890614387565b60405180910390fd5b80600a0160149054906101000a900460ff1615610c63576040517f08c379a0000000000000000000000000000000000000000000000000000000008152600401610c5a906143f3565b60405180910390fd5b60038160080160006101000a81548160ff02191690836004811115610c8b57610c8a613a6d565b5b02179055508281600a0160006101000a81548173ffffffffffffffffffffffffffffffffffffffff021916908373ffffffffffffffffffffffffffffffffffffffff160217905550600181600a0160146101000a81548160ff02191690831515021790555060006127106002548360060154610d079190614442565b610d1191906144cb565b90506000818360060154610d2591906144fc565b905060008573ffffffffffffffffffffffffffffffffffffffff1682604051610d4d90614127565b60006040518083038185875af1925050503d8060008114610d8a576040519150601f19603f3d011682016040523d82523d6000602084013e610d8f565b606091505b5050905080610dd3576040517f08c379a0000000000000000000000000000000000000000000000000000000008152600401610dca9061457c565b60405180910390fd5b610ddb611bbd565b73ffffffffffffffffffffffffffffffffffffffff1683604051610dfe90614127565b60006040518083038185875af1925050503d8060008114610e3b576040519150601f19603f3d011682016040523d82523d6000602084013e610e40565b606091505b50508091505080610e86576040517f08c379a0000000000000000000000000000000000000000000000000000000008152600401610e7d906145e8565b60405180910390fd5b867f5d36374a8d1a6cae8e46381aea50cae98b85e5ede9e10916d26179527900e5208784604051610eb89291906141a8565b60405180910390a25050505050610ecd613242565b5050565b610ed9613398565b82600b548110610f1e576040517f08c379a0000000000000000000000000000000000000000000000000000000008152600401610f1590614289565b60405180910390fd5b6009600085815260200190815260200160002060008473ffffffffffffffffffffffffffffffffffffffff1673ffffffffffffffffffffffffffffffffffffffff1681526020019081526020016000206040518060600160405290816000820160009054906101000a900473ffffffffffffffffffffffffffffffffffffffff1673ffffffffffffffffffffffffffffffffffffffff1673ffffffffffffffffffffffffffffffffffffffff1681526020016000820160149054906101000a900460ff1615151515815260200160018201548152505091505092915050565b60025481565b60056020528060005260406000206000915090505481565b600080855111611060576040517f08c379a000000000000000000000000000000000000000000000000000000000815260040161105790614654565b60405180910390fd5b60008451116110a4576040517f08c379a000000000000000000000000000000000000000000000000000000000815260040161109b906146c0565b60405180910390fd5b600083116110e7576040517f08c379a00000000000000000000000000000000000000000000000000000000081526004016110de9061472c565b60405180910390fd5b6001821161112a576040517f08c379a000000000000000000000000000000000000000000000000000000000815260040161112190614798565b60405180910390fd5b600a82111561116e576040517f08c379a000000000000000000000000000000000000000000000000000000000815260040161116590614804565b60405180910390fd5b6000600b600081548092919061118390614824565b9190505590506000600460008381526020019081526020016000209050818160000181905550868160010190805190602001906111c19291906133d1565b50858160020190805190602001906111da9291906133d1565b5084816003018190555083816005018190555042816007018190555060008160080160006101000a81548160ff0219169083600481111561121e5761121d613a6d565b5b02179055503381600b0160006101000a81548173ffffffffffffffffffffffffffffffffffffffff021916908373ffffffffffffffffffffffffffffffffffffffff160217905550817f0e2b64f820c6349ce53d20faa9c7eba7858ae3c3ea29cc7fbf30c50fffcf3170888888883360405161129e95949392919061486d565b60405180910390a28192505050949350505050565b6112bb61324c565b600073ffffffffffffffffffffffffffffffffffffffff168173ffffffffffffffffffffffffffffffffffffffff16141561132b576040517f08c379a00000000000000000000000000000000000000000000000000000000081526004016113229061491a565b60405180910390fd5b80600360006101000a81548173ffffffffffffffffffffffffffffffffffffffff021916908373ffffffffffffffffffffffffffffffffffffffff1602179055507f4d58a68626659612199a8c82ba65a98101440af3ee23fc6179ecb588450125638160405161139b9190613984565b60405180910390a150565b600a60205281600052604060002081815481106113c257600080fd5b906000526020600020016000915091509054906101000a900473ffffffffffffffffffffffffffffffffffffffff1681565b600081600b54811061143b576040517f08c379a000000000000000000000000000000000000000000000000000000000815260040161143290614289565b60405180910390fd5b6008600084815260200190815260200160002060009054906101000a900460ff16915050919050565b600082600b5481106114ab576040517f08c379a00000000000000000000000000000000000000000000000000000000081526004016114a290614289565b60405180910390fd5b6009600085815260200190815260200160002060008473ffffffffffffffffffffffffffffffffffffffff1673ffffffffffffffffffffffffffffffffffffffff16815260200190815260200160002060000160149054906101000a900460ff161561151a57600191506115dc565b600060046000868152602001908152602001600020905060005b81600901805490508110156115d5578473ffffffffffffffffffffffffffffffffffffffff168260090182815481106115705761156f61493a565b5b9060005260206000200160009054906101000a900473ffffffffffffffffffffffffffffffffffffffff1673ffffffffffffffffffffffffffffffffffffffff1614156115c2576001935050506115dc565b80806115cd90614824565b915050611534565b5060009250505b5092915050565b80600b548110611628576040517f08c379a000000000000000000000000000000000000000000000000000000000815260040161161f90614289565b60405180910390fd5b60006004600084815260200190815260200160002090506000600481111561165357611652613a6d565b5b8160080160009054906101000a900460ff16600481111561167757611676613a6d565b5b14806116b857506001600481111561169257611691613a6d565b5b8160080160009054906101000a900460ff1660048111156116b6576116b5613a6d565b5b145b6116f7576040517f08c379a00000000000000000000000000000000000000000000000000000000081526004016116ee906149b5565b60405180910390fd5b61012c816007015461170991906149d5565b421161174a576040517f08c379a000000000000000000000000000000000000000000000000000000000815260040161174190614a77565b60405180910390fd5b6117548333611464565b611793576040517f08c379a000000000000000000000000000000000000000000000000000000000815260040161178a90614ae3565b60405180910390fd5b80600a0160149054906101000a900460ff16156117e5576040517f08c379a00000000000000000000000000000000000000000000000000000000081526004016117dc90614b4f565b60405180910390fd5b60048160080160006101000a81548160ff0219169083600481111561180d5761180c613a6d565b5b02179055508060030154600560003373ffffffffffffffffffffffffffffffffffffffff1673ffffffffffffffffffffffffffffffffffffffff168152602001908152602001600020600082825461186591906149d5565b925050819055506009600084815260200190815260200160002060003373ffffffffffffffffffffffffffffffffffffffff1673ffffffffffffffffffffffffffffffffffffffff16815260200190815260200160002060000160149054906101000a900460ff161561193f5760006009600085815260200190815260200160002060003373ffffffffffffffffffffffffffffffffffffffff1673ffffffffffffffffffffffffffffffffffffffff16815260200190815260200160002060000160146101000a81548160ff0219169083151502179055505b827f77c76c657e315ec4202d02d6b866770c4edbabe032e6c201ca6d18859c470a3760405160405180910390a2505050565b600460205280600052604060002060009150905080600001549080600101805461199a90614b9e565b80601f01602080910402602001604051908101604052809291908181526020018280546119c690614b9e565b8015611a135780601f106119e857610100808354040283529160200191611a13565b820191906000526020600020905b8154815290600101906020018083116119f657829003601f168201915b505050505090806002018054611a2890614b9e565b80601f0160208091040260200160405190810160405280929190818152602001828054611a5490614b9e565b8015611aa15780601f10611a7657610100808354040283529160200191611aa1565b820191906000526020600020905b815481529060010190602001808311611a8457829003601f168201915b5050505050908060030154908060040154908060050154908060060154908060070154908060080160009054906101000a900460ff169080600a0160009054906101000a900473ffffffffffffffffffffffffffffffffffffffff169080600a0160149054906101000a900460ff169080600b0160009054906101000a900473ffffffffffffffffffffffffffffffffffffffff1690508c565b611b4361324c565b611b4d60006132ca565b565b60086020528060005260406000206000915054906101000a900460ff1681565b60076020528160005260406000208181548110611b8b57600080fd5b906000526020600020016000915091509054906101000a900473ffffffffffffffffffffffffffffffffffffffff1681565b6000600160009054906101000a900473ffffffffffffffffffffffffffffffffffffffff16905090565b611bef61324c565b60008273ffffffffffffffffffffffffffffffffffffffff166370a08231306040518263ffffffff1660e01b8152600401611c2a9190613984565b602060405180830381865afa158015611c47573d6000803e3d6000fd5b505050506040513d601f19601f82011682018060405250810190611c6b9190614be5565b905060008111611cb0576040517f08c379a0000000000000000000000000000000000000000000000000000000008152600401611ca790614c5e565b60405180910390fd5b8273ffffffffffffffffffffffffffffffffffffffff1663a9059cbb83836040518363ffffffff1660e01b8152600401611ceb9291906141a8565b6020604051808303816000875af1158015611d0a573d6000803e3d6000fd5b505050506040513d601f19601f82011682018060405250810190611d2e9190614caa565b50505050565b61012c81565b606081600b548110611d81576040517f08c379a0000000000000000000000000000000000000000000000000000000008152600401611d7890614289565b60405180910390fd5b60076000848152602001908152602001600020805480602002602001604051908101604052809291908181526020018280548015611e1457602002820191906000526020600020905b8160009054906101000a900473ffffffffffffffffffffffffffffffffffffffff1673ffffffffffffffffffffffffffffffffffffffff1681526020019060010190808311611dca575b5050505050915050919050565b611e2961324c565b6103e8811115611e6e576040517f08c379a0000000000000000000000000000000000000000000000000000000008152600401611e6590614d23565b60405180910390fd5b806002819055507f8c4d35e54a3f2ef1134138fd8ea3daee6a3c89e10d2665996babdf70261e2c7681604051611ea49190613672565b60405180910390a150565b600360009054906101000a900473ffffffffffffffffffffffffffffffffffffffff1681565b600b5481565b600082600b548110611f22576040517f08c379a0000000000000000000000000000000000000000000000000000000008152600401611f1990614289565b60405180910390fd5b6006600085815260200190815260200160002060008473ffffffffffffffffffffffffffffffffffffffff1673ffffffffffffffffffffffffffffffffffffffff1681526020019081526020016000205491505092915050565b60608082600b548110611fc4576040517f08c379a0000000000000000000000000000000000000000000000000000000008152600401611fbb90614289565b60405180910390fd5b6000600460008681526020019081526020016000209050806009018054905067ffffffffffffffff811115611ffc57611ffb61376b565b5b60405190808252806020026020018201604052801561202a5781602001602082028036833780820191505090505b509350806009018054905067ffffffffffffffff81111561204e5761204d61376b565b5b60405190808252806020026020018201604052801561207c5781602001602082028036833780820191505090505b50925060005b81600901805490508110156121e2578160090181815481106120a7576120a661493a565b5b9060005260206000200160009054906101000a900473ffffffffffffffffffffffffffffffffffffffff168582815181106120e5576120e461493a565b5b602002602001019073ffffffffffffffffffffffffffffffffffffffff16908173ffffffffffffffffffffffffffffffffffffffff168152505060066000878152602001908152602001600020600083600901838154811061214a5761214961493a565b5b9060005260206000200160009054906101000a900473ffffffffffffffffffffffffffffffffffffffff1673ffffffffffffffffffffffffffffffffffffffff1673ffffffffffffffffffffffffffffffffffffffff168152602001908152602001600020548482815181106121c3576121c261493a565b5b60200260200101818152505080806121da90614824565b915050612082565b505050915091565b606081600b548110612231576040517f08c379a000000000000000000000000000000000000000000000000000000000815260040161222890614289565b60405180910390fd5b600460008481526020019081526020016000206009018054806020026020016040519081016040528092919081815260200182805480156122c757602002820191906000526020600020905b8160009054906101000a900473ffffffffffffffffffffffffffffffffffffffff1673ffffffffffffffffffffffffffffffffffffffff168152602001906001019080831161227d575b5050505050915050919050565b600360009054906101000a900473ffffffffffffffffffffffffffffffffffffffff1673ffffffffffffffffffffffffffffffffffffffff163373ffffffffffffffffffffffffffffffffffffffff1614612364576040517f08c379a000000000000000000000000000000000000000000000000000000000815260040161235b9061421d565b60405180910390fd5b81600b5481106123a9576040517f08c379a00000000000000000000000000000000000000000000000000000000081526004016123a090614289565b60405180910390fd5b6000600460008581526020019081526020016000209050600160048111156123d4576123d3613a6d565b5b8160080160009054906101000a900460ff1660048111156123f8576123f7613a6d565b5b148061243957506002600481111561241357612412613a6d565b5b8160080160009054906101000a900460ff16600481111561243757612436613a6d565b5b145b612478576040517f08c379a000000000000000000000000000000000000000000000000000000000815260040161246f90614d8f565b60405180910390fd5b80600901805490508351146124c2576040517f08c379a00000000000000000000000000000000000000000000000000000000081526004016124b990614e21565b60405180910390fd5b60005b8351811015612544576124f2858583815181106124e5576124e461493a565b5b6020026020010151611464565b612531576040517f08c379a000000000000000000000000000000000000000000000000000000000815260040161252890614e8d565b60405180910390fd5b808061253c90614824565b9150506124c5565b508260076000868152602001908152602001600020908051906020019061256c929190613457565b5060016008600086815260200190815260200160002060006101000a81548160ff021916908315150217905550837f97b414e0af93eb7f7c9e725871861fbad880d37b00aaec8edd8335c56604a130846040516125c99190613cd9565b60405180910390a250505050565b606081600b54811061261e576040517f08c379a000000000000000000000000000000000000000000000000000000000815260040161261590614289565b60405180910390fd5b6000600a60008581526020019081526020016000208054806020026020016040519081016040528092919081815260200182805480156126b357602002820191906000526020600020905b8160009054906101000a900473ffffffffffffffffffffffffffffffffffffffff1673ffffffffffffffffffffffffffffffffffffffff1681526020019060010190808311612669575b505050505090506000815167ffffffffffffffff8111156126d7576126d661376b565b5b6040519080825280602002602001820160405280156127055781602001602082028036833780820191505090505b5090506000805b835181101561281f5760096000888152602001908152602001600020600085838151811061273d5761273c61493a565b5b602002602001015173ffffffffffffffffffffffffffffffffffffffff1673ffffffffffffffffffffffffffffffffffffffff16815260200190815260200160002060000160149054906101000a900460ff161561280c578381815181106127a8576127a761493a565b5b60200260200101518383815181106127c3576127c261493a565b5b602002602001019073ffffffffffffffffffffffffffffffffffffffff16908173ffffffffffffffffffffffffffffffffffffffff1681525050818061280890614824565b9250505b808061281790614824565b91505061270c565b5060008167ffffffffffffffff81111561283c5761283b61376b565b5b60405190808252806020026020018201604052801561286a5781602001602082028036833780820191505090505b50905060005b828110156128f35783818151811061288b5761288a61493a565b5b60200260200101518282815181106128a6576128a561493a565b5b602002602001019073ffffffffffffffffffffffffffffffffffffffff16908173ffffffffffffffffffffffffffffffffffffffff168152505080806128eb90614824565b915050612870565b508095505050505050919050565b6129096131f2565b80600b54811061294e576040517f08c379a000000000000000000000000000000000000000000000000000000000815260040161294590614289565b60405180910390fd5b81600080600481111561296457612963613a6d565b5b6004600084815260200190815260200160002060080160009054906101000a900460ff16600481111561299a57612999613a6d565b5b146129da576040517f08c379a00000000000000000000000000000000000000000000000000000000081526004016129d190614f1f565b60405180910390fd5b600060046000868152602001908152602001600020905080600301543414612a37576040517f08c379a0000000000000000000000000000000000000000000000000000000008152600401612a2e90614f8b565b60405180910390fd5b8060050154816009018054905010612a84576040517f08c379a0000000000000000000000000000000000000000000000000000000008152600401612a7b90614ff7565b60405180910390fd5b612a8e8533611464565b15612ace576040517f08c379a0000000000000000000000000000000000000000000000000000000008152600401612ac590615063565b60405180910390fd5b80600901339080600181540180825580915050600190039060005260206000200160009091909190916101000a81548173ffffffffffffffffffffffffffffffffffffffff021916908373ffffffffffffffffffffffffffffffffffffffff160217905550806004016000815480929190612b4890614824565b919050555034816006016000828254612b6191906149d5565b92505081905550600060405180606001604052803373ffffffffffffffffffffffffffffffffffffffff168152602001600115158152602001428152509050806009600088815260200190815260200160002060003373ffffffffffffffffffffffffffffffffffffffff1673ffffffffffffffffffffffffffffffffffffffff16815260200190815260200160002060008201518160000160006101000a81548173ffffffffffffffffffffffffffffffffffffffff021916908373ffffffffffffffffffffffffffffffffffffffff16021790555060208201518160000160146101000a81548160ff02191690831515021790555060408201518160010155905050600a6000878152602001908152602001600020339080600181540180825580915050600190039060005260206000200160009091909190916101000a81548173ffffffffffffffffffffffffffffffffffffffff021916908373ffffffffffffffffffffffffffffffffffffffff160217905550857f87969bc7faf902221a147b95ceba76e011c5efb0339a0a8ee7a2bb82d9cfbbd633604051612d099190613984565b60405180910390a2816005015482600901805490501415612d5b5760018260080160006101000a81548160ff02191690836004811115612d4c57612d4b613a6d565b5b02179055504282600701819055505b5050505050612d68613242565b50565b6009602052816000526040600020602052806000526040600020600091509150508060000160009054906101000a900473ffffffffffffffffffffffffffffffffffffffff16908060000160149054906101000a900460ff16908060010154905083565b600360009054906101000a900473ffffffffffffffffffffffffffffffffffffffff1673ffffffffffffffffffffffffffffffffffffffff163373ffffffffffffffffffffffffffffffffffffffff1614612e5f576040517f08c379a0000000000000000000000000000000000000000000000000000000008152600401612e569061421d565b60405180910390fd5b82600b548110612ea4576040517f08c379a0000000000000000000000000000000000000000000000000000000008152600401612e9b90614289565b60405180910390fd5b600060046000868152602001908152602001600020905060016004811115612ecf57612ece613a6d565b5b8160080160009054906101000a900460ff166004811115612ef357612ef2613a6d565b5b1480612f34575060026004811115612f0e57612f0d613a6d565b5b8160080160009054906101000a900460ff166004811115612f3257612f31613a6d565b5b145b612f73576040517f08c379a0000000000000000000000000000000000000000000000000000000008152600401612f6a906150cf565b60405180910390fd5b8251845114612fb7576040517f08c379a0000000000000000000000000000000000000000000000000000000008152600401612fae90615161565b60405180910390fd5b8060090180549050845114613001576040517f08c379a0000000000000000000000000000000000000000000000000000000008152600401612ff8906151f3565b60405180910390fd5b60005b845181101561308357613031868683815181106130245761302361493a565b5b6020026020010151611464565b613070576040517f08c379a000000000000000000000000000000000000000000000000000000000815260040161306790614e8d565b60405180910390fd5b808061307b90614824565b915050613004565b5060005b845181101561312c578381815181106130a3576130a261493a565b5b60200260200101516006600088815260200190815260200160002060008784815181106130d3576130d261493a565b5b602002602001015173ffffffffffffffffffffffffffffffffffffffff1673ffffffffffffffffffffffffffffffffffffffff16815260200190815260200160002081905550808061312490614824565b915050613087565b50847f1ef51da2c007f6bfcf64d8fcc9f4c25277f681fda0c3838e9fb910794bc39fb2858560405161315f929190613daa565b60405180910390a25050505050565b61317661324c565b600073ffffffffffffffffffffffffffffffffffffffff168173ffffffffffffffffffffffffffffffffffffffff1614156131e6576040517f08c379a00000000000000000000000000000000000000000000000000000000081526004016131dd90615285565b60405180910390fd5b6131ef816132ca565b50565b60026000541415613238576040517f08c379a000000000000000000000000000000000000000000000000000000000815260040161322f906152f1565b60405180910390fd5b6002600081905550565b6001600081905550565b613254613390565b73ffffffffffffffffffffffffffffffffffffffff16613272611bbd565b73ffffffffffffffffffffffffffffffffffffffff16146132c8576040517f08c379a00000000000000000000000000000000000000000000000000000000081526004016132bf9061535d565b60405180910390fd5b565b6000600160009054906101000a900473ffffffffffffffffffffffffffffffffffffffff16905081600160006101000a81548173ffffffffffffffffffffffffffffffffffffffff021916908373ffffffffffffffffffffffffffffffffffffffff1602179055508173ffffffffffffffffffffffffffffffffffffffff168173ffffffffffffffffffffffffffffffffffffffff167f8be0079c531659141344cd1fd0a4f28419497f9722a3daafe3b4186f6b6457e060405160405180910390a35050565b600033905090565b6040518060600160405280600073ffffffffffffffffffffffffffffffffffffffff168152602001600015158152602001600081525090565b8280546133dd90614b9e565b90600052602060002090601f0160209004810192826133ff5760008555613446565b82601f1061341857805160ff1916838001178555613446565b82800160010185558215613446579182015b8281111561344557825182559160200191906001019061342a565b5b50905061345391906134e1565b5090565b8280548282559060005260206000209081019282156134d0579160200282015b828111156134cf5782518260006101000a81548173ffffffffffffffffffffffffffffffffffffffff021916908373ffffffffffffffffffffffffffffffffffffffff16021790555091602001919060010190613477565b5b5090506134dd91906134e1565b5090565b5b808211156134fa5760008160009055506001016134e2565b5090565b600082825260208201905092915050565b7f446f206e6f742073656e6420455448206469726563746c790000000000000000600082015250565b60006135456018836134fe565b91506135508261350f565b602082019050919050565b6000602082019050818103600083015261357481613538565b9050919050565b6000604051905090565b600080fd5b600080fd5b6000819050919050565b6135a28161358f565b81146135ad57600080fd5b50565b6000813590506135bf81613599565b92915050565b600073ffffffffffffffffffffffffffffffffffffffff82169050919050565b60006135f0826135c5565b9050919050565b613600816135e5565b811461360b57600080fd5b50565b60008135905061361d816135f7565b92915050565b6000806040838503121561363a57613639613585565b5b6000613648858286016135b0565b92505060206136598582860161360e565b9150509250929050565b61366c8161358f565b82525050565b60006020820190506136876000830184613663565b92915050565b613696816135e5565b82525050565b60008115159050919050565b6136b18161369c565b82525050565b6136c08161358f565b82525050565b6060820160008201516136dc600085018261368d565b5060208201516136ef60208501826136a8565b50604082015161370260408501826136b7565b50505050565b600060608201905061371d60008301846136c6565b92915050565b60006020828403121561373957613738613585565b5b60006137478482850161360e565b91505092915050565b600080fd5b600080fd5b6000601f19601f8301169050919050565b7f4e487b7100000000000000000000000000000000000000000000000000000000600052604160045260246000fd5b6137a38261375a565b810181811067ffffffffffffffff821117156137c2576137c161376b565b5b80604052505050565b60006137d561357b565b90506137e1828261379a565b919050565b600067ffffffffffffffff8211156138015761380061376b565b5b61380a8261375a565b9050602081019050919050565b82818337600083830152505050565b6000613839613834846137e6565b6137cb565b90508281526020810184848401111561385557613854613755565b5b613860848285613817565b509392505050565b600082601f83011261387d5761387c613750565b5b813561388d848260208601613826565b91505092915050565b600080600080608085870312156138b0576138af613585565b5b600085013567ffffffffffffffff8111156138ce576138cd61358a565b5b6138da87828801613868565b945050602085013567ffffffffffffffff8111156138fb576138fa61358a565b5b61390787828801613868565b9350506040613918878288016135b0565b9250506060613929878288016135b0565b91505092959194509250565b6000806040838503121561394c5761394b613585565b5b600061395a858286016135b0565b925050602061396b858286016135b0565b9150509250929050565b61397e816135e5565b82525050565b60006020820190506139996000830184613975565b92915050565b6000602082840312156139b5576139b4613585565b5b60006139c3848285016135b0565b91505092915050565b6139d58161369c565b82525050565b60006020820190506139f060008301846139cc565b92915050565b600081519050919050565b60005b83811015613a1f578082015181840152602081019050613a04565b83811115613a2e576000848401525b50505050565b6000613a3f826139f6565b613a4981856134fe565b9350613a59818560208601613a01565b613a628161375a565b840191505092915050565b7f4e487b7100000000000000000000000000000000000000000000000000000000600052602160045260246000fd5b60058110613aad57613aac613a6d565b5b50565b6000819050613abe82613a9c565b919050565b6000613ace82613ab0565b9050919050565b613ade81613ac3565b82525050565b600061018082019050613afa600083018f613663565b8181036020830152613b0c818e613a34565b90508181036040830152613b20818d613a34565b9050613b2f606083018c613663565b613b3c608083018b613663565b613b4960a083018a613663565b613b5660c0830189613663565b613b6360e0830188613663565b613b71610100830187613ad5565b613b7f610120830186613975565b613b8d6101408301856139cc565b613b9b610160830184613975565b9d9c50505050505050505050505050565b6000613bb7826135e5565b9050919050565b613bc781613bac565b8114613bd257600080fd5b50565b600081359050613be481613bbe565b92915050565b60008060408385031215613c0157613c00613585565b5b6000613c0f85828601613bd5565b9250506020613c208582860161360e565b9150509250929050565b600081519050919050565b600082825260208201905092915050565b6000819050602082019050919050565b6000613c62838361368d565b60208301905092915050565b6000602082019050919050565b6000613c8682613c2a565b613c908185613c35565b9350613c9b83613c46565b8060005b83811015613ccc578151613cb38882613c56565b9750613cbe83613c6e565b925050600181019050613c9f565b5085935050505092915050565b60006020820190508181036000830152613cf38184613c7b565b905092915050565b600081519050919050565b600082825260208201905092915050565b6000819050602082019050919050565b6000613d3383836136b7565b60208301905092915050565b6000602082019050919050565b6000613d5782613cfb565b613d618185613d06565b9350613d6c83613d17565b8060005b83811015613d9d578151613d848882613d27565b9750613d8f83613d3f565b925050600181019050613d70565b5085935050505092915050565b60006040820190508181036000830152613dc48185613c7b565b90508181036020830152613dd88184613d4c565b90509392505050565b600067ffffffffffffffff821115613dfc57613dfb61376b565b5b602082029050602081019050919050565b600080fd5b6000613e25613e2084613de1565b6137cb565b90508083825260208201905060208402830185811115613e4857613e47613e0d565b5b835b81811015613e715780613e5d888261360e565b845260208401935050602081019050613e4a565b5050509392505050565b600082601f830112613e9057613e8f613750565b5b8135613ea0848260208601613e12565b91505092915050565b60008060408385031215613ec057613ebf613585565b5b6000613ece858286016135b0565b925050602083013567ffffffffffffffff811115613eef57613eee61358a565b5b613efb85828601613e7b565b9150509250929050565b6000606082019050613f1a6000830186613975565b613f2760208301856139cc565b613f346040830184613663565b949350505050565b600067ffffffffffffffff821115613f5757613f5661376b565b5b602082029050602081019050919050565b6000613f7b613f7684613f3c565b6137cb565b90508083825260208201905060208402830185811115613f9e57613f9d613e0d565b5b835b81811015613fc75780613fb388826135b0565b845260208401935050602081019050613fa0565b5050509392505050565b600082601f830112613fe657613fe5613750565b5b8135613ff6848260208601613f68565b91505092915050565b60008060006060848603121561401857614017613585565b5b6000614026868287016135b0565b935050602084013567ffffffffffffffff8111156140475761404661358a565b5b61405386828701613e7b565b925050604084013567ffffffffffffffff8111156140745761407361358a565b5b61408086828701613fd1565b9150509250925092565b7f4e6f2066756e647320746f207769746864726177000000000000000000000000600082015250565b60006140c06014836134fe565b91506140cb8261408a565b602082019050919050565b600060208201905081810360008301526140ef816140b3565b9050919050565b600081905092915050565b50565b60006141116000836140f6565b915061411c82614101565b600082019050919050565b600061413282614104565b9150819050919050565b7f526566756e64207472616e73666572206661696c656400000000000000000000600082015250565b60006141726016836134fe565b915061417d8261413c565b602082019050919050565b600060208201905081810360008301526141a181614165565b9050919050565b60006040820190506141bd6000830185613975565b6141ca6020830184613663565b9392505050565b7f43616c6c6572206973206e6f74207468652047616d654d617374657200000000600082015250565b6000614207601c836134fe565b9150614212826141d1565b602082019050919050565b60006020820190508181036000830152614236816141fa565b9050919050565b7f4c6f62627920646f6573206e6f74206578697374000000000000000000000000600082015250565b60006142736014836134fe565b915061427e8261423d565b602082019050919050565b600060208201905081810360008301526142a281614266565b9050919050565b7f4c6f626279206e6f7420726561647920746f207265736f6c7665000000000000600082015250565b60006142df601a836134fe565b91506142ea826142a9565b602082019050919050565b6000602082019050818103600083015261430e816142d2565b9050919050565b7f57696e6e6572206973206e6f74206120706c6179657220696e2074686973206c60008201527f6f62627900000000000000000000000000000000000000000000000000000000602082015250565b60006143716024836134fe565b915061437c82614315565b604082019050919050565b600060208201905081810360008301526143a081614364565b9050919050565b7f5072697a6520616c726561647920646973747269627574656400000000000000600082015250565b60006143dd6019836134fe565b91506143e8826143a7565b602082019050919050565b6000602082019050818103600083015261440c816143d0565b9050919050565b7f4e487b7100000000000000000000000000000000000000000000000000000000600052601160045260246000fd5b600061444d8261358f565b91506144588361358f565b9250817fffffffffffffffffffffffffffffffffffffffffffffffffffffffffffffffff048311821515161561449157614490614413565b5b828202905092915050565b7f4e487b7100000000000000000000000000000000000000000000000000000000600052601260045260246000fd5b60006144d68261358f565b91506144e18361358f565b9250826144f1576144f061449c565b5b828204905092915050565b60006145078261358f565b91506145128361358f565b92508282101561452557614524614413565b5b828203905092915050565b7f5472616e7366657220746f2077696e6e6572206661696c656400000000000000600082015250565b60006145666019836134fe565b915061457182614530565b602082019050919050565b6000602082019050818103600083015261459581614559565b9050919050565b7f5472616e73666572206f6620666565206661696c656400000000000000000000600082015250565b60006145d26016836134fe565b91506145dd8261459c565b602082019050919050565b60006020820190508181036000830152614601816145c5565b9050919050565b7f4c6f626279206e616d652063616e6e6f7420626520656d707479000000000000600082015250565b600061463e601a836134fe565b915061464982614608565b602082019050919050565b6000602082019050818103600083015261466d81614631565b9050919050565b7f43617465676f72792063616e6e6f7420626520656d7074790000000000000000600082015250565b60006146aa6018836134fe565b91506146b582614674565b602082019050919050565b600060208201905081810360008301526146d98161469d565b9050919050565b7f456e74727920666565206d7573742062652067726561746572207468616e2030600082015250565b60006147166020836134fe565b9150614721826146e0565b602082019050919050565b6000602082019050818103600083015261474581614709565b9050919050565b7f4d617820706c6179657273206d757374206265206174206c6561737420320000600082015250565b6000614782601e836134fe565b915061478d8261474c565b602082019050919050565b600060208201905081810360008301526147b181614775565b9050919050565b7f4d617820706c61796572732063616e6e6f742065786365656420313000000000600082015250565b60006147ee601c836134fe565b91506147f9826147b8565b602082019050919050565b6000602082019050818103600083015261481d816147e1565b9050919050565b600061482f8261358f565b91507fffffffffffffffffffffffffffffffffffffffffffffffffffffffffffffffff82141561486257614861614413565b5b600182019050919050565b600060a08201905081810360008301526148878188613a34565b9050818103602083015261489b8187613a34565b90506148aa6040830186613663565b6148b76060830185613663565b6148c46080830184613975565b9695505050505050565b7f496e76616c69642047616d654d61737465722061646472657373000000000000600082015250565b6000614904601a836134fe565b915061490f826148ce565b602082019050919050565b60006020820190508181036000830152614933816148f7565b9050919050565b7f4e487b7100000000000000000000000000000000000000000000000000000000600052603260045260246000fd5b7f4e6f7420726566756e6461626c65000000000000000000000000000000000000600082015250565b600061499f600e836134fe565b91506149aa82614969565b602082019050919050565b600060208201905081810360008301526149ce81614992565b9050919050565b60006149e08261358f565b91506149eb8361358f565b9250827fffffffffffffffffffffffffffffffffffffffffffffffffffffffffffffffff03821115614a2057614a1f614413565b5b828201905092915050565b7f4c6f626279206e6f742079657420657870697265640000000000000000000000600082015250565b6000614a616015836134fe565b9150614a6c82614a2b565b602082019050919050565b60006020820190508181036000830152614a9081614a54565b9050919050565b7f4e6f74206120706c6179657220696e2074686973206c6f626279000000000000600082015250565b6000614acd601a836134fe565b9150614ad882614a97565b602082019050919050565b60006020820190508181036000830152614afc81614ac0565b9050919050565b7f5072697a6520616c72656164792068616e646c65640000000000000000000000600082015250565b6000614b396015836134fe565b9150614b4482614b03565b602082019050919050565b60006020820190508181036000830152614b6881614b2c565b9050919050565b7f4e487b7100000000000000000000000000000000000000000000000000000000600052602260045260246000fd5b60006002820490506001821680614bb657607f821691505b60208210811415614bca57614bc9614b6f565b5b50919050565b600081519050614bdf81613599565b92915050565b600060208284031215614bfb57614bfa613585565b5b6000614c0984828501614bd0565b91505092915050565b7f4e6f20746f6b656e7320746f2077697468647261770000000000000000000000600082015250565b6000614c486015836134fe565b9150614c5382614c12565b602082019050919050565b60006020820190508181036000830152614c7781614c3b565b9050919050565b614c878161369c565b8114614c9257600080fd5b50565b600081519050614ca481614c7e565b92915050565b600060208284031215614cc057614cbf613585565b5b6000614cce84828501614c95565b91505092915050565b7f4665652063616e6e6f7420657863656564203130250000000000000000000000600082015250565b6000614d0d6015836134fe565b9150614d1882614cd7565b602082019050919050565b60006020820190508181036000830152614d3c81614d00565b9050919050565b7f4c6f626279206e6f7420726561647920666f72206c6561646572626f61726400600082015250565b6000614d79601f836134fe565b9150614d8482614d43565b602082019050919050565b60006020820190508181036000830152614da881614d6c565b9050919050565b7f4c6561646572626f617264206d75737420696e636c75646520616c6c20706c6160008201527f7965727300000000000000000000000000000000000000000000000000000000602082015250565b6000614e0b6024836134fe565b9150614e1682614daf565b604082019050919050565b60006020820190508181036000830152614e3a81614dfe565b9050919050565b7f506c61796572206e6f7420696e206c6f62627900000000000000000000000000600082015250565b6000614e776013836134fe565b9150614e8282614e41565b602082019050919050565b60006020820190508181036000830152614ea681614e6a565b9050919050565b7f4c6f626279206973206e6f7420696e2074686520636f7272656374207374617460008201527f7573000000000000000000000000000000000000000000000000000000000000602082015250565b6000614f096022836134fe565b9150614f1482614ead565b604082019050919050565b60006020820190508181036000830152614f3881614efc565b9050919050565b7f496e636f727265637420656e747279206665652073656e740000000000000000600082015250565b6000614f756018836134fe565b9150614f8082614f3f565b602082019050919050565b60006020820190508181036000830152614fa481614f68565b9050919050565b7f4c6f6262792069732066756c6c00000000000000000000000000000000000000600082015250565b6000614fe1600d836134fe565b9150614fec82614fab565b602082019050919050565b6000602082019050818103600083015261501081614fd4565b9050919050565b7f506c6179657220616c726561647920696e206c6f626279000000000000000000600082015250565b600061504d6017836134fe565b915061505882615017565b602082019050919050565b6000602082019050818103600083015261507c81615040565b9050919050565b7f4c6f626279206e6f7420726561647920666f722073636f726573000000000000600082015250565b60006150b9601a836134fe565b91506150c482615083565b602082019050919050565b600060208201905081810360008301526150e8816150ac565b9050919050565b7f506c617965727320616e642073636f72657320617272617973206c656e67746860008201527f206d69736d617463680000000000000000000000000000000000000000000000602082015250565b600061514b6029836134fe565b9150615156826150ef565b604082019050919050565b6000602082019050818103600083015261517a8161513e565b9050919050565b7f4d757374207375626d69742073636f72657320666f7220616c6c20706c61796560008201527f7273000000000000000000000000000000000000000000000000000000000000602082015250565b60006151dd6022836134fe565b91506151e882615181565b604082019050919050565b6000602082019050818103600083015261520c816151d0565b9050919050565b7f4f776e61626c653a206e6577206f776e657220697320746865207a65726f206160008201527f6464726573730000000000000000000000000000000000000000000000000000602082015250565b600061526f6026836134fe565b915061527a82615213565b604082019050919050565b6000602082019050818103600083015261529e81615262565b9050919050565b7f5265656e7472616e637947756172643a207265656e7472616e742063616c6c00600082015250565b60006152db601f836134fe565b91506152e6826152a5565b602082019050919050565b6000602082019050818103600083015261530a816152ce565b9050919050565b7f4f776e61626c653a2063616c6c6572206973206e6f7420746865206f776e6572600082015250565b60006153476020836134fe565b915061535282615311565b602082019050919050565b600060208201905081810360008301526153768161533a565b905091905056fea2646970667358221220734a22f26f2abde4df8d6c97f3c4a780bd098eb4cabcec8369ab314ecb74dbdf64736f6c634300080a0033",
  "linkReferences": {},
  "deployedLinkReferences": {}
}