{
  "_format": "hh-sol-artifact-1",
  "contractName": "QuizCraftArena",
  "sourceName": "contracts/Quiz.sol",
  "abi": [
    {
      "inputs": [
        {
          "internalType": "uint256",
          "name": "_feeBps",
          "type": "uint256"
        }
      ],
      "stateMutability": "nonpayable",
      "type": "constructor"
    },
    {
      "anonymous": false,
      "inputs": [
        {
          "indexed": false,
          "internalType": "uint256",
          "name": "newFeeBps",
          "type": "uint256"
        }
      ],
      "name": "FeeUpdated",
      "type": "event"
    },
    {
      "anonymous": false,
      "inputs": [
        {
          "indexed": false,
          "internalType": "address",
          "name": "newGameMaster",
          "type": "address"
        }
      ],
      "name": "GameMasterUpdated",
      "type": "event"
    },
    {
      "anonymous": false,
      "inputs": [
        {
          "indexed": true,
          "internalType": "uint256",
          "name": "lobbyId",
          "type": "uint256"
        }
      ],
      "name": "LobbyCancelled",
      "type": "event"
    },
    {
      "anonymous": false,
      "inputs": [
        {
          "indexed": true,
          "internalType": "uint256",
          "name": "lobbyId",
          "type": "uint256"
        },
        {
          "indexed": false,
          "internalType": "address",
          "name": "winner",
          "type": "address"
        },
        {
          "indexed": false,
          "internalType": "uint256",
          "name": "prize",
          "type": "uint256"
        }
      ],
      "name": "LobbyCompleted",
      "type": "event"
    },
    {
      "anonymous": false,
      "inputs": [
        {
          "indexed": true,
          "internalType": "uint256",
          "name": "lobbyId",
          "type": "uint256"
        },
        {
          "indexed": false,
          "internalType": "string",
          "name": "name",
          "type": "string"
        },
        {
          "indexed": false,
          "internalType": "string",
          "name": "category",
          "type": "string"
        },
        {
          "indexed": false,
          "internalType": "uint256",
          "name": "entryFee",
          "type": "uint256"
        },
        {
          "indexed": false,
          "internalType": "uint256",
          "name": "maxPlayers",
          "type": "uint256"
        },
        {
          "indexed": false,
          "internalType": "address",
          "name": "creator",
          "type": "address"
        }
      ],
      "name": "LobbyCreated",
      "type": "event"
    },
    {
      "anonymous": false,
      "inputs": [
        {
          "indexed": true,
          "internalType": "address",
          "name": "previousOwner",
          "type": "address"
        },
        {
          "indexed": true,
          "internalType": "address",
          "name": "newOwner",
          "type": "address"
        }
      ],
      "name": "OwnershipTransferred",
      "type": "event"
    },
    {
      "anonymous": false,
      "inputs": [
        {
          "indexed": true,
          "internalType": "uint256",
          "name": "lobbyId",
          "type": "uint256"
        },
        {
          "indexed": false,
          "internalType": "address",
          "name": "player",
          "type": "address"
        }
      ],
      "name": "PlayerJoined",
      "type": "event"
    },
    {
      "anonymous": false,
      "inputs": [
        {
          "indexed": false,
          "internalType": "address",
          "name": "player",
          "type": "address"
        },
        {
          "indexed": false,
          "internalType": "uint256",
          "name": "amount",
          "type": "uint256"
        }
      ],
      "name": "RefundClaimed",
      "type": "event"
    },
    {
      "inputs": [],
      "name": "LOBBY_TIMEOUT",
      "outputs": [
        {
          "internalType": "uint256",
          "name": "",
          "type": "uint256"
        }
      ],
      "stateMutability": "view",
      "type": "function"
    },
    {
      "inputs": [
        {
          "internalType": "uint256",
          "name": "_lobbyId",
          "type": "uint256"
        }
      ],
      "name": "claimRefund",
      "outputs": [],
      "stateMutability": "nonpayable",
      "type": "function"
    },
    {
      "inputs": [
        {
          "internalType": "string",
          "name": "_name",
          "type": "string"
        },
        {
          "internalType": "string",
          "name": "_category",
          "type": "string"
        },
        {
          "internalType": "uint256",
          "name": "_entryFee",
          "type": "uint256"
        },
        {
          "internalType": "uint256",
          "name": "_maxPlayers",
          "type": "uint256"
        }
      ],
      "name": "createLobby",
      "outputs": [
        {
          "internalType": "uint256",
          "name": "",
          "type": "uint256"
        }
      ],
      "stateMutability": "nonpayable",
      "type": "function"
    },
    {
      "inputs": [],
      "name": "gameMaster",
      "outputs": [
        {
          "internalType": "address",
          "name": "",
          "type": "address"
        }
      ],
      "stateMutability": "view",
      "type": "function"
    },
    {
      "inputs": [
        {
          "internalType": "uint256",
          "name": "_lobbyId",
          "type": "uint256"
        }
      ],
      "name": "getPlayersInLobby",
      "outputs": [
        {
          "internalType": "address[]",
          "name": "",
          "type": "address[]"
        }
      ],
      "stateMutability": "view",
      "type": "function"
    },
    {
      "inputs": [
        {
          "internalType": "uint256",
          "name": "_lobbyId",
          "type": "uint256"
        },
        {
          "internalType": "address",
          "name": "_player",
          "type": "address"
        }
      ],
      "name": "isPlayerInLobby",
      "outputs": [
        {
          "internalType": "bool",
          "name": "",
          "type": "bool"
        }
      ],
      "stateMutability": "view",
      "type": "function"
    },
    {
      "inputs": [
        {
          "internalType": "uint256",
          "name": "_lobbyId",
          "type": "uint256"
        }
      ],
      "name": "joinLobby",
      "outputs": [],
      "stateMutability": "payable",
      "type": "function"
    },
    {
      "inputs": [
        {
          "internalType": "uint256",
          "name": "",
          "type": "uint256"
        }
      ],
      "name": "lobbies",
      "outputs": [
        {
          "internalType": "uint256",
          "name": "id",
          "type": "uint256"
        },
        {
          "internalType": "string",
          "name": "name",
          "type": "string"
        },
        {
          "internalType": "string",
          "name": "category",
          "type": "string"
        },
        {
          "internalType": "uint256",
          "name": "entryFee",
          "type": "uint256"
        },
        {
          "internalType": "uint256",
          "name": "playerCount",
          "type": "uint256"
        },
        {
          "internalType": "uint256",
          "name": "maxPlayers",
          "type": "uint256"
        },
        {
          "internalType": "uint256",
          "name": "prizePool",
          "type": "uint256"
        },
        {
          "internalType": "uint256",
          "name": "createdAt",
          "type": "uint256"
        },
        {
          "internalType": "enum QuizCraftArena.LobbyStatus",
          "name": "status",
          "type": "uint8"
        },
        {
          "internalType": "address",
          "name": "winner",
          "type": "address"
        },
        {
          "internalType": "bool",
          "name": "prizeDistributed",
          "type": "bool"
        },
        {
          "internalType": "address",
          "name": "creator",
          "type": "address"
        }
      ],
      "stateMutability": "view",
      "type": "function"
    },
    {
      "inputs": [],
      "name": "nextLobbyId",
      "outputs": [
        {
          "internalType": "uint256",
          "name": "",
          "type": "uint256"
        }
      ],
      "stateMutability": "view",
      "type": "function"
    },
    {
      "inputs": [],
      "name": "owner",
      "outputs": [
        {
          "internalType": "address",
          "name": "",
          "type": "address"
        }
      ],
      "stateMutability": "view",
      "type": "function"
    },
    {
      "inputs": [
        {
          "internalType": "address",
          "name": "",
          "type": "address"
        }
      ],
      "name": "pendingReturns",
      "outputs": [
        {
          "internalType": "uint256",
          "name": "",
          "type": "uint256"
        }
      ],
      "stateMutability": "view",
      "type": "function"
    },
    {
      "inputs": [],
      "name": "platformFeeBps",
      "outputs": [
        {
          "internalType": "uint256",
          "name": "",
          "type": "uint256"
        }
      ],
      "stateMutability": "view",
      "type": "function"
    },
    {
      "inputs": [],
      "name": "renounceOwnership",
      "outputs": [],
      "stateMutability": "nonpayable",
      "type": "function"
    },
    {
      "inputs": [
        {
          "internalType": "uint256",
          "name": "_lobbyId",
          "type": "uint256"
        },
        {
          "internalType": "address",
          "name": "_winner",
          "type": "address"
        }
      ],
      "name": "resolveGame",
      "outputs": [],
      "stateMutability": "nonpayable",
      "type": "function"
    },
    {
      "inputs": [
        {
          "internalType": "address",
          "name": "newOwner",
          "type": "address"
        }
      ],
      "name": "transferOwnership",
      "outputs": [],
      "stateMutability": "nonpayable",
      "type": "function"
    },
    {
      "inputs": [
        {
          "internalType": "address",
          "name": "_newGameMaster",
          "type": "address"
        }
      ],
      "name": "updateGameMaster",
      "outputs": [],
      "stateMutability": "nonpayable",
      "type": "function"
    },
    {
      "inputs": [
        {
          "internalType": "uint256",
          "name": "_newFeeBps",
          "type": "uint256"
        }
      ],
      "name": "updatePlatformFee",
      "outputs": [],
      "stateMutability": "nonpayable",
      "type": "function"
    },
    {
      "inputs": [
        {
          "internalType": "contract IERC20",
          "name": "_token",
          "type": "address"
        },
        {
          "internalType": "address",
          "name": "_to",
          "type": "address"
        }
      ],
      "name": "withdrawERC20",
      "outputs": [],
      "stateMutability": "nonpayable",
      "type": "function"
    },
    {
      "inputs": [],
      "name": "withdrawRefund",
      "outputs": [],
      "stateMutability": "nonpayable",
      "type": "function"
    },
    {
      "stateMutability": "payable",
      "type": "receive"
    }
  ],
  "bytecode": "0x60806040523480156200001157600080fd5b5060405162003691380380620036918339818101604052810190620000379190620001bc565b60016000819055506200005f62000053620000ae60201b60201c565b620000b660201b60201c565b8060028190555033600360006101000a81548173ffffffffffffffffffffffffffffffffffffffff021916908373ffffffffffffffffffffffffffffffffffffffff16021790555050620001ee565b600033905090565b6000600160009054906101000a900473ffffffffffffffffffffffffffffffffffffffff16905081600160006101000a81548173ffffffffffffffffffffffffffffffffffffffff021916908373ffffffffffffffffffffffffffffffffffffffff1602179055508173ffffffffffffffffffffffffffffffffffffffff168173ffffffffffffffffffffffffffffffffffffffff167f8be0079c531659141344cd1fd0a4f28419497f9722a3daafe3b4186f6b6457e060405160405180910390a35050565b600080fd5b6000819050919050565b620001968162000181565b8114620001a257600080fd5b50565b600081519050620001b6816200018b565b92915050565b600060208284031215620001d557620001d46200017c565b5b6000620001e584828501620001a5565b91505092915050565b61349380620001fe6000396000f3fe6080604052600436106101185760003560e01c8063715018a6116100a0578063bdf84ae711610064578063bdf84ae7146103d8578063c309b1e314610403578063d85cdcb61461042e578063e9173b3a1461046b578063f2fde38b1461048757610158565b8063715018a6146103195780638da5cb5b146103305780639456fbcc1461035b578063a16353bf14610384578063aa0b5988146103af57610158565b80632a14ebb4116100e75780632a14ebb41461020557806332d8f3fd14610242578063559ab8cc1461026b5780635b7baf64146102a85780636e8fb4c6146102d157610158565b8063110f88741461015d57806311ca230b1461017457806322dcd13e1461019d57806326b387bb146101c857610158565b36610158576040517f08c379a000000000000000000000000000000000000000000000000000000000815260040161014f90611d7f565b60405180910390fd5b600080fd5b34801561016957600080fd5b506101726104b0565b005b34801561018057600080fd5b5061019b60048036038101906101969190611e47565b610675565b005b3480156101a957600080fd5b506101b2610aea565b6040516101bf9190611e96565b60405180910390f35b3480156101d457600080fd5b506101ef60048036038101906101ea9190611eb1565b610af0565b6040516101fc9190611e96565b60405180910390f35b34801561021157600080fd5b5061022c60048036038101906102279190612024565b610b08565b6040516102399190611e96565b60405180910390f35b34801561024e57600080fd5b5061026960048036038101906102649190611eb1565b610da0565b005b34801561027757600080fd5b50610292600480360381019061028d9190611e47565b610e93565b60405161029f91906120de565b60405180910390f35b3480156102b457600080fd5b506102cf60048036038101906102ca91906120f9565b610fa3565b005b3480156102dd57600080fd5b506102f860048036038101906102f391906120f9565b61125e565b6040516103109c9b9a99989796959493929190612223565b60405180910390f35b34801561032557600080fd5b5061032e611428565b005b34801561033c57600080fd5b5061034561143c565b60405161035291906122eb565b60405180910390f35b34801561036757600080fd5b50610382600480360381019061037d9190612344565b611466565b005b34801561039057600080fd5b506103996115b3565b6040516103a69190611e96565b60405180910390f35b3480156103bb57600080fd5b506103d660048036038101906103d191906120f9565b6115b9565b005b3480156103e457600080fd5b506103ed611647565b6040516103fa91906122eb565b60405180910390f35b34801561040f57600080fd5b5061041861166d565b6040516104259190611e96565b60405180910390f35b34801561043a57600080fd5b50610455600480360381019061045091906120f9565b611673565b6040516104629190612442565b60405180910390f35b610485600480360381019061048091906120f9565b61175d565b005b34801561049357600080fd5b506104ae60048036038101906104a99190611eb1565b611a55565b005b6104b8611ad9565b6000600560003373ffffffffffffffffffffffffffffffffffffffff1673ffffffffffffffffffffffffffffffffffffffff1681526020019081526020016000205490506000811161053f576040517f08c379a0000000000000000000000000000000000000000000000000000000008152600401610536906124b0565b60405180910390fd5b6000600560003373ffffffffffffffffffffffffffffffffffffffff1673ffffffffffffffffffffffffffffffffffffffff1681526020019081526020016000208190555060003373ffffffffffffffffffffffffffffffffffffffff16826040516105aa90612501565b60006040518083038185875af1925050503d80600081146105e7576040519150601f19603f3d011682016040523d82523d6000602084013e6105ec565b606091505b5050905080610630576040517f08c379a000000000000000000000000000000000000000000000000000000000815260040161062790612562565b60405180910390fd5b7f358fe4192934d3bf28ae181feda1f4bd08ca67f5e2fad55582cce5eb67304ae93383604051610661929190612582565b60405180910390a15050610673611b29565b565b61067d611ad9565b600360009054906101000a900473ffffffffffffffffffffffffffffffffffffffff1673ffffffffffffffffffffffffffffffffffffffff163373ffffffffffffffffffffffffffffffffffffffff161461070d576040517f08c379a0000000000000000000000000000000000000000000000000000000008152600401610704906125f7565b60405180910390fd5b816006548110610752576040517f08c379a000000000000000000000000000000000000000000000000000000000815260040161074990612663565b60405180910390fd5b60006004600085815260200190815260200160002090506001600481111561077d5761077c61219d565b5b8160080160009054906101000a900460ff1660048111156107a1576107a061219d565b5b146107e1576040517f08c379a00000000000000000000000000000000000000000000000000000000081526004016107d8906126cf565b60405180910390fd5b6107eb8484610e93565b61082a576040517f08c379a000000000000000000000000000000000000000000000000000000000815260040161082190612761565b60405180910390fd5b80600a0160149054906101000a900460ff161561087c576040517f08c379a0000000000000000000000000000000000000000000000000000000008152600401610873906127cd565b60405180910390fd5b60038160080160006101000a81548160ff021916908360048111156108a4576108a361219d565b5b02179055508281600a0160006101000a81548173ffffffffffffffffffffffffffffffffffffffff021916908373ffffffffffffffffffffffffffffffffffffffff160217905550600181600a0160146101000a81548160ff02191690831515021790555060006127106002548360060154610920919061281c565b61092a91906128a5565b9050600081836006015461093e91906128d6565b905060008573ffffffffffffffffffffffffffffffffffffffff168260405161096690612501565b60006040518083038185875af1925050503d80600081146109a3576040519150601f19603f3d011682016040523d82523d6000602084013e6109a8565b606091505b50509050806109ec576040517f08c379a00000000000000000000000000000000000000000000000000000000081526004016109e390612956565b60405180910390fd5b6109f461143c565b73ffffffffffffffffffffffffffffffffffffffff1683604051610a1790612501565b60006040518083038185875af1925050503d8060008114610a54576040519150601f19603f3d011682016040523d82523d6000602084013e610a59565b606091505b50508091505080610a9f576040517f08c379a0000000000000000000000000000000000000000000000000000000008152600401610a96906129c2565b60405180910390fd5b867f5d36374a8d1a6cae8e46381aea50cae98b85e5ede9e10916d26179527900e5208784604051610ad1929190612582565b60405180910390a25050505050610ae6611b29565b5050565b60025481565b60056020528060005260406000206000915090505481565b600080855111610b4d576040517f08c379a0000000000000000000000000000000000000000000000000000000008152600401610b4490612a2e565b60405180910390fd5b6000845111610b91576040517f08c379a0000000000000000000000000000000000000000000000000000000008152600401610b8890612a9a565b60405180910390fd5b60008311610bd4576040517f08c379a0000000000000000000000000000000000000000000000000000000008152600401610bcb90612b06565b60405180910390fd5b60018211610c17576040517f08c379a0000000000000000000000000000000000000000000000000000000008152600401610c0e90612b72565b60405180910390fd5b600a821115610c5b576040517f08c379a0000000000000000000000000000000000000000000000000000000008152600401610c5290612bde565b60405180910390fd5b600060066000815480929190610c7090612bfe565b919050559050600060046000838152602001908152602001600020905081816000018190555086816001019080519060200190610cae929190611c7f565b5085816002019080519060200190610cc7929190611c7f565b5084816003018190555083816005018190555042816007018190555060008160080160006101000a81548160ff02191690836004811115610d0b57610d0a61219d565b5b02179055503381600b0160006101000a81548173ffffffffffffffffffffffffffffffffffffffff021916908373ffffffffffffffffffffffffffffffffffffffff160217905550817f0e2b64f820c6349ce53d20faa9c7eba7858ae3c3ea29cc7fbf30c50fffcf31708888888833604051610d8b959493929190612c47565b60405180910390a28192505050949350505050565b610da8611b33565b600073ffffffffffffffffffffffffffffffffffffffff168173ffffffffffffffffffffffffffffffffffffffff161415610e18576040517f08c379a0000000000000000000000000000000000000000000000000000000008152600401610e0f90612cf4565b60405180910390fd5b80600360006101000a81548173ffffffffffffffffffffffffffffffffffffffff021916908373ffffffffffffffffffffffffffffffffffffffff1602179055507f4d58a68626659612199a8c82ba65a98101440af3ee23fc6179ecb5884501256381604051610e8891906122eb565b60405180910390a150565b6000826006548110610eda576040517f08c379a0000000000000000000000000000000000000000000000000000000008152600401610ed190612663565b60405180910390fd5b600060046000868152602001908152602001600020905060005b8160090180549050811015610f95578473ffffffffffffffffffffffffffffffffffffffff16826009018281548110610f3057610f2f612d14565b5b9060005260206000200160009054906101000a900473ffffffffffffffffffffffffffffffffffffffff1673ffffffffffffffffffffffffffffffffffffffff161415610f8257600193505050610f9c565b8080610f8d90612bfe565b915050610ef4565b5060009250505b5092915050565b806006548110610fe8576040517f08c379a0000000000000000000000000000000000000000000000000000000008152600401610fdf90612663565b60405180910390fd5b6000600460008481526020019081526020016000209050600060048111156110135761101261219d565b5b8160080160009054906101000a900460ff1660048111156110375761103661219d565b5b14806110785750600160048111156110525761105161219d565b5b8160080160009054906101000a900460ff1660048111156110765761107561219d565b5b145b6110b7576040517f08c379a00000000000000000000000000000000000000000000000000000000081526004016110ae90612d8f565b60405180910390fd5b61012c81600701546110c99190612daf565b421161110a576040517f08c379a000000000000000000000000000000000000000000000000000000000815260040161110190612e51565b60405180910390fd5b6111148333610e93565b611153576040517f08c379a000000000000000000000000000000000000000000000000000000000815260040161114a90612ebd565b60405180910390fd5b80600a0160149054906101000a900460ff16156111a5576040517f08c379a000000000000000000000000000000000000000000000000000000000815260040161119c90612f29565b60405180910390fd5b60048160080160006101000a81548160ff021916908360048111156111cd576111cc61219d565b5b02179055508060030154600560003373ffffffffffffffffffffffffffffffffffffffff1673ffffffffffffffffffffffffffffffffffffffff16815260200190815260200160002060008282546112259190612daf565b92505081905550827f77c76c657e315ec4202d02d6b866770c4edbabe032e6c201ca6d18859c470a3760405160405180910390a2505050565b600460205280600052604060002060009150905080600001549080600101805461128790612f78565b80601f01602080910402602001604051908101604052809291908181526020018280546112b390612f78565b80156113005780601f106112d557610100808354040283529160200191611300565b820191906000526020600020905b8154815290600101906020018083116112e357829003601f168201915b50505050509080600201805461131590612f78565b80601f016020809104026020016040519081016040528092919081815260200182805461134190612f78565b801561138e5780601f106113635761010080835404028352916020019161138e565b820191906000526020600020905b81548152906001019060200180831161137157829003601f168201915b5050505050908060030154908060040154908060050154908060060154908060070154908060080160009054906101000a900460ff169080600a0160009054906101000a900473ffffffffffffffffffffffffffffffffffffffff169080600a0160149054906101000a900460ff169080600b0160009054906101000a900473ffffffffffffffffffffffffffffffffffffffff1690508c565b611430611b33565b61143a6000611bb1565b565b6000600160009054906101000a900473ffffffffffffffffffffffffffffffffffffffff16905090565b61146e611b33565b60008273ffffffffffffffffffffffffffffffffffffffff166370a08231306040518263ffffffff1660e01b81526004016114a991906122eb565b602060405180830381865afa1580156114c6573d6000803e3d6000fd5b505050506040513d601f19601f820116820180604052508101906114ea9190612fbf565b90506000811161152f576040517f08c379a000000000000000000000000000000000000000000000000000000000815260040161152690613038565b60405180910390fd5b8273ffffffffffffffffffffffffffffffffffffffff1663a9059cbb83836040518363ffffffff1660e01b815260040161156a929190612582565b6020604051808303816000875af1158015611589573d6000803e3d6000fd5b505050506040513d601f19601f820116820180604052508101906115ad9190613084565b50505050565b61012c81565b6115c1611b33565b6103e8811115611606576040517f08c379a00000000000000000000000000000000000000000000000000000000081526004016115fd906130fd565b60405180910390fd5b806002819055507f8c4d35e54a3f2ef1134138fd8ea3daee6a3c89e10d2665996babdf70261e2c768160405161163c9190611e96565b60405180910390a150565b600360009054906101000a900473ffffffffffffffffffffffffffffffffffffffff1681565b60065481565b60608160065481106116ba576040517f08c379a00000000000000000000000000000000000000000000000000000000081526004016116b190612663565b60405180910390fd5b6004600084815260200190815260200160002060090180548060200260200160405190810160405280929190818152602001828054801561175057602002820191906000526020600020905b8160009054906101000a900473ffffffffffffffffffffffffffffffffffffffff1673ffffffffffffffffffffffffffffffffffffffff1681526020019060010190808311611706575b5050505050915050919050565b611765611ad9565b8060065481106117aa576040517f08c379a00000000000000000000000000000000000000000000000000000000081526004016117a190612663565b60405180910390fd5b8160008060048111156117c0576117bf61219d565b5b6004600084815260200190815260200160002060080160009054906101000a900460ff1660048111156117f6576117f561219d565b5b14611836576040517f08c379a000000000000000000000000000000000000000000000000000000000815260040161182d9061318f565b60405180910390fd5b600060046000868152602001908152602001600020905080600301543414611893576040517f08c379a000000000000000000000000000000000000000000000000000000000815260040161188a906131fb565b60405180910390fd5b80600501548160090180549050106118e0576040517f08c379a00000000000000000000000000000000000000000000000000000000081526004016118d790613267565b60405180910390fd5b6118ea8533610e93565b1561192a576040517f08c379a0000000000000000000000000000000000000000000000000000000008152600401611921906132d3565b60405180910390fd5b80600901339080600181540180825580915050600190039060005260206000200160009091909190916101000a81548173ffffffffffffffffffffffffffffffffffffffff021916908373ffffffffffffffffffffffffffffffffffffffff1602179055508060040160008154809291906119a490612bfe565b9190505550348160060160008282546119bd9190612daf565b92505081905550847f87969bc7faf902221a147b95ceba76e011c5efb0339a0a8ee7a2bb82d9cfbbd6336040516119f491906122eb565b60405180910390a2806005015481600901805490501415611a465760018160080160006101000a81548160ff02191690836004811115611a3757611a3661219d565b5b02179055504281600701819055505b50505050611a52611b29565b50565b611a5d611b33565b600073ffffffffffffffffffffffffffffffffffffffff168173ffffffffffffffffffffffffffffffffffffffff161415611acd576040517f08c379a0000000000000000000000000000000000000000000000000000000008152600401611ac490613365565b60405180910390fd5b611ad681611bb1565b50565b60026000541415611b1f576040517f08c379a0000000000000000000000000000000000000000000000000000000008152600401611b16906133d1565b60405180910390fd5b6002600081905550565b6001600081905550565b611b3b611c77565b73ffffffffffffffffffffffffffffffffffffffff16611b5961143c565b73ffffffffffffffffffffffffffffffffffffffff1614611baf576040517f08c379a0000000000000000000000000000000000000000000000000000000008152600401611ba69061343d565b60405180910390fd5b565b6000600160009054906101000a900473ffffffffffffffffffffffffffffffffffffffff16905081600160006101000a81548173ffffffffffffffffffffffffffffffffffffffff021916908373ffffffffffffffffffffffffffffffffffffffff1602179055508173ffffffffffffffffffffffffffffffffffffffff168173ffffffffffffffffffffffffffffffffffffffff167f8be0079c531659141344cd1fd0a4f28419497f9722a3daafe3b4186f6b6457e060405160405180910390a35050565b600033905090565b828054611c8b90612f78565b90600052602060002090601f016020900481019282611cad5760008555611cf4565b82601f10611cc657805160ff1916838001178555611cf4565b82800160010185558215611cf4579182015b82811115611cf3578251825591602001919060010190611cd8565b5b509050611d019190611d05565b5090565b5b80821115611d1e576000816000905550600101611d06565b5090565b600082825260208201905092915050565b7f446f206e6f742073656e6420455448206469726563746c790000000000000000600082015250565b6000611d69601883611d22565b9150611d7482611d33565b602082019050919050565b60006020820190508181036000830152611d9881611d5c565b9050919050565b6000604051905090565b600080fd5b600080fd5b6000819050919050565b611dc681611db3565b8114611dd157600080fd5b50565b600081359050611de381611dbd565b92915050565b600073ffffffffffffffffffffffffffffffffffffffff82169050919050565b6000611e1482611de9565b9050919050565b611e2481611e09565b8114611e2f57600080fd5b50565b600081359050611e4181611e1b565b92915050565b60008060408385031215611e5e57611e5d611da9565b5b6000611e6c85828601611dd4565b9250506020611e7d85828601611e32565b9150509250929050565b611e9081611db3565b82525050565b6000602082019050611eab6000830184611e87565b92915050565b600060208284031215611ec757611ec6611da9565b5b6000611ed584828501611e32565b91505092915050565b600080fd5b600080fd5b6000601f19601f8301169050919050565b7f4e487b7100000000000000000000000000000000000000000000000000000000600052604160045260246000fd5b611f3182611ee8565b810181811067ffffffffffffffff82111715611f5057611f4f611ef9565b5b80604052505050565b6000611f63611d9f565b9050611f6f8282611f28565b919050565b600067ffffffffffffffff821115611f8f57611f8e611ef9565b5b611f9882611ee8565b9050602081019050919050565b82818337600083830152505050565b6000611fc7611fc284611f74565b611f59565b905082815260208101848484011115611fe357611fe2611ee3565b5b611fee848285611fa5565b509392505050565b600082601f83011261200b5761200a611ede565b5b813561201b848260208601611fb4565b91505092915050565b6000806000806080858703121561203e5761203d611da9565b5b600085013567ffffffffffffffff81111561205c5761205b611dae565b5b61206887828801611ff6565b945050602085013567ffffffffffffffff81111561208957612088611dae565b5b61209587828801611ff6565b93505060406120a687828801611dd4565b92505060606120b787828801611dd4565b91505092959194509250565b60008115159050919050565b6120d8816120c3565b82525050565b60006020820190506120f360008301846120cf565b92915050565b60006020828403121561210f5761210e611da9565b5b600061211d84828501611dd4565b91505092915050565b600081519050919050565b60005b8381101561214f578082015181840152602081019050612134565b8381111561215e576000848401525b50505050565b600061216f82612126565b6121798185611d22565b9350612189818560208601612131565b61219281611ee8565b840191505092915050565b7f4e487b7100000000000000000000000000000000000000000000000000000000600052602160045260246000fd5b600581106121dd576121dc61219d565b5b50565b60008190506121ee826121cc565b919050565b60006121fe826121e0565b9050919050565b61220e816121f3565b82525050565b61221d81611e09565b82525050565b600061018082019050612239600083018f611e87565b818103602083015261224b818e612164565b9050818103604083015261225f818d612164565b905061226e606083018c611e87565b61227b608083018b611e87565b61228860a083018a611e87565b61229560c0830189611e87565b6122a260e0830188611e87565b6122b0610100830187612205565b6122be610120830186612214565b6122cc6101408301856120cf565b6122da610160830184612214565b9d9c50505050505050505050505050565b60006020820190506123006000830184612214565b92915050565b600061231182611e09565b9050919050565b61232181612306565b811461232c57600080fd5b50565b60008135905061233e81612318565b92915050565b6000806040838503121561235b5761235a611da9565b5b60006123698582860161232f565b925050602061237a85828601611e32565b9150509250929050565b600081519050919050565b600082825260208201905092915050565b6000819050602082019050919050565b6123b981611e09565b82525050565b60006123cb83836123b0565b60208301905092915050565b6000602082019050919050565b60006123ef82612384565b6123f9818561238f565b9350612404836123a0565b8060005b8381101561243557815161241c88826123bf565b9750612427836123d7565b925050600181019050612408565b5085935050505092915050565b6000602082019050818103600083015261245c81846123e4565b905092915050565b7f4e6f2066756e647320746f207769746864726177000000000000000000000000600082015250565b600061249a601483611d22565b91506124a582612464565b602082019050919050565b600060208201905081810360008301526124c98161248d565b9050919050565b600081905092915050565b50565b60006124eb6000836124d0565b91506124f6826124db565b600082019050919050565b600061250c826124de565b9150819050919050565b7f526566756e64207472616e73666572206661696c656400000000000000000000600082015250565b600061254c601683611d22565b915061255782612516565b602082019050919050565b6000602082019050818103600083015261257b8161253f565b9050919050565b60006040820190506125976000830185612214565b6125a46020830184611e87565b9392505050565b7f43616c6c6572206973206e6f74207468652047616d654d617374657200000000600082015250565b60006125e1601c83611d22565b91506125ec826125ab565b602082019050919050565b60006020820190508181036000830152612610816125d4565b9050919050565b7f4c6f62627920646f6573206e6f74206578697374000000000000000000000000600082015250565b600061264d601483611d22565b915061265882612617565b602082019050919050565b6000602082019050818103600083015261267c81612640565b9050919050565b7f4c6f626279206e6f7420726561647920746f207265736f6c7665000000000000600082015250565b60006126b9601a83611d22565b91506126c482612683565b602082019050919050565b600060208201905081810360008301526126e8816126ac565b9050919050565b7f57696e6e6572206973206e6f74206120706c6179657220696e2074686973206c60008201527f6f62627900000000000000000000000000000000000000000000000000000000602082015250565b600061274b602483611d22565b9150612756826126ef565b604082019050919050565b6000602082019050818103600083015261277a8161273e565b9050919050565b7f5072697a6520616c726561647920646973747269627574656400000000000000600082015250565b60006127b7601983611d22565b91506127c282612781565b602082019050919050565b600060208201905081810360008301526127e6816127aa565b9050919050565b7f4e487b7100000000000000000000000000000000000000000000000000000000600052601160045260246000fd5b600061282782611db3565b915061283283611db3565b9250817fffffffffffffffffffffffffffffffffffffffffffffffffffffffffffffffff048311821515161561286b5761286a6127ed565b5b828202905092915050565b7f4e487b7100000000000000000000000000000000000000000000000000000000600052601260045260246000fd5b60006128b082611db3565b91506128bb83611db3565b9250826128cb576128ca612876565b5b828204905092915050565b60006128e182611db3565b91506128ec83611db3565b9250828210156128ff576128fe6127ed565b5b828203905092915050565b7f5472616e7366657220746f2077696e6e6572206661696c656400000000000000600082015250565b6000612940601983611d22565b915061294b8261290a565b602082019050919050565b6000602082019050818103600083015261296f81612933565b9050919050565b7f5472616e73666572206f6620666565206661696c656400000000000000000000600082015250565b60006129ac601683611d22565b91506129b782612976565b602082019050919050565b600060208201905081810360008301526129db8161299f565b9050919050565b7f4c6f626279206e616d652063616e6e6f7420626520656d707479000000000000600082015250565b6000612a18601a83611d22565b9150612a23826129e2565b602082019050919050565b60006020820190508181036000830152612a4781612a0b565b9050919050565b7f43617465676f72792063616e6e6f7420626520656d7074790000000000000000600082015250565b6000612a84601883611d22565b9150612a8f82612a4e565b602082019050919050565b60006020820190508181036000830152612ab381612a77565b9050919050565b7f456e74727920666565206d7573742062652067726561746572207468616e2030600082015250565b6000612af0602083611d22565b9150612afb82612aba565b602082019050919050565b60006020820190508181036000830152612b1f81612ae3565b9050919050565b7f4d617820706c6179657273206d757374206265206174206c6561737420320000600082015250565b6000612b5c601e83611d22565b9150612b6782612b26565b602082019050919050565b60006020820190508181036000830152612b8b81612b4f565b9050919050565b7f4d617820706c61796572732063616e6e6f742065786365656420313000000000600082015250565b6000612bc8601c83611d22565b9150612bd382612b92565b602082019050919050565b60006020820190508181036000830152612bf781612bbb565b9050919050565b6000612c0982611db3565b91507fffffffffffffffffffffffffffffffffffffffffffffffffffffffffffffffff821415612c3c57612c3b6127ed565b5b600182019050919050565b600060a0820190508181036000830152612c618188612164565b90508181036020830152612c758187612164565b9050612c846040830186611e87565b612c916060830185611e87565b612c9e6080830184612214565b9695505050505050565b7f496e76616c69642047616d654d61737465722061646472657373000000000000600082015250565b6000612cde601a83611d22565b9150612ce982612ca8565b602082019050919050565b60006020820190508181036000830152612d0d81612cd1565b9050919050565b7f4e487b7100000000000000000000000000000000000000000000000000000000600052603260045260246000fd5b7f4e6f7420726566756e6461626c65000000000000000000000000000000000000600082015250565b6000612d79600e83611d22565b9150612d8482612d43565b602082019050919050565b60006020820190508181036000830152612da881612d6c565b9050919050565b6000612dba82611db3565b9150612dc583611db3565b9250827fffffffffffffffffffffffffffffffffffffffffffffffffffffffffffffffff03821115612dfa57612df96127ed565b5b828201905092915050565b7f4c6f626279206e6f742079657420657870697265640000000000000000000000600082015250565b6000612e3b601583611d22565b9150612e4682612e05565b602082019050919050565b60006020820190508181036000830152612e6a81612e2e565b9050919050565b7f4e6f74206120706c6179657220696e2074686973206c6f626279000000000000600082015250565b6000612ea7601a83611d22565b9150612eb282612e71565b602082019050919050565b60006020820190508181036000830152612ed681612e9a565b9050919050565b7f5072697a6520616c72656164792068616e646c65640000000000000000000000600082015250565b6000612f13601583611d22565b9150612f1e82612edd565b602082019050919050565b60006020820190508181036000830152612f4281612f06565b9050919050565b7f4e487b7100000000000000000000000000000000000000000000000000000000600052602260045260246000fd5b60006002820490506001821680612f9057607f821691505b60208210811415612fa457612fa3612f49565b5b50919050565b600081519050612fb981611dbd565b92915050565b600060208284031215612fd557612fd4611da9565b5b6000612fe384828501612faa565b91505092915050565b7f4e6f20746f6b656e7320746f2077697468647261770000000000000000000000600082015250565b6000613022601583611d22565b915061302d82612fec565b602082019050919050565b6000602082019050818103600083015261305181613015565b9050919050565b613061816120c3565b811461306c57600080fd5b50565b60008151905061307e81613058565b92915050565b60006020828403121561309a57613099611da9565b5b60006130a88482850161306f565b91505092915050565b7f4665652063616e6e6f7420657863656564203130250000000000000000000000600082015250565b60006130e7601583611d22565b91506130f2826130b1565b602082019050919050565b60006020820190508181036000830152613116816130da565b9050919050565b7f4c6f626279206973206e6f7420696e2074686520636f7272656374207374617460008201527f7573000000000000000000000000000000000000000000000000000000000000602082015250565b6000613179602283611d22565b91506131848261311d565b604082019050919050565b600060208201905081810360008301526131a88161316c565b9050919050565b7f496e636f727265637420656e747279206665652073656e740000000000000000600082015250565b60006131e5601883611d22565b91506131f0826131af565b602082019050919050565b60006020820190508181036000830152613214816131d8565b9050919050565b7f4c6f6262792069732066756c6c00000000000000000000000000000000000000600082015250565b6000613251600d83611d22565b915061325c8261321b565b602082019050919050565b6000602082019050818103600083015261328081613244565b9050919050565b7f506c6179657220616c726561647920696e206c6f626279000000000000000000600082015250565b60006132bd601783611d22565b91506132c882613287565b602082019050919050565b600060208201905081810360008301526132ec816132b0565b9050919050565b7f4f776e61626c653a206e6577206f776e657220697320746865207a65726f206160008201527f6464726573730000000000000000000000000000000000000000000000000000602082015250565b600061334f602683611d22565b915061335a826132f3565b604082019050919050565b6000602082019050818103600083015261337e81613342565b9050919050565b7f5265656e7472616e637947756172643a207265656e7472616e742063616c6c00600082015250565b60006133bb601f83611d22565b91506133c682613385565b602082019050919050565b600060208201905081810360008301526133ea816133ae565b9050919050565b7f4f776e61626c653a2063616c6c6572206973206e6f7420746865206f776e6572600082015250565b6000613427602083611d22565b9150613432826133f1565b602082019050919050565b600060208201905081810360008301526134568161341a565b905091905056fea2646970667358221220c0e726934c1810e8a4f7b405035e5a31cb7e0c48383f5758211e99bb5787545364736f6c634300080a0033",
  "linkReferences": {},
  "deployedLinkReferences": {}
}