{
  "_format": "hh-sol-artifact-1",
  "contractName": "QuizCraftArena",
  "sourceName": "contracts/Quiz.sol",
  "abi": [
    {
      "inputs": [
        {
          "internalType": "uint256",
          "name": "_feeBps",
          "type": "uint256"
        }
      ],
      "stateMutability": "nonpayable",
      "type": "constructor"
    },
    {
      "anonymous": false,
      "inputs": [
        {
          "indexed": false,
          "internalType": "uint256",
          "name": "newFeeBps",
          "type": "uint256"
        }
      ],
      "name": "FeeUpdated",
      "type": "event"
    },
    {
      "anonymous": false,
      "inputs": [
        {
          "indexed": false,
          "internalType": "address",
          "name": "newGameMaster",
          "type": "address"
        }
      ],
      "name": "GameMasterUpdated",
      "type": "event"
    },
    {
      "anonymous": false,
      "inputs": [
        {
          "indexed": true,
          "internalType": "uint256",
          "name": "lobbyId",
          "type": "uint256"
        },
        {
          "indexed": false,
          "internalType": "address[]",
          "name": "leaderboard",
          "type": "address[]"
        }
      ],
      "name": "LeaderboardSet",
      "type": "event"
    },
    {
      "anonymous": false,
      "inputs": [
        {
          "indexed": true,
          "internalType": "uint256",
          "name": "lobbyId",
          "type": "uint256"
        }
      ],
      "name": "LobbyCancelled",
      "type": "event"
    },
    {
      "anonymous": false,
      "inputs": [
        {
          "indexed": true,
          "internalType": "uint256",
          "name": "lobbyId",
          "type": "uint256"
        },
        {
          "indexed": false,
          "internalType": "address",
          "name": "winner",
          "type": "address"
        },
        {
          "indexed": false,
          "internalType": "uint256",
          "name": "prize",
          "type": "uint256"
        }
      ],
      "name": "LobbyCompleted",
      "type": "event"
    },
    {
      "anonymous": false,
      "inputs": [
        {
          "indexed": true,
          "internalType": "uint256",
          "name": "lobbyId",
          "type": "uint256"
        },
        {
          "indexed": false,
          "internalType": "string",
          "name": "name",
          "type": "string"
        },
        {
          "indexed": false,
          "internalType": "string",
          "name": "category",
          "type": "string"
        },
        {
          "indexed": false,
          "internalType": "uint256",
          "name": "entryFee",
          "type": "uint256"
        },
        {
          "indexed": false,
          "internalType": "uint256",
          "name": "maxPlayers",
          "type": "uint256"
        },
        {
          "indexed": false,
          "internalType": "address",
          "name": "creator",
          "type": "address"
        }
      ],
      "name": "LobbyCreated",
      "type": "event"
    },
    {
      "anonymous": false,
      "inputs": [
        {
          "indexed": true,
          "internalType": "address",
          "name": "previousOwner",
          "type": "address"
        },
        {
          "indexed": true,
          "internalType": "address",
          "name": "newOwner",
          "type": "address"
        }
      ],
      "name": "OwnershipTransferred",
      "type": "event"
    },
    {
      "anonymous": false,
      "inputs": [
        {
          "indexed": true,
          "internalType": "uint256",
          "name": "lobbyId",
          "type": "uint256"
        },
        {
          "indexed": false,
          "internalType": "address",
          "name": "player",
          "type": "address"
        }
      ],
      "name": "PlayerJoined",
      "type": "event"
    },
    {
      "anonymous": false,
      "inputs": [
        {
          "indexed": false,
          "internalType": "address",
          "name": "player",
          "type": "address"
        },
        {
          "indexed": false,
          "internalType": "uint256",
          "name": "amount",
          "type": "uint256"
        }
      ],
      "name": "RefundClaimed",
      "type": "event"
    },
    {
      "anonymous": false,
      "inputs": [
        {
          "indexed": true,
          "internalType": "uint256",
          "name": "lobbyId",
          "type": "uint256"
        },
        {
          "indexed": false,
          "internalType": "address[]",
          "name": "players",
          "type": "address[]"
        },
        {
          "indexed": false,
          "internalType": "uint256[]",
          "name": "scores",
          "type": "uint256[]"
        }
      ],
      "name": "ScoresSubmitted",
      "type": "event"
    },
    {
      "inputs": [],
      "name": "LOBBY_TIMEOUT",
      "outputs": [
        {
          "internalType": "uint256",
          "name": "",
          "type": "uint256"
        }
      ],
      "stateMutability": "view",
      "type": "function"
    },
    {
      "inputs": [
        {
          "internalType": "uint256",
          "name": "_lobbyId",
          "type": "uint256"
        }
      ],
      "name": "claimRefund",
      "outputs": [],
      "stateMutability": "nonpayable",
      "type": "function"
    },
    {
      "inputs": [
        {
          "internalType": "string",
          "name": "_name",
          "type": "string"
        },
        {
          "internalType": "string",
          "name": "_category",
          "type": "string"
        },
        {
          "internalType": "uint256",
          "name": "_entryFee",
          "type": "uint256"
        },
        {
          "internalType": "uint256",
          "name": "_maxPlayers",
          "type": "uint256"
        }
      ],
      "name": "createLobby",
      "outputs": [
        {
          "internalType": "uint256",
          "name": "",
          "type": "uint256"
        }
      ],
      "stateMutability": "nonpayable",
      "type": "function"
    },
    {
      "inputs": [],
      "name": "gameMaster",
      "outputs": [
        {
          "internalType": "address",
          "name": "",
          "type": "address"
        }
      ],
      "stateMutability": "view",
      "type": "function"
    },
    {
      "inputs": [
        {
          "internalType": "uint256",
          "name": "_lobbyId",
          "type": "uint256"
        }
      ],
      "name": "getAllScores",
      "outputs": [
        {
          "internalType": "address[]",
          "name": "players",
          "type": "address[]"
        },
        {
          "internalType": "uint256[]",
          "name": "scores",
          "type": "uint256[]"
        }
      ],
      "stateMutability": "view",
      "type": "function"
    },
    {
      "inputs": [
        {
          "internalType": "uint256",
          "name": "_lobbyId",
          "type": "uint256"
        }
      ],
      "name": "getLeaderboard",
      "outputs": [
        {
          "internalType": "address[]",
          "name": "",
          "type": "address[]"
        }
      ],
      "stateMutability": "view",
      "type": "function"
    },
    {
      "inputs": [
        {
          "internalType": "uint256",
          "name": "_lobbyId",
          "type": "uint256"
        },
        {
          "internalType": "address",
          "name": "_player",
          "type": "address"
        }
      ],
      "name": "getPlayerScore",
      "outputs": [
        {
          "internalType": "uint256",
          "name": "",
          "type": "uint256"
        }
      ],
      "stateMutability": "view",
      "type": "function"
    },
    {
      "inputs": [
        {
          "internalType": "uint256",
          "name": "_lobbyId",
          "type": "uint256"
        }
      ],
      "name": "getPlayersInLobby",
      "outputs": [
        {
          "internalType": "address[]",
          "name": "",
          "type": "address[]"
        }
      ],
      "stateMutability": "view",
      "type": "function"
    },
    {
      "inputs": [
        {
          "internalType": "uint256",
          "name": "_lobbyId",
          "type": "uint256"
        }
      ],
      "name": "isLeaderboardSet",
      "outputs": [
        {
          "internalType": "bool",
          "name": "",
          "type": "bool"
        }
      ],
      "stateMutability": "view",
      "type": "function"
    },
    {
      "inputs": [
        {
          "internalType": "uint256",
          "name": "_lobbyId",
          "type": "uint256"
        },
        {
          "internalType": "address",
          "name": "_player",
          "type": "address"
        }
      ],
      "name": "isPlayerInLobby",
      "outputs": [
        {
          "internalType": "bool",
          "name": "",
          "type": "bool"
        }
      ],
      "stateMutability": "view",
      "type": "function"
    },
    {
      "inputs": [
        {
          "internalType": "uint256",
          "name": "_lobbyId",
          "type": "uint256"
        }
      ],
      "name": "joinLobby",
      "outputs": [],
      "stateMutability": "payable",
      "type": "function"
    },
    {
      "inputs": [
        {
          "internalType": "uint256",
          "name": "",
          "type": "uint256"
        }
      ],
      "name": "leaderboardSet",
      "outputs": [
        {
          "internalType": "bool",
          "name": "",
          "type": "bool"
        }
      ],
      "stateMutability": "view",
      "type": "function"
    },
    {
      "inputs": [
        {
          "internalType": "uint256",
          "name": "",
          "type": "uint256"
        }
      ],
      "name": "lobbies",
      "outputs": [
        {
          "internalType": "uint256",
          "name": "id",
          "type": "uint256"
        },
        {
          "internalType": "string",
          "name": "name",
          "type": "string"
        },
        {
          "internalType": "string",
          "name": "category",
          "type": "string"
        },
        {
          "internalType": "uint256",
          "name": "entryFee",
          "type": "uint256"
        },
        {
          "internalType": "uint256",
          "name": "playerCount",
          "type": "uint256"
        },
        {
          "internalType": "uint256",
          "name": "maxPlayers",
          "type": "uint256"
        },
        {
          "internalType": "uint256",
          "name": "prizePool",
          "type": "uint256"
        },
        {
          "internalType": "uint256",
          "name": "createdAt",
          "type": "uint256"
        },
        {
          "internalType": "enum QuizCraftArena.LobbyStatus",
          "name": "status",
          "type": "uint8"
        },
        {
          "internalType": "address",
          "name": "winner",
          "type": "address"
        },
        {
          "internalType": "bool",
          "name": "prizeDistributed",
          "type": "bool"
        },
        {
          "internalType": "address",
          "name": "creator",
          "type": "address"
        }
      ],
      "stateMutability": "view",
      "type": "function"
    },
    {
      "inputs": [
        {
          "internalType": "uint256",
          "name": "",
          "type": "uint256"
        },
        {
          "internalType": "uint256",
          "name": "",
          "type": "uint256"
        }
      ],
      "name": "lobbyLeaderboard",
      "outputs": [
        {
          "internalType": "address",
          "name": "",
          "type": "address"
        }
      ],
      "stateMutability": "view",
      "type": "function"
    },
    {
      "inputs": [],
      "name": "nextLobbyId",
      "outputs": [
        {
          "internalType": "uint256",
          "name": "",
          "type": "uint256"
        }
      ],
      "stateMutability": "view",
      "type": "function"
    },
    {
      "inputs": [],
      "name": "owner",
      "outputs": [
        {
          "internalType": "address",
          "name": "",
          "type": "address"
        }
      ],
      "stateMutability": "view",
      "type": "function"
    },
    {
      "inputs": [
        {
          "internalType": "address",
          "name": "",
          "type": "address"
        }
      ],
      "name": "pendingReturns",
      "outputs": [
        {
          "internalType": "uint256",
          "name": "",
          "type": "uint256"
        }
      ],
      "stateMutability": "view",
      "type": "function"
    },
    {
      "inputs": [],
      "name": "platformFeeBps",
      "outputs": [
        {
          "internalType": "uint256",
          "name": "",
          "type": "uint256"
        }
      ],
      "stateMutability": "view",
      "type": "function"
    },
    {
      "inputs": [
        {
          "internalType": "uint256",
          "name": "",
          "type": "uint256"
        },
        {
          "internalType": "address",
          "name": "",
          "type": "address"
        }
      ],
      "name": "playerScores",
      "outputs": [
        {
          "internalType": "uint256",
          "name": "",
          "type": "uint256"
        }
      ],
      "stateMutability": "view",
      "type": "function"
    },
    {
      "inputs": [],
      "name": "renounceOwnership",
      "outputs": [],
      "stateMutability": "nonpayable",
      "type": "function"
    },
    {
      "inputs": [
        {
          "internalType": "uint256",
          "name": "_lobbyId",
          "type": "uint256"
        },
        {
          "internalType": "address",
          "name": "_winner",
          "type": "address"
        }
      ],
      "name": "resolveGame",
      "outputs": [],
      "stateMutability": "nonpayable",
      "type": "function"
    },
    {
      "inputs": [
        {
          "internalType": "uint256",
          "name": "_lobbyId",
          "type": "uint256"
        },
        {
          "internalType": "address[]",
          "name": "_leaderboard",
          "type": "address[]"
        }
      ],
      "name": "setLeaderboard",
      "outputs": [],
      "stateMutability": "nonpayable",
      "type": "function"
    },
    {
      "inputs": [
        {
          "internalType": "uint256",
          "name": "_lobbyId",
          "type": "uint256"
        },
        {
          "internalType": "address[]",
          "name": "_players",
          "type": "address[]"
        },
        {
          "internalType": "uint256[]",
          "name": "_scores",
          "type": "uint256[]"
        }
      ],
      "name": "submitScores",
      "outputs": [],
      "stateMutability": "nonpayable",
      "type": "function"
    },
    {
      "inputs": [
        {
          "internalType": "address",
          "name": "newOwner",
          "type": "address"
        }
      ],
      "name": "transferOwnership",
      "outputs": [],
      "stateMutability": "nonpayable",
      "type": "function"
    },
    {
      "inputs": [
        {
          "internalType": "address",
          "name": "_newGameMaster",
          "type": "address"
        }
      ],
      "name": "updateGameMaster",
      "outputs": [],
      "stateMutability": "nonpayable",
      "type": "function"
    },
    {
      "inputs": [
        {
          "internalType": "uint256",
          "name": "_newFeeBps",
          "type": "uint256"
        }
      ],
      "name": "updatePlatformFee",
      "outputs": [],
      "stateMutability": "nonpayable",
      "type": "function"
    },
    {
      "inputs": [
        {
          "internalType": "contract IERC20",
          "name": "_token",
          "type": "address"
        },
        {
          "internalType": "address",
          "name": "_to",
          "type": "address"
        }
      ],
      "name": "withdrawERC20",
      "outputs": [],
      "stateMutability": "nonpayable",
      "type": "function"
    },
    {
      "inputs": [],
      "name": "withdrawRefund",
      "outputs": [],
      "stateMutability": "nonpayable",
      "type": "function"
    },
    {
      "stateMutability": "payable",
      "type": "receive"
    }
  ],
  "bytecode": "0x60806040523480156200001157600080fd5b5060405162004bf738038062004bf78339818101604052810190620000379190620001bc565b60016000819055506200005f62000053620000ae60201b60201c565b620000b660201b60201c565b8060028190555033600360006101000a81548173ffffffffffffffffffffffffffffffffffffffff021916908373ffffffffffffffffffffffffffffffffffffffff16021790555050620001ee565b600033905090565b6000600160009054906101000a900473ffffffffffffffffffffffffffffffffffffffff16905081600160006101000a81548173ffffffffffffffffffffffffffffffffffffffff021916908373ffffffffffffffffffffffffffffffffffffffff1602179055508173ffffffffffffffffffffffffffffffffffffffff168173ffffffffffffffffffffffffffffffffffffffff167f8be0079c531659141344cd1fd0a4f28419497f9722a3daafe3b4186f6b6457e060405160405180910390a35050565b600080fd5b6000819050919050565b620001968162000181565b8114620001a257600080fd5b50565b600081519050620001b6816200018b565b92915050565b600060208284031215620001d557620001d46200017c565b5b6000620001e584828501620001a5565b91505092915050565b6149f980620001fe6000396000f3fe6080604052600436106101ba5760003560e01c80638da5cb5b116100ec578063c617b26a1161008a578063ded89efa11610064578063ded89efa146106b9578063e9173b3a146106e2578063f0f5fd12146106fe578063f2fde38b14610727576101fa565b8063c617b26a14610601578063c6c6707f1461063e578063d85cdcb61461067c576101fa565b8063a34b46fe116100c6578063a34b46fe14610545578063aa0b598814610582578063bdf84ae7146105ab578063c309b1e3146105d6576101fa565b80638da5cb5b146104c65780639456fbcc146104f1578063a16353bf1461051a576101fa565b80634ca18ae8116101595780636e8fb4c6116101335780636e8fb4c6146103ed578063715018a614610435578063729f767d1461044c578063869bb51b14610489576101fa565b80634ca18ae81461034a578063559ab8cc146103875780635b7baf64146103c4576101fa565b806322dcd13e1161019557806322dcd13e1461027c57806326b387bb146102a75780632a14ebb4146102e457806332d8f3fd14610321576101fa565b8062200e27146101ff578063110f88741461023c57806311ca230b14610253576101fa565b366101fa576040517f08c379a00000000000000000000000000000000000000000000000000000000081526004016101f190612c44565b60405180910390fd5b600080fd5b34801561020b57600080fd5b5061022660048036038101906102219190612d0c565b610750565b6040516102339190612d5b565b60405180910390f35b34801561024857600080fd5b50610251610775565b005b34801561025f57600080fd5b5061027a60048036038101906102759190612d0c565b61093a565b005b34801561028857600080fd5b50610291610daf565b60405161029e9190612d5b565b60405180910390f35b3480156102b357600080fd5b506102ce60048036038101906102c99190612d76565b610db5565b6040516102db9190612d5b565b60405180910390f35b3480156102f057600080fd5b5061030b60048036038101906103069190612ee9565b610dcd565b6040516103189190612d5b565b60405180910390f35b34801561032d57600080fd5b5061034860048036038101906103439190612d76565b611065565b005b34801561035657600080fd5b50610371600480360381019061036c9190612f88565b611158565b60405161037e9190612fd0565b60405180910390f35b34801561039357600080fd5b506103ae60048036038101906103a99190612d0c565b6111c8565b6040516103bb9190612fd0565b60405180910390f35b3480156103d057600080fd5b506103eb60048036038101906103e69190612f88565b6112d8565b005b3480156103f957600080fd5b50610414600480360381019061040f9190612f88565b611593565b60405161042c9c9b9a999897969594939291906130e8565b60405180910390f35b34801561044157600080fd5b5061044a61175d565b005b34801561045857600080fd5b50610473600480360381019061046e9190612f88565b611771565b6040516104809190612fd0565b60405180910390f35b34801561049557600080fd5b506104b060048036038101906104ab91906131b0565b611791565b6040516104bd91906131f0565b60405180910390f35b3480156104d257600080fd5b506104db6117df565b6040516104e891906131f0565b60405180910390f35b3480156104fd57600080fd5b5061051860048036038101906105139190613249565b611809565b005b34801561052657600080fd5b5061052f611956565b60405161053c9190612d5b565b60405180910390f35b34801561055157600080fd5b5061056c60048036038101906105679190612f88565b61195c565b6040516105799190613347565b60405180910390f35b34801561058e57600080fd5b506105a960048036038101906105a49190612f88565b611a43565b005b3480156105b757600080fd5b506105c0611ad1565b6040516105cd91906131f0565b60405180910390f35b3480156105e257600080fd5b506105eb611af7565b6040516105f89190612d5b565b60405180910390f35b34801561060d57600080fd5b5061062860048036038101906106239190612d0c565b611afd565b6040516106359190612d5b565b60405180910390f35b34801561064a57600080fd5b5061066560048036038101906106609190612f88565b611b9e565b604051610673929190613427565b60405180910390f35b34801561068857600080fd5b506106a3600480360381019061069e9190612f88565b611e0c565b6040516106b09190613347565b60405180910390f35b3480156106c557600080fd5b506106e060048036038101906106db9190613526565b611ef6565b005b6106fc60048036038101906106f79190612f88565b6121f9565b005b34801561070a57600080fd5b5061072560048036038101906107209190613645565b6124f1565b005b34801561073357600080fd5b5061074e60048036038101906107499190612d76565b612890565b005b6006602052816000526040600020602052806000526040600020600091509150505481565b61077d612914565b6000600560003373ffffffffffffffffffffffffffffffffffffffff1673ffffffffffffffffffffffffffffffffffffffff16815260200190815260200160002054905060008111610804576040517f08c379a00000000000000000000000000000000000000000000000000000000081526004016107fb9061371c565b60405180910390fd5b6000600560003373ffffffffffffffffffffffffffffffffffffffff1673ffffffffffffffffffffffffffffffffffffffff1681526020019081526020016000208190555060003373ffffffffffffffffffffffffffffffffffffffff168260405161086f9061376d565b60006040518083038185875af1925050503d80600081146108ac576040519150601f19603f3d011682016040523d82523d6000602084013e6108b1565b606091505b50509050806108f5576040517f08c379a00000000000000000000000000000000000000000000000000000000081526004016108ec906137ce565b60405180910390fd5b7f358fe4192934d3bf28ae181feda1f4bd08ca67f5e2fad55582cce5eb67304ae933836040516109269291906137ee565b60405180910390a15050610938612964565b565b610942612914565b600360009054906101000a900473ffffffffffffffffffffffffffffffffffffffff1673ffffffffffffffffffffffffffffffffffffffff163373ffffffffffffffffffffffffffffffffffffffff16146109d2576040517f08c379a00000000000000000000000000000000000000000000000000000000081526004016109c990613863565b60405180910390fd5b816009548110610a17576040517f08c379a0000000000000000000000000000000000000000000000000000000008152600401610a0e906138cf565b60405180910390fd5b600060046000858152602001908152602001600020905060016004811115610a4257610a41613062565b5b8160080160009054906101000a900460ff166004811115610a6657610a65613062565b5b14610aa6576040517f08c379a0000000000000000000000000000000000000000000000000000000008152600401610a9d9061393b565b60405180910390fd5b610ab084846111c8565b610aef576040517f08c379a0000000000000000000000000000000000000000000000000000000008152600401610ae6906139cd565b60405180910390fd5b80600a0160149054906101000a900460ff1615610b41576040517f08c379a0000000000000000000000000000000000000000000000000000000008152600401610b3890613a39565b60405180910390fd5b60038160080160006101000a81548160ff02191690836004811115610b6957610b68613062565b5b02179055508281600a0160006101000a81548173ffffffffffffffffffffffffffffffffffffffff021916908373ffffffffffffffffffffffffffffffffffffffff160217905550600181600a0160146101000a81548160ff02191690831515021790555060006127106002548360060154610be59190613a88565b610bef9190613b11565b90506000818360060154610c039190613b42565b905060008573ffffffffffffffffffffffffffffffffffffffff1682604051610c2b9061376d565b60006040518083038185875af1925050503d8060008114610c68576040519150601f19603f3d011682016040523d82523d6000602084013e610c6d565b606091505b5050905080610cb1576040517f08c379a0000000000000000000000000000000000000000000000000000000008152600401610ca890613bc2565b60405180910390fd5b610cb96117df565b73ffffffffffffffffffffffffffffffffffffffff1683604051610cdc9061376d565b60006040518083038185875af1925050503d8060008114610d19576040519150601f19603f3d011682016040523d82523d6000602084013e610d1e565b606091505b50508091505080610d64576040517f08c379a0000000000000000000000000000000000000000000000000000000008152600401610d5b90613c2e565b60405180910390fd5b867f5d36374a8d1a6cae8e46381aea50cae98b85e5ede9e10916d26179527900e5208784604051610d969291906137ee565b60405180910390a25050505050610dab612964565b5050565b60025481565b60056020528060005260406000206000915090505481565b600080855111610e12576040517f08c379a0000000000000000000000000000000000000000000000000000000008152600401610e0990613c9a565b60405180910390fd5b6000845111610e56576040517f08c379a0000000000000000000000000000000000000000000000000000000008152600401610e4d90613d06565b60405180910390fd5b60008311610e99576040517f08c379a0000000000000000000000000000000000000000000000000000000008152600401610e9090613d72565b60405180910390fd5b60018211610edc576040517f08c379a0000000000000000000000000000000000000000000000000000000008152600401610ed390613dde565b60405180910390fd5b600a821115610f20576040517f08c379a0000000000000000000000000000000000000000000000000000000008152600401610f1790613e4a565b60405180910390fd5b600060096000815480929190610f3590613e6a565b919050559050600060046000838152602001908152602001600020905081816000018190555086816001019080519060200190610f73929190612aba565b5085816002019080519060200190610f8c929190612aba565b5084816003018190555083816005018190555042816007018190555060008160080160006101000a81548160ff02191690836004811115610fd057610fcf613062565b5b02179055503381600b0160006101000a81548173ffffffffffffffffffffffffffffffffffffffff021916908373ffffffffffffffffffffffffffffffffffffffff160217905550817f0e2b64f820c6349ce53d20faa9c7eba7858ae3c3ea29cc7fbf30c50fffcf31708888888833604051611050959493929190613eb3565b60405180910390a28192505050949350505050565b61106d61296e565b600073ffffffffffffffffffffffffffffffffffffffff168173ffffffffffffffffffffffffffffffffffffffff1614156110dd576040517f08c379a00000000000000000000000000000000000000000000000000000000081526004016110d490613f60565b60405180910390fd5b80600360006101000a81548173ffffffffffffffffffffffffffffffffffffffff021916908373ffffffffffffffffffffffffffffffffffffffff1602179055507f4d58a68626659612199a8c82ba65a98101440af3ee23fc6179ecb588450125638160405161114d91906131f0565b60405180910390a150565b600081600954811061119f576040517f08c379a0000000000000000000000000000000000000000000000000000000008152600401611196906138cf565b60405180910390fd5b6008600084815260200190815260200160002060009054906101000a900460ff16915050919050565b600082600954811061120f576040517f08c379a0000000000000000000000000000000000000000000000000000000008152600401611206906138cf565b60405180910390fd5b600060046000868152602001908152602001600020905060005b81600901805490508110156112ca578473ffffffffffffffffffffffffffffffffffffffff1682600901828154811061126557611264613f80565b5b9060005260206000200160009054906101000a900473ffffffffffffffffffffffffffffffffffffffff1673ffffffffffffffffffffffffffffffffffffffff1614156112b7576001935050506112d1565b80806112c290613e6a565b915050611229565b5060009250505b5092915050565b80600954811061131d576040517f08c379a0000000000000000000000000000000000000000000000000000000008152600401611314906138cf565b60405180910390fd5b60006004600084815260200190815260200160002090506000600481111561134857611347613062565b5b8160080160009054906101000a900460ff16600481111561136c5761136b613062565b5b14806113ad57506001600481111561138757611386613062565b5b8160080160009054906101000a900460ff1660048111156113ab576113aa613062565b5b145b6113ec576040517f08c379a00000000000000000000000000000000000000000000000000000000081526004016113e390613ffb565b60405180910390fd5b61012c81600701546113fe919061401b565b421161143f576040517f08c379a0000000000000000000000000000000000000000000000000000000008152600401611436906140bd565b60405180910390fd5b61144983336111c8565b611488576040517f08c379a000000000000000000000000000000000000000000000000000000000815260040161147f90614129565b60405180910390fd5b80600a0160149054906101000a900460ff16156114da576040517f08c379a00000000000000000000000000000000000000000000000000000000081526004016114d190614195565b60405180910390fd5b60048160080160006101000a81548160ff0219169083600481111561150257611501613062565b5b02179055508060030154600560003373ffffffffffffffffffffffffffffffffffffffff1673ffffffffffffffffffffffffffffffffffffffff168152602001908152602001600020600082825461155a919061401b565b92505081905550827f77c76c657e315ec4202d02d6b866770c4edbabe032e6c201ca6d18859c470a3760405160405180910390a2505050565b60046020528060005260406000206000915090508060000154908060010180546115bc906141e4565b80601f01602080910402602001604051908101604052809291908181526020018280546115e8906141e4565b80156116355780601f1061160a57610100808354040283529160200191611635565b820191906000526020600020905b81548152906001019060200180831161161857829003601f168201915b50505050509080600201805461164a906141e4565b80601f0160208091040260200160405190810160405280929190818152602001828054611676906141e4565b80156116c35780601f10611698576101008083540402835291602001916116c3565b820191906000526020600020905b8154815290600101906020018083116116a657829003601f168201915b5050505050908060030154908060040154908060050154908060060154908060070154908060080160009054906101000a900460ff169080600a0160009054906101000a900473ffffffffffffffffffffffffffffffffffffffff169080600a0160149054906101000a900460ff169080600b0160009054906101000a900473ffffffffffffffffffffffffffffffffffffffff1690508c565b61176561296e565b61176f60006129ec565b565b60086020528060005260406000206000915054906101000a900460ff1681565b600760205281600052604060002081815481106117ad57600080fd5b906000526020600020016000915091509054906101000a900473ffffffffffffffffffffffffffffffffffffffff1681565b6000600160009054906101000a900473ffffffffffffffffffffffffffffffffffffffff16905090565b61181161296e565b60008273ffffffffffffffffffffffffffffffffffffffff166370a08231306040518263ffffffff1660e01b815260040161184c91906131f0565b602060405180830381865afa158015611869573d6000803e3d6000fd5b505050506040513d601f19601f8201168201806040525081019061188d919061422b565b9050600081116118d2576040517f08c379a00000000000000000000000000000000000000000000000000000000081526004016118c9906142a4565b60405180910390fd5b8273ffffffffffffffffffffffffffffffffffffffff1663a9059cbb83836040518363ffffffff1660e01b815260040161190d9291906137ee565b6020604051808303816000875af115801561192c573d6000803e3d6000fd5b505050506040513d601f19601f8201168201806040525081019061195091906142f0565b50505050565b61012c81565b60608160095481106119a3576040517f08c379a000000000000000000000000000000000000000000000000000000000815260040161199a906138cf565b60405180910390fd5b60076000848152602001908152602001600020805480602002602001604051908101604052809291908181526020018280548015611a3657602002820191906000526020600020905b8160009054906101000a900473ffffffffffffffffffffffffffffffffffffffff1673ffffffffffffffffffffffffffffffffffffffff16815260200190600101908083116119ec575b5050505050915050919050565b611a4b61296e565b6103e8811115611a90576040517f08c379a0000000000000000000000000000000000000000000000000000000008152600401611a8790614369565b60405180910390fd5b806002819055507f8c4d35e54a3f2ef1134138fd8ea3daee6a3c89e10d2665996babdf70261e2c7681604051611ac69190612d5b565b60405180910390a150565b600360009054906101000a900473ffffffffffffffffffffffffffffffffffffffff1681565b60095481565b6000826009548110611b44576040517f08c379a0000000000000000000000000000000000000000000000000000000008152600401611b3b906138cf565b60405180910390fd5b6006600085815260200190815260200160002060008473ffffffffffffffffffffffffffffffffffffffff1673ffffffffffffffffffffffffffffffffffffffff1681526020019081526020016000205491505092915050565b606080826009548110611be6576040517f08c379a0000000000000000000000000000000000000000000000000000000008152600401611bdd906138cf565b60405180910390fd5b6000600460008681526020019081526020016000209050806009018054905067ffffffffffffffff811115611c1e57611c1d612dbe565b5b604051908082528060200260200182016040528015611c4c5781602001602082028036833780820191505090505b509350806009018054905067ffffffffffffffff811115611c7057611c6f612dbe565b5b604051908082528060200260200182016040528015611c9e5781602001602082028036833780820191505090505b50925060005b8160090180549050811015611e0457816009018181548110611cc957611cc8613f80565b5b9060005260206000200160009054906101000a900473ffffffffffffffffffffffffffffffffffffffff16858281518110611d0757611d06613f80565b5b602002602001019073ffffffffffffffffffffffffffffffffffffffff16908173ffffffffffffffffffffffffffffffffffffffff1681525050600660008781526020019081526020016000206000836009018381548110611d6c57611d6b613f80565b5b9060005260206000200160009054906101000a900473ffffffffffffffffffffffffffffffffffffffff1673ffffffffffffffffffffffffffffffffffffffff1673ffffffffffffffffffffffffffffffffffffffff16815260200190815260200160002054848281518110611de557611de4613f80565b5b6020026020010181815250508080611dfc90613e6a565b915050611ca4565b505050915091565b6060816009548110611e53576040517f08c379a0000000000000000000000000000000000000000000000000000000008152600401611e4a906138cf565b60405180910390fd5b60046000848152602001908152602001600020600901805480602002602001604051908101604052809291908181526020018280548015611ee957602002820191906000526020600020905b8160009054906101000a900473ffffffffffffffffffffffffffffffffffffffff1673ffffffffffffffffffffffffffffffffffffffff1681526020019060010190808311611e9f575b5050505050915050919050565b600360009054906101000a900473ffffffffffffffffffffffffffffffffffffffff1673ffffffffffffffffffffffffffffffffffffffff163373ffffffffffffffffffffffffffffffffffffffff1614611f86576040517f08c379a0000000000000000000000000000000000000000000000000000000008152600401611f7d90613863565b60405180910390fd5b816009548110611fcb576040517f08c379a0000000000000000000000000000000000000000000000000000000008152600401611fc2906138cf565b60405180910390fd5b600060046000858152602001908152602001600020905060016004811115611ff657611ff5613062565b5b8160080160009054906101000a900460ff16600481111561201a57612019613062565b5b148061205b57506002600481111561203557612034613062565b5b8160080160009054906101000a900460ff16600481111561205957612058613062565b5b145b61209a576040517f08c379a0000000000000000000000000000000000000000000000000000000008152600401612091906143d5565b60405180910390fd5b80600901805490508351146120e4576040517f08c379a00000000000000000000000000000000000000000000000000000000081526004016120db90614467565b60405180910390fd5b60005b8351811015612166576121148585838151811061210757612106613f80565b5b60200260200101516111c8565b612153576040517f08c379a000000000000000000000000000000000000000000000000000000000815260040161214a906144d3565b60405180910390fd5b808061215e90613e6a565b9150506120e7565b508260076000868152602001908152602001600020908051906020019061218e929190612b40565b5060016008600086815260200190815260200160002060006101000a81548160ff021916908315150217905550837f97b414e0af93eb7f7c9e725871861fbad880d37b00aaec8edd8335c56604a130846040516121eb9190613347565b60405180910390a250505050565b612201612914565b806009548110612246576040517f08c379a000000000000000000000000000000000000000000000000000000000815260040161223d906138cf565b60405180910390fd5b81600080600481111561225c5761225b613062565b5b6004600084815260200190815260200160002060080160009054906101000a900460ff16600481111561229257612291613062565b5b146122d2576040517f08c379a00000000000000000000000000000000000000000000000000000000081526004016122c990614565565b60405180910390fd5b60006004600086815260200190815260200160002090508060030154341461232f576040517f08c379a0000000000000000000000000000000000000000000000000000000008152600401612326906145d1565b60405180910390fd5b806005015481600901805490501061237c576040517f08c379a00000000000000000000000000000000000000000000000000000000081526004016123739061463d565b60405180910390fd5b61238685336111c8565b156123c6576040517f08c379a00000000000000000000000000000000000000000000000000000000081526004016123bd906146a9565b60405180910390fd5b80600901339080600181540180825580915050600190039060005260206000200160009091909190916101000a81548173ffffffffffffffffffffffffffffffffffffffff021916908373ffffffffffffffffffffffffffffffffffffffff16021790555080600401600081548092919061244090613e6a565b919050555034816006016000828254612459919061401b565b92505081905550847f87969bc7faf902221a147b95ceba76e011c5efb0339a0a8ee7a2bb82d9cfbbd63360405161249091906131f0565b60405180910390a28060050154816009018054905014156124e25760018160080160006101000a81548160ff021916908360048111156124d3576124d2613062565b5b02179055504281600701819055505b505050506124ee612964565b50565b600360009054906101000a900473ffffffffffffffffffffffffffffffffffffffff1673ffffffffffffffffffffffffffffffffffffffff163373ffffffffffffffffffffffffffffffffffffffff1614612581576040517f08c379a000000000000000000000000000000000000000000000000000000000815260040161257890613863565b60405180910390fd5b8260095481106125c6576040517f08c379a00000000000000000000000000000000000000000000000000000000081526004016125bd906138cf565b60405180910390fd5b6000600460008681526020019081526020016000209050600160048111156125f1576125f0613062565b5b8160080160009054906101000a900460ff16600481111561261557612614613062565b5b14806126565750600260048111156126305761262f613062565b5b8160080160009054906101000a900460ff16600481111561265457612653613062565b5b145b612695576040517f08c379a000000000000000000000000000000000000000000000000000000000815260040161268c90614715565b60405180910390fd5b82518451146126d9576040517f08c379a00000000000000000000000000000000000000000000000000000000081526004016126d0906147a7565b60405180910390fd5b8060090180549050845114612723576040517f08c379a000000000000000000000000000000000000000000000000000000000815260040161271a90614839565b60405180910390fd5b60005b84518110156127a5576127538686838151811061274657612745613f80565b5b60200260200101516111c8565b612792576040517f08c379a0000000000000000000000000000000000000000000000000000000008152600401612789906144d3565b60405180910390fd5b808061279d90613e6a565b915050612726565b5060005b845181101561284e578381815181106127c5576127c4613f80565b5b60200260200101516006600088815260200190815260200160002060008784815181106127f5576127f4613f80565b5b602002602001015173ffffffffffffffffffffffffffffffffffffffff1673ffffffffffffffffffffffffffffffffffffffff16815260200190815260200160002081905550808061284690613e6a565b9150506127a9565b50847f1ef51da2c007f6bfcf64d8fcc9f4c25277f681fda0c3838e9fb910794bc39fb28585604051612881929190613427565b60405180910390a25050505050565b61289861296e565b600073ffffffffffffffffffffffffffffffffffffffff168173ffffffffffffffffffffffffffffffffffffffff161415612908576040517f08c379a00000000000000000000000000000000000000000000000000000000081526004016128ff906148cb565b60405180910390fd5b612911816129ec565b50565b6002600054141561295a576040517f08c379a000000000000000000000000000000000000000000000000000000000815260040161295190614937565b60405180910390fd5b6002600081905550565b6001600081905550565b612976612ab2565b73ffffffffffffffffffffffffffffffffffffffff166129946117df565b73ffffffffffffffffffffffffffffffffffffffff16146129ea576040517f08c379a00000000000000000000000000000000000000000000000000000000081526004016129e1906149a3565b60405180910390fd5b565b6000600160009054906101000a900473ffffffffffffffffffffffffffffffffffffffff16905081600160006101000a81548173ffffffffffffffffffffffffffffffffffffffff021916908373ffffffffffffffffffffffffffffffffffffffff1602179055508173ffffffffffffffffffffffffffffffffffffffff168173ffffffffffffffffffffffffffffffffffffffff167f8be0079c531659141344cd1fd0a4f28419497f9722a3daafe3b4186f6b6457e060405160405180910390a35050565b600033905090565b828054612ac6906141e4565b90600052602060002090601f016020900481019282612ae85760008555612b2f565b82601f10612b0157805160ff1916838001178555612b2f565b82800160010185558215612b2f579182015b82811115612b2e578251825591602001919060010190612b13565b5b509050612b3c9190612bca565b5090565b828054828255906000526020600020908101928215612bb9579160200282015b82811115612bb85782518260006101000a81548173ffffffffffffffffffffffffffffffffffffffff021916908373ffffffffffffffffffffffffffffffffffffffff16021790555091602001919060010190612b60565b5b509050612bc69190612bca565b5090565b5b80821115612be3576000816000905550600101612bcb565b5090565b600082825260208201905092915050565b7f446f206e6f742073656e6420455448206469726563746c790000000000000000600082015250565b6000612c2e601883612be7565b9150612c3982612bf8565b602082019050919050565b60006020820190508181036000830152612c5d81612c21565b9050919050565b6000604051905090565b600080fd5b600080fd5b6000819050919050565b612c8b81612c78565b8114612c9657600080fd5b50565b600081359050612ca881612c82565b92915050565b600073ffffffffffffffffffffffffffffffffffffffff82169050919050565b6000612cd982612cae565b9050919050565b612ce981612cce565b8114612cf457600080fd5b50565b600081359050612d0681612ce0565b92915050565b60008060408385031215612d2357612d22612c6e565b5b6000612d3185828601612c99565b9250506020612d4285828601612cf7565b9150509250929050565b612d5581612c78565b82525050565b6000602082019050612d706000830184612d4c565b92915050565b600060208284031215612d8c57612d8b612c6e565b5b6000612d9a84828501612cf7565b91505092915050565b600080fd5b600080fd5b6000601f19601f8301169050919050565b7f4e487b7100000000000000000000000000000000000000000000000000000000600052604160045260246000fd5b612df682612dad565b810181811067ffffffffffffffff82111715612e1557612e14612dbe565b5b80604052505050565b6000612e28612c64565b9050612e348282612ded565b919050565b600067ffffffffffffffff821115612e5457612e53612dbe565b5b612e5d82612dad565b9050602081019050919050565b82818337600083830152505050565b6000612e8c612e8784612e39565b612e1e565b905082815260208101848484011115612ea857612ea7612da8565b5b612eb3848285612e6a565b509392505050565b600082601f830112612ed057612ecf612da3565b5b8135612ee0848260208601612e79565b91505092915050565b60008060008060808587031215612f0357612f02612c6e565b5b600085013567ffffffffffffffff811115612f2157612f20612c73565b5b612f2d87828801612ebb565b945050602085013567ffffffffffffffff811115612f4e57612f4d612c73565b5b612f5a87828801612ebb565b9350506040612f6b87828801612c99565b9250506060612f7c87828801612c99565b91505092959194509250565b600060208284031215612f9e57612f9d612c6e565b5b6000612fac84828501612c99565b91505092915050565b60008115159050919050565b612fca81612fb5565b82525050565b6000602082019050612fe56000830184612fc1565b92915050565b600081519050919050565b60005b83811015613014578082015181840152602081019050612ff9565b83811115613023576000848401525b50505050565b600061303482612feb565b61303e8185612be7565b935061304e818560208601612ff6565b61305781612dad565b840191505092915050565b7f4e487b7100000000000000000000000000000000000000000000000000000000600052602160045260246000fd5b600581106130a2576130a1613062565b5b50565b60008190506130b382613091565b919050565b60006130c3826130a5565b9050919050565b6130d3816130b8565b82525050565b6130e281612cce565b82525050565b6000610180820190506130fe600083018f612d4c565b8181036020830152613110818e613029565b90508181036040830152613124818d613029565b9050613133606083018c612d4c565b613140608083018b612d4c565b61314d60a083018a612d4c565b61315a60c0830189612d4c565b61316760e0830188612d4c565b6131756101008301876130ca565b6131836101208301866130d9565b613191610140830185612fc1565b61319f6101608301846130d9565b9d9c50505050505050505050505050565b600080604083850312156131c7576131c6612c6e565b5b60006131d585828601612c99565b92505060206131e685828601612c99565b9150509250929050565b600060208201905061320560008301846130d9565b92915050565b600061321682612cce565b9050919050565b6132268161320b565b811461323157600080fd5b50565b6000813590506132438161321d565b92915050565b600080604083850312156132605761325f612c6e565b5b600061326e85828601613234565b925050602061327f85828601612cf7565b9150509250929050565b600081519050919050565b600082825260208201905092915050565b6000819050602082019050919050565b6132be81612cce565b82525050565b60006132d083836132b5565b60208301905092915050565b6000602082019050919050565b60006132f482613289565b6132fe8185613294565b9350613309836132a5565b8060005b8381101561333a57815161332188826132c4565b975061332c836132dc565b92505060018101905061330d565b5085935050505092915050565b6000602082019050818103600083015261336181846132e9565b905092915050565b600081519050919050565b600082825260208201905092915050565b6000819050602082019050919050565b61339e81612c78565b82525050565b60006133b08383613395565b60208301905092915050565b6000602082019050919050565b60006133d482613369565b6133de8185613374565b93506133e983613385565b8060005b8381101561341a57815161340188826133a4565b975061340c836133bc565b9250506001810190506133ed565b5085935050505092915050565b6000604082019050818103600083015261344181856132e9565b9050818103602083015261345581846133c9565b90509392505050565b600067ffffffffffffffff82111561347957613478612dbe565b5b602082029050602081019050919050565b600080fd5b60006134a261349d8461345e565b612e1e565b905080838252602082019050602084028301858111156134c5576134c461348a565b5b835b818110156134ee57806134da8882612cf7565b8452602084019350506020810190506134c7565b5050509392505050565b600082601f83011261350d5761350c612da3565b5b813561351d84826020860161348f565b91505092915050565b6000806040838503121561353d5761353c612c6e565b5b600061354b85828601612c99565b925050602083013567ffffffffffffffff81111561356c5761356b612c73565b5b613578858286016134f8565b9150509250929050565b600067ffffffffffffffff82111561359d5761359c612dbe565b5b602082029050602081019050919050565b60006135c16135bc84613582565b612e1e565b905080838252602082019050602084028301858111156135e4576135e361348a565b5b835b8181101561360d57806135f98882612c99565b8452602084019350506020810190506135e6565b5050509392505050565b600082601f83011261362c5761362b612da3565b5b813561363c8482602086016135ae565b91505092915050565b60008060006060848603121561365e5761365d612c6e565b5b600061366c86828701612c99565b935050602084013567ffffffffffffffff81111561368d5761368c612c73565b5b613699868287016134f8565b925050604084013567ffffffffffffffff8111156136ba576136b9612c73565b5b6136c686828701613617565b9150509250925092565b7f4e6f2066756e647320746f207769746864726177000000000000000000000000600082015250565b6000613706601483612be7565b9150613711826136d0565b602082019050919050565b60006020820190508181036000830152613735816136f9565b9050919050565b600081905092915050565b50565b600061375760008361373c565b915061376282613747565b600082019050919050565b60006137788261374a565b9150819050919050565b7f526566756e64207472616e73666572206661696c656400000000000000000000600082015250565b60006137b8601683612be7565b91506137c382613782565b602082019050919050565b600060208201905081810360008301526137e7816137ab565b9050919050565b600060408201905061380360008301856130d9565b6138106020830184612d4c565b9392505050565b7f43616c6c6572206973206e6f74207468652047616d654d617374657200000000600082015250565b600061384d601c83612be7565b915061385882613817565b602082019050919050565b6000602082019050818103600083015261387c81613840565b9050919050565b7f4c6f62627920646f6573206e6f74206578697374000000000000000000000000600082015250565b60006138b9601483612be7565b91506138c482613883565b602082019050919050565b600060208201905081810360008301526138e8816138ac565b9050919050565b7f4c6f626279206e6f7420726561647920746f207265736f6c7665000000000000600082015250565b6000613925601a83612be7565b9150613930826138ef565b602082019050919050565b6000602082019050818103600083015261395481613918565b9050919050565b7f57696e6e6572206973206e6f74206120706c6179657220696e2074686973206c60008201527f6f62627900000000000000000000000000000000000000000000000000000000602082015250565b60006139b7602483612be7565b91506139c28261395b565b604082019050919050565b600060208201905081810360008301526139e6816139aa565b9050919050565b7f5072697a6520616c726561647920646973747269627574656400000000000000600082015250565b6000613a23601983612be7565b9150613a2e826139ed565b602082019050919050565b60006020820190508181036000830152613a5281613a16565b9050919050565b7f4e487b7100000000000000000000000000000000000000000000000000000000600052601160045260246000fd5b6000613a9382612c78565b9150613a9e83612c78565b9250817fffffffffffffffffffffffffffffffffffffffffffffffffffffffffffffffff0483118215151615613ad757613ad6613a59565b5b828202905092915050565b7f4e487b7100000000000000000000000000000000000000000000000000000000600052601260045260246000fd5b6000613b1c82612c78565b9150613b2783612c78565b925082613b3757613b36613ae2565b5b828204905092915050565b6000613b4d82612c78565b9150613b5883612c78565b925082821015613b6b57613b6a613a59565b5b828203905092915050565b7f5472616e7366657220746f2077696e6e6572206661696c656400000000000000600082015250565b6000613bac601983612be7565b9150613bb782613b76565b602082019050919050565b60006020820190508181036000830152613bdb81613b9f565b9050919050565b7f5472616e73666572206f6620666565206661696c656400000000000000000000600082015250565b6000613c18601683612be7565b9150613c2382613be2565b602082019050919050565b60006020820190508181036000830152613c4781613c0b565b9050919050565b7f4c6f626279206e616d652063616e6e6f7420626520656d707479000000000000600082015250565b6000613c84601a83612be7565b9150613c8f82613c4e565b602082019050919050565b60006020820190508181036000830152613cb381613c77565b9050919050565b7f43617465676f72792063616e6e6f7420626520656d7074790000000000000000600082015250565b6000613cf0601883612be7565b9150613cfb82613cba565b602082019050919050565b60006020820190508181036000830152613d1f81613ce3565b9050919050565b7f456e74727920666565206d7573742062652067726561746572207468616e2030600082015250565b6000613d5c602083612be7565b9150613d6782613d26565b602082019050919050565b60006020820190508181036000830152613d8b81613d4f565b9050919050565b7f4d617820706c6179657273206d757374206265206174206c6561737420320000600082015250565b6000613dc8601e83612be7565b9150613dd382613d92565b602082019050919050565b60006020820190508181036000830152613df781613dbb565b9050919050565b7f4d617820706c61796572732063616e6e6f742065786365656420313000000000600082015250565b6000613e34601c83612be7565b9150613e3f82613dfe565b602082019050919050565b60006020820190508181036000830152613e6381613e27565b9050919050565b6000613e7582612c78565b91507fffffffffffffffffffffffffffffffffffffffffffffffffffffffffffffffff821415613ea857613ea7613a59565b5b600182019050919050565b600060a0820190508181036000830152613ecd8188613029565b90508181036020830152613ee18187613029565b9050613ef06040830186612d4c565b613efd6060830185612d4c565b613f0a60808301846130d9565b9695505050505050565b7f496e76616c69642047616d654d61737465722061646472657373000000000000600082015250565b6000613f4a601a83612be7565b9150613f5582613f14565b602082019050919050565b60006020820190508181036000830152613f7981613f3d565b9050919050565b7f4e487b7100000000000000000000000000000000000000000000000000000000600052603260045260246000fd5b7f4e6f7420726566756e6461626c65000000000000000000000000000000000000600082015250565b6000613fe5600e83612be7565b9150613ff082613faf565b602082019050919050565b6000602082019050818103600083015261401481613fd8565b9050919050565b600061402682612c78565b915061403183612c78565b9250827fffffffffffffffffffffffffffffffffffffffffffffffffffffffffffffffff0382111561406657614065613a59565b5b828201905092915050565b7f4c6f626279206e6f742079657420657870697265640000000000000000000000600082015250565b60006140a7601583612be7565b91506140b282614071565b602082019050919050565b600060208201905081810360008301526140d68161409a565b9050919050565b7f4e6f74206120706c6179657220696e2074686973206c6f626279000000000000600082015250565b6000614113601a83612be7565b915061411e826140dd565b602082019050919050565b6000602082019050818103600083015261414281614106565b9050919050565b7f5072697a6520616c72656164792068616e646c65640000000000000000000000600082015250565b600061417f601583612be7565b915061418a82614149565b602082019050919050565b600060208201905081810360008301526141ae81614172565b9050919050565b7f4e487b7100000000000000000000000000000000000000000000000000000000600052602260045260246000fd5b600060028204905060018216806141fc57607f821691505b602082108114156142105761420f6141b5565b5b50919050565b60008151905061422581612c82565b92915050565b60006020828403121561424157614240612c6e565b5b600061424f84828501614216565b91505092915050565b7f4e6f20746f6b656e7320746f2077697468647261770000000000000000000000600082015250565b600061428e601583612be7565b915061429982614258565b602082019050919050565b600060208201905081810360008301526142bd81614281565b9050919050565b6142cd81612fb5565b81146142d857600080fd5b50565b6000815190506142ea816142c4565b92915050565b60006020828403121561430657614305612c6e565b5b6000614314848285016142db565b91505092915050565b7f4665652063616e6e6f7420657863656564203130250000000000000000000000600082015250565b6000614353601583612be7565b915061435e8261431d565b602082019050919050565b6000602082019050818103600083015261438281614346565b9050919050565b7f4c6f626279206e6f7420726561647920666f72206c6561646572626f61726400600082015250565b60006143bf601f83612be7565b91506143ca82614389565b602082019050919050565b600060208201905081810360008301526143ee816143b2565b9050919050565b7f4c6561646572626f617264206d75737420696e636c75646520616c6c20706c6160008201527f7965727300000000000000000000000000000000000000000000000000000000602082015250565b6000614451602483612be7565b915061445c826143f5565b604082019050919050565b6000602082019050818103600083015261448081614444565b9050919050565b7f506c61796572206e6f7420696e206c6f62627900000000000000000000000000600082015250565b60006144bd601383612be7565b91506144c882614487565b602082019050919050565b600060208201905081810360008301526144ec816144b0565b9050919050565b7f4c6f626279206973206e6f7420696e2074686520636f7272656374207374617460008201527f7573000000000000000000000000000000000000000000000000000000000000602082015250565b600061454f602283612be7565b915061455a826144f3565b604082019050919050565b6000602082019050818103600083015261457e81614542565b9050919050565b7f496e636f727265637420656e747279206665652073656e740000000000000000600082015250565b60006145bb601883612be7565b91506145c682614585565b602082019050919050565b600060208201905081810360008301526145ea816145ae565b9050919050565b7f4c6f6262792069732066756c6c00000000000000000000000000000000000000600082015250565b6000614627600d83612be7565b9150614632826145f1565b602082019050919050565b600060208201905081810360008301526146568161461a565b9050919050565b7f506c6179657220616c726561647920696e206c6f626279000000000000000000600082015250565b6000614693601783612be7565b915061469e8261465d565b602082019050919050565b600060208201905081810360008301526146c281614686565b9050919050565b7f4c6f626279206e6f7420726561647920666f722073636f726573000000000000600082015250565b60006146ff601a83612be7565b915061470a826146c9565b602082019050919050565b6000602082019050818103600083015261472e816146f2565b9050919050565b7f506c617965727320616e642073636f72657320617272617973206c656e67746860008201527f206d69736d617463680000000000000000000000000000000000000000000000602082015250565b6000614791602983612be7565b915061479c82614735565b604082019050919050565b600060208201905081810360008301526147c081614784565b9050919050565b7f4d757374207375626d69742073636f72657320666f7220616c6c20706c61796560008201527f7273000000000000000000000000000000000000000000000000000000000000602082015250565b6000614823602283612be7565b915061482e826147c7565b604082019050919050565b6000602082019050818103600083015261485281614816565b9050919050565b7f4f776e61626c653a206e6577206f776e657220697320746865207a65726f206160008201527f6464726573730000000000000000000000000000000000000000000000000000602082015250565b60006148b5602683612be7565b91506148c082614859565b604082019050919050565b600060208201905081810360008301526148e4816148a8565b9050919050565b7f5265656e7472616e637947756172643a207265656e7472616e742063616c6c00600082015250565b6000614921601f83612be7565b915061492c826148eb565b602082019050919050565b6000602082019050818103600083015261495081614914565b9050919050565b7f4f776e61626c653a2063616c6c6572206973206e6f7420746865206f776e6572600082015250565b600061498d602083612be7565b915061499882614957565b602082019050919050565b600060208201905081810360008301526149bc81614980565b905091905056fea2646970667358221220b08c609029ab84d12368ff5d586cbf08e84f8e08c2d0c92491a3d1cfbc513f5964736f6c634300080a0033",
  "linkReferences": {},
  "deployedLinkReferences": {}
}