{
  "_format": "hh-sol-artifact-1",
  "contractName": "QuizCraftArena",
  "sourceName": "contracts/Quiz.sol",
  "abi": [
    {
      "inputs": [
        {
          "internalType": "uint256",
          "name": "_feeBps",
          "type": "uint256"
        }
      ],
      "stateMutability": "nonpayable",
      "type": "constructor"
    },
    {
      "anonymous": false,
      "inputs": [
        {
          "indexed": false,
          "internalType": "uint256",
          "name": "newFeeBps",
          "type": "uint256"
        }
      ],
      "name": "FeeUpdated",
      "type": "event"
    },
    {
      "anonymous": false,
      "inputs": [
        {
          "indexed": false,
          "internalType": "address",
          "name": "newGameMaster",
          "type": "address"
        }
      ],
      "name": "GameMasterUpdated",
      "type": "event"
    },
    {
      "anonymous": false,
      "inputs": [
        {
          "indexed": true,
          "internalType": "uint256",
          "name": "lobbyId",
          "type": "uint256"
        }
      ],
      "name": "LobbyCancelled",
      "type": "event"
    },
    {
      "anonymous": false,
      "inputs": [
        {
          "indexed": true,
          "internalType": "uint256",
          "name": "lobbyId",
          "type": "uint256"
        },
        {
          "indexed": false,
          "internalType": "address",
          "name": "winner",
          "type": "address"
        },
        {
          "indexed": false,
          "internalType": "uint256",
          "name": "prize",
          "type": "uint256"
        }
      ],
      "name": "LobbyCompleted",
      "type": "event"
    },
    {
      "anonymous": false,
      "inputs": [
        {
          "indexed": true,
          "internalType": "uint256",
          "name": "lobbyId",
          "type": "uint256"
        },
        {
          "indexed": false,
          "internalType": "uint256",
          "name": "entryFee",
          "type": "uint256"
        },
        {
          "indexed": false,
          "internalType": "uint256",
          "name": "maxPlayers",
          "type": "uint256"
        }
      ],
      "name": "LobbyCreated",
      "type": "event"
    },
    {
      "anonymous": false,
      "inputs": [
        {
          "indexed": true,
          "internalType": "address",
          "name": "previousOwner",
          "type": "address"
        },
        {
          "indexed": true,
          "internalType": "address",
          "name": "newOwner",
          "type": "address"
        }
      ],
      "name": "OwnershipTransferred",
      "type": "event"
    },
    {
      "anonymous": false,
      "inputs": [
        {
          "indexed": true,
          "internalType": "uint256",
          "name": "lobbyId",
          "type": "uint256"
        },
        {
          "indexed": false,
          "internalType": "address",
          "name": "player",
          "type": "address"
        }
      ],
      "name": "PlayerJoined",
      "type": "event"
    },
    {
      "anonymous": false,
      "inputs": [
        {
          "indexed": false,
          "internalType": "address",
          "name": "player",
          "type": "address"
        },
        {
          "indexed": false,
          "internalType": "uint256",
          "name": "amount",
          "type": "uint256"
        }
      ],
      "name": "RefundClaimed",
      "type": "event"
    },
    {
      "inputs": [],
      "name": "LOBBY_TIMEOUT",
      "outputs": [
        {
          "internalType": "uint256",
          "name": "",
          "type": "uint256"
        }
      ],
      "stateMutability": "view",
      "type": "function"
    },
    {
      "inputs": [
        {
          "internalType": "uint256",
          "name": "_lobbyId",
          "type": "uint256"
        }
      ],
      "name": "claimRefund",
      "outputs": [],
      "stateMutability": "nonpayable",
      "type": "function"
    },
    {
      "inputs": [
        {
          "internalType": "uint256",
          "name": "_entryFee",
          "type": "uint256"
        },
        {
          "internalType": "uint256",
          "name": "_maxPlayers",
          "type": "uint256"
        }
      ],
      "name": "createLobby",
      "outputs": [
        {
          "internalType": "uint256",
          "name": "",
          "type": "uint256"
        }
      ],
      "stateMutability": "nonpayable",
      "type": "function"
    },
    {
      "inputs": [],
      "name": "gameMaster",
      "outputs": [
        {
          "internalType": "address",
          "name": "",
          "type": "address"
        }
      ],
      "stateMutability": "view",
      "type": "function"
    },
    {
      "inputs": [
        {
          "internalType": "uint256",
          "name": "_lobbyId",
          "type": "uint256"
        }
      ],
      "name": "getPlayersInLobby",
      "outputs": [
        {
          "internalType": "address[]",
          "name": "",
          "type": "address[]"
        }
      ],
      "stateMutability": "view",
      "type": "function"
    },
    {
      "inputs": [
        {
          "internalType": "uint256",
          "name": "_lobbyId",
          "type": "uint256"
        },
        {
          "internalType": "address",
          "name": "_player",
          "type": "address"
        }
      ],
      "name": "isPlayerInLobby",
      "outputs": [
        {
          "internalType": "bool",
          "name": "",
          "type": "bool"
        }
      ],
      "stateMutability": "view",
      "type": "function"
    },
    {
      "inputs": [
        {
          "internalType": "uint256",
          "name": "_lobbyId",
          "type": "uint256"
        }
      ],
      "name": "joinLobby",
      "outputs": [],
      "stateMutability": "payable",
      "type": "function"
    },
    {
      "inputs": [
        {
          "internalType": "uint256",
          "name": "",
          "type": "uint256"
        }
      ],
      "name": "lobbies",
      "outputs": [
        {
          "internalType": "uint256",
          "name": "id",
          "type": "uint256"
        },
        {
          "internalType": "uint256",
          "name": "entryFee",
          "type": "uint256"
        },
        {
          "internalType": "uint256",
          "name": "playerCount",
          "type": "uint256"
        },
        {
          "internalType": "uint256",
          "name": "maxPlayers",
          "type": "uint256"
        },
        {
          "internalType": "uint256",
          "name": "prizePool",
          "type": "uint256"
        },
        {
          "internalType": "uint256",
          "name": "createdAt",
          "type": "uint256"
        },
        {
          "internalType": "enum QuizCraftArena.LobbyStatus",
          "name": "status",
          "type": "uint8"
        },
        {
          "internalType": "address",
          "name": "winner",
          "type": "address"
        },
        {
          "internalType": "bool",
          "name": "prizeDistributed",
          "type": "bool"
        }
      ],
      "stateMutability": "view",
      "type": "function"
    },
    {
      "inputs": [],
      "name": "nextLobbyId",
      "outputs": [
        {
          "internalType": "uint256",
          "name": "",
          "type": "uint256"
        }
      ],
      "stateMutability": "view",
      "type": "function"
    },
    {
      "inputs": [],
      "name": "owner",
      "outputs": [
        {
          "internalType": "address",
          "name": "",
          "type": "address"
        }
      ],
      "stateMutability": "view",
      "type": "function"
    },
    {
      "inputs": [
        {
          "internalType": "address",
          "name": "",
          "type": "address"
        }
      ],
      "name": "pendingReturns",
      "outputs": [
        {
          "internalType": "uint256",
          "name": "",
          "type": "uint256"
        }
      ],
      "stateMutability": "view",
      "type": "function"
    },
    {
      "inputs": [],
      "name": "platformFeeBps",
      "outputs": [
        {
          "internalType": "uint256",
          "name": "",
          "type": "uint256"
        }
      ],
      "stateMutability": "view",
      "type": "function"
    },
    {
      "inputs": [],
      "name": "renounceOwnership",
      "outputs": [],
      "stateMutability": "nonpayable",
      "type": "function"
    },
    {
      "inputs": [
        {
          "internalType": "uint256",
          "name": "_lobbyId",
          "type": "uint256"
        },
        {
          "internalType": "address",
          "name": "_winner",
          "type": "address"
        }
      ],
      "name": "resolveGame",
      "outputs": [],
      "stateMutability": "nonpayable",
      "type": "function"
    },
    {
      "inputs": [
        {
          "internalType": "address",
          "name": "newOwner",
          "type": "address"
        }
      ],
      "name": "transferOwnership",
      "outputs": [],
      "stateMutability": "nonpayable",
      "type": "function"
    },
    {
      "inputs": [
        {
          "internalType": "address",
          "name": "_newGameMaster",
          "type": "address"
        }
      ],
      "name": "updateGameMaster",
      "outputs": [],
      "stateMutability": "nonpayable",
      "type": "function"
    },
    {
      "inputs": [
        {
          "internalType": "uint256",
          "name": "_newFeeBps",
          "type": "uint256"
        }
      ],
      "name": "updatePlatformFee",
      "outputs": [],
      "stateMutability": "nonpayable",
      "type": "function"
    },
    {
      "inputs": [
        {
          "internalType": "contract IERC20",
          "name": "_token",
          "type": "address"
        },
        {
          "internalType": "address",
          "name": "_to",
          "type": "address"
        }
      ],
      "name": "withdrawERC20",
      "outputs": [],
      "stateMutability": "nonpayable",
      "type": "function"
    },
    {
      "inputs": [],
      "name": "withdrawRefund",
      "outputs": [],
      "stateMutability": "nonpayable",
      "type": "function"
    },
    {
      "stateMutability": "payable",
      "type": "receive"
    }
  ],
  "bytecode": "0x60806040523480156200001157600080fd5b5060405162002f1d38038062002f1d8339818101604052810190620000379190620001bc565b60016000819055506200005f62000053620000ae60201b60201c565b620000b660201b60201c565b8060028190555033600360006101000a81548173ffffffffffffffffffffffffffffffffffffffff021916908373ffffffffffffffffffffffffffffffffffffffff16021790555050620001ee565b600033905090565b6000600160009054906101000a900473ffffffffffffffffffffffffffffffffffffffff16905081600160006101000a81548173ffffffffffffffffffffffffffffffffffffffff021916908373ffffffffffffffffffffffffffffffffffffffff1602179055508173ffffffffffffffffffffffffffffffffffffffff168173ffffffffffffffffffffffffffffffffffffffff167f8be0079c531659141344cd1fd0a4f28419497f9722a3daafe3b4186f6b6457e060405160405180910390a35050565b600080fd5b6000819050919050565b620001968162000181565b8114620001a257600080fd5b50565b600081519050620001b6816200018b565b92915050565b600060208284031215620001d557620001d46200017c565b5b6000620001e584828501620001a5565b91505092915050565b612d1f80620001fe6000396000f3fe6080604052600436106101185760003560e01c8063715018a6116100a0578063bdf84ae711610064578063bdf84ae7146103d5578063c309b1e314610400578063d85cdcb61461042b578063e9173b3a14610468578063f2fde38b1461048457610158565b8063715018a6146103165780638da5cb5b1461032d5780639456fbcc14610358578063a16353bf14610381578063aa0b5988146103ac57610158565b806332d8f3fd116100e757806332d8f3fd14610205578063559ab8cc1461022e5780635b7baf641461026b57806361f5b656146102945780636e8fb4c6146102d157610158565b8063110f88741461015d57806311ca230b1461017457806322dcd13e1461019d57806326b387bb146101c857610158565b36610158576040517f08c379a000000000000000000000000000000000000000000000000000000000815260040161014f90611a4e565b60405180910390fd5b600080fd5b34801561016957600080fd5b506101726104ad565b005b34801561018057600080fd5b5061019b60048036038101906101969190611b07565b610672565b005b3480156101a957600080fd5b506101b2610ae7565b6040516101bf9190611b56565b60405180910390f35b3480156101d457600080fd5b506101ef60048036038101906101ea9190611b71565b610aed565b6040516101fc9190611b56565b60405180910390f35b34801561021157600080fd5b5061022c60048036038101906102279190611b71565b610b05565b005b34801561023a57600080fd5b5061025560048036038101906102509190611b07565b610bf8565b6040516102629190611bb9565b60405180910390f35b34801561027757600080fd5b50610292600480360381019061028d9190611bd4565b610d08565b005b3480156102a057600080fd5b506102bb60048036038101906102b69190611c01565b610fc3565b6040516102c89190611b56565b60405180910390f35b3480156102dd57600080fd5b506102f860048036038101906102f39190611bd4565b611112565b60405161030d99989796959493929190611cc7565b60405180910390f35b34801561032257600080fd5b5061032b61119a565b005b34801561033957600080fd5b506103426111ae565b60405161034f9190611d54565b60405180910390f35b34801561036457600080fd5b5061037f600480360381019061037a9190611dad565b6111d8565b005b34801561038d57600080fd5b50610396611325565b6040516103a39190611b56565b60405180910390f35b3480156103b857600080fd5b506103d360048036038101906103ce9190611bd4565b61132b565b005b3480156103e157600080fd5b506103ea6113b9565b6040516103f79190611d54565b60405180910390f35b34801561040c57600080fd5b506104156113df565b6040516104229190611b56565b60405180910390f35b34801561043757600080fd5b50610452600480360381019061044d9190611bd4565b6113e5565b60405161045f9190611eab565b60405180910390f35b610482600480360381019061047d9190611bd4565b6114cf565b005b34801561049057600080fd5b506104ab60048036038101906104a69190611b71565b6117c7565b005b6104b561184b565b6000600560003373ffffffffffffffffffffffffffffffffffffffff1673ffffffffffffffffffffffffffffffffffffffff1681526020019081526020016000205490506000811161053c576040517f08c379a000000000000000000000000000000000000000000000000000000000815260040161053390611f19565b60405180910390fd5b6000600560003373ffffffffffffffffffffffffffffffffffffffff1673ffffffffffffffffffffffffffffffffffffffff1681526020019081526020016000208190555060003373ffffffffffffffffffffffffffffffffffffffff16826040516105a790611f6a565b60006040518083038185875af1925050503d80600081146105e4576040519150601f19603f3d011682016040523d82523d6000602084013e6105e9565b606091505b505090508061062d576040517f08c379a000000000000000000000000000000000000000000000000000000000815260040161062490611fcb565b60405180910390fd5b7f358fe4192934d3bf28ae181feda1f4bd08ca67f5e2fad55582cce5eb67304ae9338360405161065e929190611feb565b60405180910390a1505061067061189b565b565b61067a61184b565b600360009054906101000a900473ffffffffffffffffffffffffffffffffffffffff1673ffffffffffffffffffffffffffffffffffffffff163373ffffffffffffffffffffffffffffffffffffffff161461070a576040517f08c379a000000000000000000000000000000000000000000000000000000000815260040161070190612060565b60405180910390fd5b81600654811061074f576040517f08c379a0000000000000000000000000000000000000000000000000000000008152600401610746906120cc565b60405180910390fd5b60006004600085815260200190815260200160002090506001600481111561077a57610779611c41565b5b8160060160009054906101000a900460ff16600481111561079e5761079d611c41565b5b146107de576040517f08c379a00000000000000000000000000000000000000000000000000000000081526004016107d590612138565b60405180910390fd5b6107e88484610bf8565b610827576040517f08c379a000000000000000000000000000000000000000000000000000000000815260040161081e906121ca565b60405180910390fd5b8060080160149054906101000a900460ff1615610879576040517f08c379a000000000000000000000000000000000000000000000000000000000815260040161087090612236565b60405180910390fd5b60038160060160006101000a81548160ff021916908360048111156108a1576108a0611c41565b5b0217905550828160080160006101000a81548173ffffffffffffffffffffffffffffffffffffffff021916908373ffffffffffffffffffffffffffffffffffffffff16021790555060018160080160146101000a81548160ff0219169083151502179055506000612710600254836004015461091d9190612285565b610927919061230e565b9050600081836004015461093b919061233f565b905060008573ffffffffffffffffffffffffffffffffffffffff168260405161096390611f6a565b60006040518083038185875af1925050503d80600081146109a0576040519150601f19603f3d011682016040523d82523d6000602084013e6109a5565b606091505b50509050806109e9576040517f08c379a00000000000000000000000000000000000000000000000000000000081526004016109e0906123bf565b60405180910390fd5b6109f16111ae565b73ffffffffffffffffffffffffffffffffffffffff1683604051610a1490611f6a565b60006040518083038185875af1925050503d8060008114610a51576040519150601f19603f3d011682016040523d82523d6000602084013e610a56565b606091505b50508091505080610a9c576040517f08c379a0000000000000000000000000000000000000000000000000000000008152600401610a939061242b565b60405180910390fd5b867f5d36374a8d1a6cae8e46381aea50cae98b85e5ede9e10916d26179527900e5208784604051610ace929190611feb565b60405180910390a25050505050610ae361189b565b5050565b60025481565b60056020528060005260406000206000915090505481565b610b0d6118a5565b600073ffffffffffffffffffffffffffffffffffffffff168173ffffffffffffffffffffffffffffffffffffffff161415610b7d576040517f08c379a0000000000000000000000000000000000000000000000000000000008152600401610b7490612497565b60405180910390fd5b80600360006101000a81548173ffffffffffffffffffffffffffffffffffffffff021916908373ffffffffffffffffffffffffffffffffffffffff1602179055507f4d58a68626659612199a8c82ba65a98101440af3ee23fc6179ecb5884501256381604051610bed9190611d54565b60405180910390a150565b6000826006548110610c3f576040517f08c379a0000000000000000000000000000000000000000000000000000000008152600401610c36906120cc565b60405180910390fd5b600060046000868152602001908152602001600020905060005b8160070180549050811015610cfa578473ffffffffffffffffffffffffffffffffffffffff16826007018281548110610c9557610c946124b7565b5b9060005260206000200160009054906101000a900473ffffffffffffffffffffffffffffffffffffffff1673ffffffffffffffffffffffffffffffffffffffff161415610ce757600193505050610d01565b8080610cf2906124e6565b915050610c59565b5060009250505b5092915050565b806006548110610d4d576040517f08c379a0000000000000000000000000000000000000000000000000000000008152600401610d44906120cc565b60405180910390fd5b600060046000848152602001908152602001600020905060006004811115610d7857610d77611c41565b5b8160060160009054906101000a900460ff166004811115610d9c57610d9b611c41565b5b1480610ddd575060016004811115610db757610db6611c41565b5b8160060160009054906101000a900460ff166004811115610ddb57610dda611c41565b5b145b610e1c576040517f08c379a0000000000000000000000000000000000000000000000000000000008152600401610e139061257b565b60405180910390fd5b61012c8160050154610e2e919061259b565b4211610e6f576040517f08c379a0000000000000000000000000000000000000000000000000000000008152600401610e669061263d565b60405180910390fd5b610e798333610bf8565b610eb8576040517f08c379a0000000000000000000000000000000000000000000000000000000008152600401610eaf906126a9565b60405180910390fd5b8060080160149054906101000a900460ff1615610f0a576040517f08c379a0000000000000000000000000000000000000000000000000000000008152600401610f0190612715565b60405180910390fd5b60048160060160006101000a81548160ff02191690836004811115610f3257610f31611c41565b5b02179055508060010154600560003373ffffffffffffffffffffffffffffffffffffffff1673ffffffffffffffffffffffffffffffffffffffff1681526020019081526020016000206000828254610f8a919061259b565b92505081905550827f77c76c657e315ec4202d02d6b866770c4edbabe032e6c201ca6d18859c470a3760405160405180910390a2505050565b6000808311611007576040517f08c379a0000000000000000000000000000000000000000000000000000000008152600401610ffe90612781565b60405180910390fd5b6001821161104a576040517f08c379a0000000000000000000000000000000000000000000000000000000008152600401611041906127ed565b60405180910390fd5b60006006600081548092919061105f906124e6565b919050559050600060046000838152602001908152602001600020905081816000018190555084816001018190555083816003018190555042816005018190555060008160060160006101000a81548160ff021916908360048111156110c8576110c7611c41565b5b0217905550817fa89d44ec5dc402322d94d2d9f2f24eb5882c23bd04ee82b018c3c8f96ba6026d86866040516110ff92919061280d565b60405180910390a2819250505092915050565b60046020528060005260406000206000915090508060000154908060010154908060020154908060030154908060040154908060050154908060060160009054906101000a900460ff16908060080160009054906101000a900473ffffffffffffffffffffffffffffffffffffffff16908060080160149054906101000a900460ff16905089565b6111a26118a5565b6111ac6000611923565b565b6000600160009054906101000a900473ffffffffffffffffffffffffffffffffffffffff16905090565b6111e06118a5565b60008273ffffffffffffffffffffffffffffffffffffffff166370a08231306040518263ffffffff1660e01b815260040161121b9190611d54565b602060405180830381865afa158015611238573d6000803e3d6000fd5b505050506040513d601f19601f8201168201806040525081019061125c919061284b565b9050600081116112a1576040517f08c379a0000000000000000000000000000000000000000000000000000000008152600401611298906128c4565b60405180910390fd5b8273ffffffffffffffffffffffffffffffffffffffff1663a9059cbb83836040518363ffffffff1660e01b81526004016112dc929190611feb565b6020604051808303816000875af11580156112fb573d6000803e3d6000fd5b505050506040513d601f19601f8201168201806040525081019061131f9190612910565b50505050565b61012c81565b6113336118a5565b6103e8811115611378576040517f08c379a000000000000000000000000000000000000000000000000000000000815260040161136f90612989565b60405180910390fd5b806002819055507f8c4d35e54a3f2ef1134138fd8ea3daee6a3c89e10d2665996babdf70261e2c76816040516113ae9190611b56565b60405180910390a150565b600360009054906101000a900473ffffffffffffffffffffffffffffffffffffffff1681565b60065481565b606081600654811061142c576040517f08c379a0000000000000000000000000000000000000000000000000000000008152600401611423906120cc565b60405180910390fd5b600460008481526020019081526020016000206007018054806020026020016040519081016040528092919081815260200182805480156114c257602002820191906000526020600020905b8160009054906101000a900473ffffffffffffffffffffffffffffffffffffffff1673ffffffffffffffffffffffffffffffffffffffff1681526020019060010190808311611478575b5050505050915050919050565b6114d761184b565b80600654811061151c576040517f08c379a0000000000000000000000000000000000000000000000000000000008152600401611513906120cc565b60405180910390fd5b81600080600481111561153257611531611c41565b5b6004600084815260200190815260200160002060060160009054906101000a900460ff16600481111561156857611567611c41565b5b146115a8576040517f08c379a000000000000000000000000000000000000000000000000000000000815260040161159f90612a1b565b60405180910390fd5b600060046000868152602001908152602001600020905080600101543414611605576040517f08c379a00000000000000000000000000000000000000000000000000000000081526004016115fc90612a87565b60405180910390fd5b8060030154816007018054905010611652576040517f08c379a000000000000000000000000000000000000000000000000000000000815260040161164990612af3565b60405180910390fd5b61165c8533610bf8565b1561169c576040517f08c379a000000000000000000000000000000000000000000000000000000000815260040161169390612b5f565b60405180910390fd5b80600701339080600181540180825580915050600190039060005260206000200160009091909190916101000a81548173ffffffffffffffffffffffffffffffffffffffff021916908373ffffffffffffffffffffffffffffffffffffffff160217905550806002016000815480929190611716906124e6565b91905055503481600401600082825461172f919061259b565b92505081905550847f87969bc7faf902221a147b95ceba76e011c5efb0339a0a8ee7a2bb82d9cfbbd6336040516117669190611d54565b60405180910390a28060030154816007018054905014156117b85760018160060160006101000a81548160ff021916908360048111156117a9576117a8611c41565b5b02179055504281600501819055505b505050506117c461189b565b50565b6117cf6118a5565b600073ffffffffffffffffffffffffffffffffffffffff168173ffffffffffffffffffffffffffffffffffffffff16141561183f576040517f08c379a000000000000000000000000000000000000000000000000000000000815260040161183690612bf1565b60405180910390fd5b61184881611923565b50565b60026000541415611891576040517f08c379a000000000000000000000000000000000000000000000000000000000815260040161188890612c5d565b60405180910390fd5b6002600081905550565b6001600081905550565b6118ad6119e9565b73ffffffffffffffffffffffffffffffffffffffff166118cb6111ae565b73ffffffffffffffffffffffffffffffffffffffff1614611921576040517f08c379a000000000000000000000000000000000000000000000000000000000815260040161191890612cc9565b60405180910390fd5b565b6000600160009054906101000a900473ffffffffffffffffffffffffffffffffffffffff16905081600160006101000a81548173ffffffffffffffffffffffffffffffffffffffff021916908373ffffffffffffffffffffffffffffffffffffffff1602179055508173ffffffffffffffffffffffffffffffffffffffff168173ffffffffffffffffffffffffffffffffffffffff167f8be0079c531659141344cd1fd0a4f28419497f9722a3daafe3b4186f6b6457e060405160405180910390a35050565b600033905090565b600082825260208201905092915050565b7f446f206e6f742073656e6420455448206469726563746c790000000000000000600082015250565b6000611a386018836119f1565b9150611a4382611a02565b602082019050919050565b60006020820190508181036000830152611a6781611a2b565b9050919050565b600080fd5b6000819050919050565b611a8681611a73565b8114611a9157600080fd5b50565b600081359050611aa381611a7d565b92915050565b600073ffffffffffffffffffffffffffffffffffffffff82169050919050565b6000611ad482611aa9565b9050919050565b611ae481611ac9565b8114611aef57600080fd5b50565b600081359050611b0181611adb565b92915050565b60008060408385031215611b1e57611b1d611a6e565b5b6000611b2c85828601611a94565b9250506020611b3d85828601611af2565b9150509250929050565b611b5081611a73565b82525050565b6000602082019050611b6b6000830184611b47565b92915050565b600060208284031215611b8757611b86611a6e565b5b6000611b9584828501611af2565b91505092915050565b60008115159050919050565b611bb381611b9e565b82525050565b6000602082019050611bce6000830184611baa565b92915050565b600060208284031215611bea57611be9611a6e565b5b6000611bf884828501611a94565b91505092915050565b60008060408385031215611c1857611c17611a6e565b5b6000611c2685828601611a94565b9250506020611c3785828601611a94565b9150509250929050565b7f4e487b7100000000000000000000000000000000000000000000000000000000600052602160045260246000fd5b60058110611c8157611c80611c41565b5b50565b6000819050611c9282611c70565b919050565b6000611ca282611c84565b9050919050565b611cb281611c97565b82525050565b611cc181611ac9565b82525050565b600061012082019050611cdd600083018c611b47565b611cea602083018b611b47565b611cf7604083018a611b47565b611d046060830189611b47565b611d116080830188611b47565b611d1e60a0830187611b47565b611d2b60c0830186611ca9565b611d3860e0830185611cb8565b611d46610100830184611baa565b9a9950505050505050505050565b6000602082019050611d696000830184611cb8565b92915050565b6000611d7a82611ac9565b9050919050565b611d8a81611d6f565b8114611d9557600080fd5b50565b600081359050611da781611d81565b92915050565b60008060408385031215611dc457611dc3611a6e565b5b6000611dd285828601611d98565b9250506020611de385828601611af2565b9150509250929050565b600081519050919050565b600082825260208201905092915050565b6000819050602082019050919050565b611e2281611ac9565b82525050565b6000611e348383611e19565b60208301905092915050565b6000602082019050919050565b6000611e5882611ded565b611e628185611df8565b9350611e6d83611e09565b8060005b83811015611e9e578151611e858882611e28565b9750611e9083611e40565b925050600181019050611e71565b5085935050505092915050565b60006020820190508181036000830152611ec58184611e4d565b905092915050565b7f4e6f2066756e647320746f207769746864726177000000000000000000000000600082015250565b6000611f036014836119f1565b9150611f0e82611ecd565b602082019050919050565b60006020820190508181036000830152611f3281611ef6565b9050919050565b600081905092915050565b50565b6000611f54600083611f39565b9150611f5f82611f44565b600082019050919050565b6000611f7582611f47565b9150819050919050565b7f526566756e64207472616e73666572206661696c656400000000000000000000600082015250565b6000611fb56016836119f1565b9150611fc082611f7f565b602082019050919050565b60006020820190508181036000830152611fe481611fa8565b9050919050565b60006040820190506120006000830185611cb8565b61200d6020830184611b47565b9392505050565b7f43616c6c6572206973206e6f74207468652047616d654d617374657200000000600082015250565b600061204a601c836119f1565b915061205582612014565b602082019050919050565b600060208201905081810360008301526120798161203d565b9050919050565b7f4c6f62627920646f6573206e6f74206578697374000000000000000000000000600082015250565b60006120b66014836119f1565b91506120c182612080565b602082019050919050565b600060208201905081810360008301526120e5816120a9565b9050919050565b7f4c6f626279206e6f7420726561647920746f207265736f6c7665000000000000600082015250565b6000612122601a836119f1565b915061212d826120ec565b602082019050919050565b6000602082019050818103600083015261215181612115565b9050919050565b7f57696e6e6572206973206e6f74206120706c6179657220696e2074686973206c60008201527f6f62627900000000000000000000000000000000000000000000000000000000602082015250565b60006121b46024836119f1565b91506121bf82612158565b604082019050919050565b600060208201905081810360008301526121e3816121a7565b9050919050565b7f5072697a6520616c726561647920646973747269627574656400000000000000600082015250565b60006122206019836119f1565b915061222b826121ea565b602082019050919050565b6000602082019050818103600083015261224f81612213565b9050919050565b7f4e487b7100000000000000000000000000000000000000000000000000000000600052601160045260246000fd5b600061229082611a73565b915061229b83611a73565b9250817fffffffffffffffffffffffffffffffffffffffffffffffffffffffffffffffff04831182151516156122d4576122d3612256565b5b828202905092915050565b7f4e487b7100000000000000000000000000000000000000000000000000000000600052601260045260246000fd5b600061231982611a73565b915061232483611a73565b925082612334576123336122df565b5b828204905092915050565b600061234a82611a73565b915061235583611a73565b92508282101561236857612367612256565b5b828203905092915050565b7f5472616e7366657220746f2077696e6e6572206661696c656400000000000000600082015250565b60006123a96019836119f1565b91506123b482612373565b602082019050919050565b600060208201905081810360008301526123d88161239c565b9050919050565b7f5472616e73666572206f6620666565206661696c656400000000000000000000600082015250565b60006124156016836119f1565b9150612420826123df565b602082019050919050565b6000602082019050818103600083015261244481612408565b9050919050565b7f496e76616c69642047616d654d61737465722061646472657373000000000000600082015250565b6000612481601a836119f1565b915061248c8261244b565b602082019050919050565b600060208201905081810360008301526124b081612474565b9050919050565b7f4e487b7100000000000000000000000000000000000000000000000000000000600052603260045260246000fd5b60006124f182611a73565b91507fffffffffffffffffffffffffffffffffffffffffffffffffffffffffffffffff82141561252457612523612256565b5b600182019050919050565b7f4e6f7420726566756e6461626c65000000000000000000000000000000000000600082015250565b6000612565600e836119f1565b91506125708261252f565b602082019050919050565b6000602082019050818103600083015261259481612558565b9050919050565b60006125a682611a73565b91506125b183611a73565b9250827fffffffffffffffffffffffffffffffffffffffffffffffffffffffffffffffff038211156125e6576125e5612256565b5b828201905092915050565b7f4c6f626279206e6f742079657420657870697265640000000000000000000000600082015250565b60006126276015836119f1565b9150612632826125f1565b602082019050919050565b600060208201905081810360008301526126568161261a565b9050919050565b7f4e6f74206120706c6179657220696e2074686973206c6f626279000000000000600082015250565b6000612693601a836119f1565b915061269e8261265d565b602082019050919050565b600060208201905081810360008301526126c281612686565b9050919050565b7f5072697a6520616c72656164792068616e646c65640000000000000000000000600082015250565b60006126ff6015836119f1565b915061270a826126c9565b602082019050919050565b6000602082019050818103600083015261272e816126f2565b9050919050565b7f456e74727920666565206d7573742062652067726561746572207468616e2030600082015250565b600061276b6020836119f1565b915061277682612735565b602082019050919050565b6000602082019050818103600083015261279a8161275e565b9050919050565b7f4d617820706c6179657273206d757374206265206174206c6561737420320000600082015250565b60006127d7601e836119f1565b91506127e2826127a1565b602082019050919050565b60006020820190508181036000830152612806816127ca565b9050919050565b60006040820190506128226000830185611b47565b61282f6020830184611b47565b9392505050565b60008151905061284581611a7d565b92915050565b60006020828403121561286157612860611a6e565b5b600061286f84828501612836565b91505092915050565b7f4e6f20746f6b656e7320746f2077697468647261770000000000000000000000600082015250565b60006128ae6015836119f1565b91506128b982612878565b602082019050919050565b600060208201905081810360008301526128dd816128a1565b9050919050565b6128ed81611b9e565b81146128f857600080fd5b50565b60008151905061290a816128e4565b92915050565b60006020828403121561292657612925611a6e565b5b6000612934848285016128fb565b91505092915050565b7f4665652063616e6e6f7420657863656564203130250000000000000000000000600082015250565b60006129736015836119f1565b915061297e8261293d565b602082019050919050565b600060208201905081810360008301526129a281612966565b9050919050565b7f4c6f626279206973206e6f7420696e2074686520636f7272656374207374617460008201527f7573000000000000000000000000000000000000000000000000000000000000602082015250565b6000612a056022836119f1565b9150612a10826129a9565b604082019050919050565b60006020820190508181036000830152612a34816129f8565b9050919050565b7f496e636f727265637420656e747279206665652073656e740000000000000000600082015250565b6000612a716018836119f1565b9150612a7c82612a3b565b602082019050919050565b60006020820190508181036000830152612aa081612a64565b9050919050565b7f4c6f6262792069732066756c6c00000000000000000000000000000000000000600082015250565b6000612add600d836119f1565b9150612ae882612aa7565b602082019050919050565b60006020820190508181036000830152612b0c81612ad0565b9050919050565b7f506c6179657220616c726561647920696e206c6f626279000000000000000000600082015250565b6000612b496017836119f1565b9150612b5482612b13565b602082019050919050565b60006020820190508181036000830152612b7881612b3c565b9050919050565b7f4f776e61626c653a206e6577206f776e657220697320746865207a65726f206160008201527f6464726573730000000000000000000000000000000000000000000000000000602082015250565b6000612bdb6026836119f1565b9150612be682612b7f565b604082019050919050565b60006020820190508181036000830152612c0a81612bce565b9050919050565b7f5265656e7472616e637947756172643a207265656e7472616e742063616c6c00600082015250565b6000612c47601f836119f1565b9150612c5282612c11565b602082019050919050565b60006020820190508181036000830152612c7681612c3a565b9050919050565b7f4f776e61626c653a2063616c6c6572206973206e6f7420746865206f776e6572600082015250565b6000612cb36020836119f1565b9150612cbe82612c7d565b602082019050919050565b60006020820190508181036000830152612ce281612ca6565b905091905056fea26469706673582212201c43a6002dfcf6b1ad6f0f43b2c7a23ea75d38fc893599cab09c9731a954e0b564736f6c634300080a0033",
  "linkReferences": {},
  "deployedLinkReferences": {}
}